:020000040000FA
:060000000A128A110E280D
:10000800FE00030EF3000408F4000A08F5000A12C3
:100018008A11B8280A128A1111280A128A1109218C
:100028000A128A11A6000A128A110A210A128A11D2
:10003800A7000A128A110B210A128A11A800F601D8
:10004800F70183010A128A1129280A128A11D1207C
:100058000A128A1101300A128A1103210A128A111E
:10006800C73083120313A4003928A40B38283C286E
:10007800831203138C1D4128422873282803031D6B
:100088004628472850281308A4002408A70002304F
:10009800A4002408A8005C2802302806031D55285F
:1000A80056285C281308A4002408A600A801A80A5A
:1000B80027080A128A11E9200A128A1183120313E7
:1000C80026080A128A11E9200A128A1183120313D8
:1000D8008C1101300A128A1103210A128A110D307B
:1000E80083120313A500FB30A400A40B7928A50BE9
:1000F80079283C280A128A110E2883120313A300B8
:1001080083160313871283120313231D8C288D284B
:10011800932822088316031394008715992820082A
:1001280022048316031394008711831203132308F0
:100138002104940008008316031318139816181244
:1001480098101815831203139817181318161930D6
:10015800831603139900071787130B178C1683123E
:1001680003138C128B170800831203138C1EBD28EF
:10017800BE28C8288C120630F0000030F1000A12A0
:100188008A11F7200A128A1175088A0074088400F7
:10019800730E8300FE0E7E0E09008316031386017C
:1001A800831603178901831203138601A001A10195
:1001B800A20120300A128A1181200A128A110A1219
:1001C8008A119F200A128A11080083120313A000C3
:1001D80083160313981CF128F228EC2883120313C2
:1001E800200899000800831203131A08F200700807
:1001F80084008317711C831372088000080083121F
:100208000313A000200893000800043405340134C7
:04400E00D4E0FFFFFC
:00000001FF
