:020000040000FA
:060000000A128A110C280F
:10000800FE00030EF8000A08F9000A128A15B22A3F
:100018000A128A110F28831603130A168A11C82692
:100028000A128A11BB000A168A11C9260A128A11F5
:10003800BC000A168A11CA260A128A11BD000A16BD
:100048008A11CB260A128A11BE000A168A11CC26FA
:100058000A128A11BF000A168A11CD260A128A11BD
:10006800C0008313A0308400BB300A168A11CE2644
:100078000A128A1183120313EC01ED01EE01EF015C
:10008800F001F101F201F301F40183010A128A116E
:100098004D280A128A150C200A128A1101300A16F4
:1000A8008A111E270A128A11063083120313E500EB
:1000B8002F30E400E40B5E28E50B5E2863288312EA
:1000C8000313A301A30A01300A168A1159270A1239
:1000D8008A1101300A168A11A5270A128A11831279
:1000E80003136F0885000A168A11D6260A128A1188
:1000F800313083120313A0000030A1000A128A15C0
:1001080002200A128A11003083120313A000A100F2
:100118000A168A11CE270A128A118312031320089D
:10012800F0002108F100F201F3010A168A11DF2616
:100138000A128A11700883120313E4007108E5009B
:100148007208E6007308E70008300310E40DE50DB7
:10015800E60DE70DFF3E031DA9286708F3006608B2
:10016800F2006508F1006408F000C7308312031339
:10017800E400BE28E40BBD28C1280A168A11D62639
:100188000A128A11313083120313A0000030A10033
:100198000A128A1502200A128A11700883120313A0
:1001A800E4007108E5007208E6007308E700003013
:1001B800A000A1000A168A11CE270A128A118312FA
:1001C80003132008E8002108E900EA01EB016808A8
:1001D800E40769080318690FF228F328E5076A0895
:1001E80003186A0FF828F928E6076B0803186B0A42
:1001F800E7076708F3006608F2006508F10064087D
:10020800F0000A168A11DF260A128A117008831272
:100218000313E4007108E5007208E6007308E700BC
:1002280008300310E40DE50DE60DE70DFF3E031D54
:1002380015296708F3006608F2006508F1006408EC
:10024800F000C73083120313E4002A29E40B29299C
:100258002D290A168A11D6260A128A1131308312DC
:100268000313A0000030A1000A128A1502200A1206
:100278008A11700883120313E4007108E5007208FC
:10028800E6007308E7000030A000A1000A168A11F2
:10029800CE270A128A11831203132008E8002108C6
:1002A800E900EA01EB016808E40769080318690F27
:1002B8005E295F29E5076A0803186A0F642965291A
:1002C800E6076B0803186B0AE7076708F300660878
:1002D800F2006508F1006408F0000A168A11DF26AA
:1002E8000A128A11C73083120313E4007B29E40B36
:1002F8007A297E29700883120313E4007108E50047
:100308007208E6007308E70008300310E40DE50DF5
:10031800E60DE70DFF3E031D89296708F30066080F
:10032800F2006508F1006408F000C7308312031377
:10033800E4009E29E40B9D29A1290A168A11D626D4
:100348000A128A11313083120313A0000030A10071
:100358000A128A1502200A128A11700883120313DE
:10036800E4007108E5007208E6007308E700003051
:10037800A000A1000A168A11CE270A128A11831238
:1003880003132008E8002108E900EA01EB016808E6
:10039800E40769080318690FD229D329E5076A0811
:1003A80003186A0FD829D929E6076B0803186B0ABE
:1003B800E7076708F3006608F2006508F1006408BB
:1003C800F0000A168A11DF260A128A11C730831232
:1003D8000313E400EF29E40BEE29F22973088312D2
:1003E8000313D0007208CF007108CE007008CD004A
:1003F8006F30E4006408D1006E30E5006508D20073
:100408006D30E6006608D3000A128A1182260A12A5
:100418008A110A168A11D6260A128A1121308312E5
:100428000313A0000030A1000A128A1502200A1244
:100438008A11003083120313A000A1000A168A1142
:10044800CE270A128A11831203132008E4006408D5
:10045800EC000A168A11DF260A128A11C7308312A5
:100468000313E400372AE40B362A3A2A0A168A11BB
:10047800D6260A128A11213083120313A0000030F5
:10048800A1000A128A1502200A128A11003083126A
:100498000313A000A1000A168A11CE270A128A1196
:1004A800831203132008E400640883160313BA00B8
:1004B8000A168A11DF260A128A11C730831203131B
:1004C800E400662AE40B652A692A0A168A11D626E8
:1004D8000A128A11213083120313A0000030A100F0
:1004E8000A128A1502200A128A1100308312031395
:1004F800A000A1000A168A11CE270A128A118312B7
:1005080003132008E400640883160313B9000A16CD
:100518008A11DF260A128A11C73083120313E400F6
:10052800952AE40B942A982A0A168A11D6260A12C2
:100538008A11213083120313A0000030A1000A128F
:100548008A1502200A128A11003083120313A000B0
:10055800A1000A168A11CE270A128A1183120313E0
:100568002008E400640883160313B8000A168A11E9
:10057800DF260A128A11C73083120313E400C42A43
:10058800E40BC32AC72A0A168A11D6260A128A1128
:10059800213083120313A0000030A1000A128A152B
:1005A80002200A128A11003083120313A000A1004E
:1005B8000A168A11CE270A128A11831203132008F9
:1005C800E400640883160313AB000A168A11DF26B9
:1005D8000A128A11C73083120313E400F32AE40BCA
:1005E800F22AF62A0A168A11D6260A128A11113018
:1005F80083120313A0000030A1000A128A150220FA
:100608000A128A11003083120313A000A1000A16EF
:100618008A11CE270A128A11831203132008E400D4
:10062800640883160313B6000A168A11DF260A1215
:100638008A11C73083120313E400222BE40B212B09
:10064800252B0A168A11D6260A128A11113083120E
:100658000313A0000030A1000A128A1502200A1212
:100668008A11003083120313A000A1000A168A1110
:10067800CE270A128A11831203132008E4006408A3
:1006880083160313B5000A168A11DF260A128A1187
:10069800C73083120313E400512BE40B502B542B67
:1006A8000A168A11D6260A128A11113083120313E8
:1006B800A0000030A1000A128A1502200A128A112D
:1006C800003083120313A000A1000A168A11CE2756
:1006D8000A128A11831203132008E400640883169F
:1006E8000313B4000A168A11DF260A128A11C730CA
:1006F80083120313E400802BE40B7F2B832B0A1651
:100708008A11D6260A128A11113083120313A00007
:100718000030A1000A128A1502200A128A1100303C
:1007280083120313A000A1000A168A11CE270A1209
:100738008A11831203132008E40064088316031344
:10074800B3000A168A11DF260A128A11C7308312EB
:100758000313E400AF2BE40BAE2BB22B0A168A115D
:10076800D6260A128A11713083120313A0000030B2
:10077800A1000A128A1502200A128A110030831277
:100788000313A000A1000A168A11CE270A128A11A3
:10079800831203132008E400640883160313B200CD
:1007A8000A168A11DF260A128A11C7308312031328
:1007B800E400DE2BE40BDD2BE12B0A168A11D6268A
:1007C8000A128A11713083120313A0000030A100AD
:1007D8000A128A1502200A128A11003083120313A2
:1007E800A000A1000A168A11CE270A128A118312C4
:1007F80003132008E400640883160313B1000A16E3
:100808008A11DF260A128A11C73083120313E40003
:100818000D2CE40B0C2C102C0A168A11D6260A1261
:100828008A11713083120313A0000030A1000A124C
:100838008A1502200A128A11003083120313A000BD
:10084800A1000A168A11CE270A128A1183120313ED
:100858002008E400640883160313B0000A168A11FE
:10086800DF260A128A11C73083120313E4003C2CD6
:10087800E40B3B2C3F2C0A168A11D6260A128A1141
:10088800713083120313A0000030A1000A128A15E8
:1008980002200A128A11003083120313A000A1005B
:1008A8000A168A11CE270A128A1183120313200806
:1008B800E400640883160313AF000A168A11DF26C2
:1008C8000A128A11C73083120313E4006B2CE40B5D
:1008D8006A2C6E2C0A168A11D6260A128A117130D1
:1008E80083120313A0000030A1000A128A15022007
:1008F8000A128A11003083120313A000A1000A16FD
:100908008A11CE270A128A11831203132008E400E1
:10091800640883160313A4000A168A11DF260A1234
:100928008A11C73083120313E4009A2CE40B992C24
:100938009D2C0A168A11D6260A128A117130831242
:100948000313A0000030A1000A128A1502200A121F
:100958008A11003083120313A000A1000A168A111D
:10096800CE270A128A11831203132008E4006408B0
:1009780083160313A5000A168A11DF260A128A11A4
:10098800C73083120313E400C92CE40BC82CCC2C09
:1009980083160313200821040319D32CD42CDB2C31
:1009A8000130A0020030031CA103A102372D20084A
:1009B8002104031DE02CE12C372D01300A168A1181
:1009C8001E270A128A11C73083120313E400EC2C85
:1009D800E40BEB2CEF2C033083120313E4006408C0
:1009E800A30001300A168A1159270A128A111030F9
:1009F8000A168A11A5270A128A11033083120313D3
:100A0800E4006408A30002300A168A1159270A1262
:100A18008A11831203136F080A168A1108270A120B
:100A28008A11831203136E080A168A1108270A12FC
:100A38008A113C300A168A11A5270A128A118312D4
:100A480003136D080A168A1108270A128A113E3004
:100A58000A168A11A5270A128A110430831603136D
:100A6800A0000030A1003F08400403193C2D3D2D93
:100A7800442D0130BF020030031CC003C002A22D68
:100A88003F084004031D492D4A2DA22D01300A16A6
:100A98008A111E270A128A11C73083120313E40031
:100AA800552DE40B542D582D033083120313E40005
:100AB8006408A30001300A168A1159270A128A11FC
:100AC80030300A168A11A5270A128A1103308312B8
:100AD8000313E4006408A30002300A168A11592798
:100AE8000A128A11831203136C080A168A1108273E
:100AF8000A128A11831603133A080A168A1108275C
:100B08000A128A118316031339080A168A1108274C
:100B18000A128A118316031338080A168A1108273D
:100B28000A128A1136300A168A11A5270A128A1162
:100B3800043083160313BF000030C0003D083E0494
:100B48000319A72DA82DAF2D0130BD020030031CBD
:100B5800BE03BE020D2E3D083E04031DB42DB52D67
:100B68000D2E01300A168A111E270A128A11C73063
:100B780083120313E400C02DE40BBF2DC32D0330F3
:100B880083120313E4006408A30001300A168A11D3
:100B980059270A128A1128300A168A11A5270A121B
:100BA8008A11033083120313E4006408A30002309F
:100BB8000A168A1159270A128A118316031336084E
:100BC8000A168A1108270A128A113C300A168A1155
:100BD800A5270A128A118316031335080A168A11E3
:100BE80008270A128A118316031334080A168A1171
:100BF80008270A128A118316031333080A168A1162
:100C080008270A128A11043083160313BD00003026
:100C1800BE003B083C040319122E132E1A2E013075
:100C2800BB020030031CBC03BC0273283B083C0415
:100C3800031D1F2E202E732801300A168A111E2725
:100C48000A128A11C73083120313E4002B2EE40B17
:100C58002A2E2E2E033083120313E4006408A30007
:100C680001300A168A1159270A128A111D300A16EC
:100C78008A11A5270A128A11033083120313E4008C
:100C88006408A30002300A168A1159270A128A1129
:100C98008316031332080A168A1108270A128A11C2
:100CA8008316031331080A168A1108270A128A11B3
:100CB8003C300A168A11A5270A128A1183160313D3
:100CC80030080A168A1108270A128A118316031394
:100CD8002F080A168A1108270A128A1139300A16AB
:100CE8008A11A5270A128A11043083160313BB0040
:100CF8000030BC0073280A128A110C2883120313CF
:100D08005008A9004F08A8004E08A7004D08A600E3
:100D180000300A128A15F6210A128A118312031367
:100D28002908E2002808E1002708E0002608DF007B
:100D38006208A7006108A6006008A5005F08A40073
:100D48004230A300C830A2000030A1000030A0004B
:100D58000A128A159B230A128A1183120313230885
:100D6800C5002208C4002108C3002008C2000A12D6
:100D78008A15F6200A128A11831203134208D40036
:100D88005408E3006208A7006108A6006008A500EF
:100D98005F08A4004130A3002030A2000030A10069
:100DA8000030A0000A128A159B230A128A118312A6
:100DB80003132308C1002208C0002108BF0020082F
:100DC800BE000A30A2000030A3006308D400D50199
:100DD8005408A0005508A1000A168A117E270A1295
:100DE8008A11831203132008A6002108A7000030E7
:100DF800A71BFF30A800A90001300A128A15F621A6
:100E08000A128A11831203132908BD002808BC009E
:100E18002708BB002608BA000A168A1135270A12C5
:100E28008A11831203133D08C5003C08C4003B081F
:100E3800C3003A08C2000A128A15F6200A128A115B
:100E4800831203134208D6005608DE006208A70082
:100E58006108A6006008A5005F08A4003F30A30051
:100E68008030A2000030A1000030A0000A128A15CC
:100E78009B230A128A11831203132308C100220834
:100E8800C0002108BF002008BE006430A200003066
:100E9800A3006308D400D5015408A0005508A10098
:100EA8000A168A117E270A128A1183120313200850
:100EB800D6002108D7000A30A2000030A3005E083F
:100EC800D800D9015808A0005908A1000A168A11AB
:100ED8007E270A128A118312031320085607DA00A4
:100EE80021080318210A5707DB005A08A6005B08E7
:100EF800A7000030A71BFF30A800A90001300A1284
:100F08008A15F6210A128A11831203132908BD00D3
:100F18002808BC002708BB002608BA000A168A1150
:100F280035270A128A11831203133D08C5003C08AD
:100F3800C4003B08C3003A08C2000A128A15F6200A
:100F48000A128A11831203134208DC005C08DD00D0
:100F58006308303ED400510884005408831380008D
:100F68005E08303ED40052088400540880005D08B2
:100F7800303ED4005308840054088000080028300C
:100F8800831203139400831603139101831203132E
:100F98002E08B2002F08B3003008B4003108B5009D
:100FA80002300310B20DB30DB40DB50DFF3E031D95
:100FB800D52F3508A3003408A2003308A100320851
:100FC800A0000030A7003D30A6000930A500003081
:100FD800A4000A128A158E200A128A11831203139A
:100FE8002008FF3E83160313930094018715071604
:020FF8000800EF
:101004000A168A11E8260A128A1583120313200885
:1010140093000800003083120313B1000130B000C4
:101024008630AF00A030AE000A128A11C3270A121C
:101034008A15803083120313A0002530A100A20179
:10104400A20AA301A30AA4010A128A1572210A1290
:101054008A150A128A1542200A128A15831203136A
:1010640088018316031385018316031788018312ED
:10107400031385018B170B17831603138C160800B3
:10108400831603138601831603178901831603133A
:101094008801153083120313A400C530A300A30BE9
:1010A4005128A40B5128562803300A168A111E27EA
:1010B4000A128A15063083120313A4007230A300A7
:1010C400A30B6228A40B6228000003300A168A11BD
:1010D4001E270A128A15C73083120313A30072282D
:1010E400A30B7128752803300A168A111E270A12C9
:1010F4008A1538300A168A111E270A128A150C30EE
:101104000A168A111E270A128A1506300A168A112F
:101114001E270A128A150800003083120313AC003C
:101124000030AB000030AA000030A90023082204DC
:101134002104200403199F28A028ED28AD01AD0A3D
:10114400B0280130A8000310A00DA10DA20DA30D1D
:10115400A80BA5280130A8002808AD07A31FB328B1
:10116400B428A3280130A8000310A90DAA0DAB0DC3
:10117400AC0DA80BB62823082702031DCB28220890
:101184002602031DCB2821082502031DCB28200895
:101194002402031CCE28CF28DE282008A40221081C
:1011A400031C210FA5022208031C220FA6022308F8
:1011B400031C230FA702291401300310A30CA20C53
:1011C400A10CA00CFF3E031DDF280130AD02031D5E
:1011D400EC28ED28B4282C08A3002B08A2002A0828
:1011E400A1002908A0000800031083120313440D72
:1011F400450DC6004608CC004C08031D02290329EE
:101204000C290030C5000030C4000030C300003099
:10121400C20071294208C6004308C7004408C80038
:101224004508C9001F300310C90CC80CC70CC60CF4
:10123400FF3E031D15294608CA004A08CB00C417FF
:10124400FF30C205FF30C305FF30C4050030C505BB
:101254009630CC02CC1F2F2930294A294C08803AD9
:10126400973E0318362937293829032901300310FA
:10127400C50CC40CC30CC20CFF3E031D392901303C
:10128400C6004608CC07031D482949293829612985
:1012940020304C02031C4F2950295C2903290130BA
:1012A400C6000310C20DC30DC40DC50DC60B5329D2
:1012B4000130CC024C08031D6029612951294B08D7
:1012C4000319652966297129C209C309C409C50915
:1012D400C20A0319C30A0319C40A0319C50A080078
:1012E40083160313871707138C128312031398179B
:1012F400240C83160313031C1812031818168312E4
:10130400031323080319872988298F29181683169C
:1013140003138C16831203138C12220803199329C6
:101324009429972983160313981683160317871590
:101334008316031318112C30831203132006031D84
:10134400A7292103031DA729A829AF294030831603
:101354000313990003309A00F329B03020060430B7
:1013640003192106031DB729B829BD29CF308316D7
:1013740003139900F329603020060930031921066C
:10138400031DC529C629CB29673083160313990089
:10139400F32980302006253003192106031DD329A3
:1013A400D429D9291930831603139900F329B130AC
:1013B4002006283003192106031DE129E229E72923
:1013C4001730831603139900F3294B3021062004A8
:1013D400031DED29EE29F3290C308316031399001C
:1013E400F3290B178B17080083120313AE002E0882
:1013F4000319FD29FE29122AA91F012A022A122AE9
:101404002609B0002709B1002809B2002909B30050
:10141400B00A0319B10A0319B20A0319B30A1A2A42
:101424002908B3002808B2002708B1002608B00034
:101434002908280427042604031D212A222A2B2AEA
:101444000030A9000030A8000030A7000030A6003A
:10145400B12A9630AA002A08AF003D2A0130AA001A
:101464002A08AF0701300310B30CB20CB10CB00C56
:10147400FF3E031D352AFE303305031D422A432A4D
:10148400302A5F2A0130AA002A08AF070130B007CA
:10149400003003180130B107003003180130B207DF
:1014A400003003180130B30701300310B30CB20C41
:1014B400B10CB00CFF3E031D572AFF303305031D4A
:1014C400642A652A442A712A0130AF020130AA0035
:1014D4000310B00DB10DB20DB30DAA0B6A2AB21BE5
:1014E400742A752A7B2A02302F0203187A2A7B2A4F
:1014F400662A2F187E2A7F2A872AFF30B005FF30FC
:10150400B1057F30B205FF30B3050310AF0C2F08CF
:10151400AA00AB01AC01AD0118300310AA0DAB0D4C
:10152400AC0DAD0DFF3E031D8F2A2A08B0042B0815
:10153400B1042C08B2042D08B3042E080319A32AFD
:10154400A42AA92AA91FA72AA82AA92AB3173308B3
:10155400A9003208A8003108A7003008A600080036
:10156400831203138C1EB72AB82A942B8C121A08E0
:10157400F7007708F4007408031DC12AC22AC92A97
:101584006F080A168A11F5260A128A15942B740319
:10159400031DCD2ACE2AD52A6E080A168A11F526ED
:1015A4000A128A15942B02307406031DDA2ADB2AE8
:1015B400E22A6D080A168A11F5260A128A15942B56
:1015C40003307406031DE72AE82AEF2A6C080A167A
:1015D4008A11F5260A128A15942B04307406031D09
:1015E400F42AF52AFE2A831603133A080A168A11E6
:1015F400F5260A128A15942B05307406031D032B55
:10160400042B0D2B8316031339080A168A11F526A9
:101614000A128A15942B06307406031D122B132B01
:101624001C2B8316031338080A168A11F5260A128E
:101634008A15942B07307406031D212B222B2B2B88
:101644008316031336080A168A11F5260A128A1518
:10165400942B08307406031D302B312B3A2B831640
:10166400031335080A168A11F5260A128A15942BD3
:1016740009307406031D3F2B402B492B831603139B
:1016840034080A168A11F5260A128A15942B0A3090
:101694007406031D4E2B4F2B582B8316031333084C
:1016A4000A168A11F5260A128A15942B0B30740631
:1016B400031D5D2B5E2B672B8316031332080A165A
:1016C4008A11F5260A128A15942B0C307406031D10
:1016D4006C2B6D2B762B8316031331080A168A1193
:1016E400F5260A128A15942B0D307406031D7B2BE4
:1016F4007C2B852B8316031330080A168A11F526D2
:101704000A128A15942B0E307406031D8A2B8B2B18
:10171400942B831603132F080A168A11F5260A122E
:101724008A15942B79088A00780E8300FE0E7E0EAB
:1017340009008312031327088039A8002808B10080
:101744002708A8002807A9002908B800A61FAB2B62
:10175400AC2BAD2B381438080319B12BB22BC22B88
:10176400380A031DB62BB72BBF2B0030A70000305F
:10177400A6000030A5000030A400A617A701CA2BBC
:101784000030A7000030A6000030A5000030A400FF
:1017940023088039A8002808B1062308A8002807D0
:1017A400A9002908B900A21FD82BD92BDA2B391488
:1017B40039080319DE2BDF2BEF2B390A031DE32B2A
:1017C400E42BEC2B0030A3000030A2000030A10079
:1017D4000030A000A217A301F72B0030A3000030B3
:1017E400A2000030A1000030A0002308220421043C
:1017F4002004031DFE2BFF2B182C0030A700003003
:10180400A6000030A5000030A4008030A6047F307C
:10181400A7043108A8002808A7042708A30026085D
:10182400A2002508A1002408A000772D3808031D74
:101834001C2C1D2C262C0030A3000030A2000030EC
:10184400A1000030A000772D3808A800A9012908BC
:10185400AB0039082802AA00031CAB032A087F3E08
:10186400B2002B080318013E003EB3002708B00065
:101874002608AF002508AE002408AD000030A700FC
:101884000030A6000030A5000030A4000030B700EE
:101894000030B6000030B5000030B400B9019C2C13
:1018A40039080319562C572C772C0130A800031043
:1018B400AD0DAE0DAF0DB00DA80B592C0130A80025
:1018C4000310A40DA50DA60DA70DA80B622CB71F20
:1018D4006C2C6D2C6E2C24140130A8000310B40D54
:1018E400B50DB60DB70DA80B702C23083002031DDF
:1018F400852C22082F02031D852C21082E02031D8E
:10190400852C20082D02031C882C892C982C371731
:101914002008AD022108031C210FAE022208031C7B
:10192400220FAF022308031C230FB0020130A800CA
:101934002808B9071A303902031CA12CA22C522CF6
:1019440030082F042E042D040319A92CAA2CC92C09
:101954003414C92C0130A8000310A40DA50DA60D44
:10196400A70DA80BAE2CB71FB82CB92CBA2C241475
:101974000130A8000310B40DB50DB60DB70DA80BBA
:10198400BC2CFF30B2070318B30AFF30B307A61FFD
:10199400CC2CCD2CAC2CB901B71FD12CD22CEE2CD5
:1019A400FF303405A800FF303505A900FF303605A7
:1019B400AA007F303705AB002B082A042904280429
:1019C4000319E52CE62CE92CB901B90AEE2C241CE8
:1019D400EC2CED2CEE2CE62C39080319F22CF32C0C
:1019E400242D0130A407003003180130A50700306E
:1019F40003180130A607003003180130A707271C7D
:101A0400042D052D242D2408A8002508A900260846
:101A1400AA002708AB000130AC002B0DAB0CAA0CBC
:101A2400A90CA80CAC0B0F2D2B08A7002A08A600A4
:101A34002908A5002808A4000130B2070318B30A36
:101A44000030B3073308803AFF0080307F02031D63
:101A54002D2DFF303202031C302D312D3F2DFF3050
:101A640083120313B2000030B3000030A70000302B
:101A7400A6000030A5000030A4008312031333082D
:101A8400803AFF0080307F02031D4A2D013032026C
:101A940003184D2D4E2D5B2D83120313B201B30198
:101AA4000030A7000030A6000030A5000030A400DC
:101AB400B101831203133208A8002808B800381CA7
:101AC400642D652D672DA6176B2D7F30A80028087F
:101AD400A6053808A8000310280CA9002908A700A7
:101AE4003108A8002808A7040F2C08008312031348
:101AF40023088039A8002808B0002308A800280774
:101B0400A9002908B200A21F882D892D8A2D32141C
:101B1400320803198E2D8F2D9F2D320A031D932D0C
:101B2400942D9C2D0030A3000030A2000030A100B1
:101B34000030A000A217A301A72D0030A30000309D
:101B4400A2000030A1000030A00027088039A800BE
:101B54002808B100310830060319B12DB22DB32D78
:101B640030172708A8002807A9002908B100A61FD4
:101B7400BC2DBD2DBE2D311431080319C22DC32D2A
:101B8400D32D310A031DC72DC82DD02D0030A70039
:101B94000030A6000030A5000030A400A617A7015D
:101BA400DB2D0030A7000030A6000030A500003077
:101BB400A400320831020318E02DE12D252E301F38
:101BC400E42DE52DE92D8030A8002808B006320860
:101BD400A8002808B3003108A8002808B200330878
:101BE400A8002808B1002008A8002808B300240889
:101BF400A8002808A0003308A8002808A400210889
:101C0400A8002808B3002508A8002808A100330864
:101C1400A8002808A5002208A8002808B300260860
:101C2400A8002808A2003308A8002808A600230852
:101C3400A8002808B3002708A8002808A300330830
:101C4400A8002808A700B3013108A800A9012908A1
:101C5400AB0032082802AA00031CAB032B08803A0D
:101C6400FF0080307F02031D392E1A302A02031C24
:101C74003C2E3D2E7A2E83120313230822042104C2
:101C84002004031D462E482E0130492E0030A800A2
:101C94002808B3000030A3000030A2000030A100E7
:101CA4000030A0003108A8002808B200822E331C9E
:101CB4005C2E5D2E662E3308A8000310280C013814
:101CC400A9002908B300682E0310B30C201C6B2E46
:101CD4006C2E6D2EB3170130A800230DA30CA20C9B
:101CE400A10CA00CA80B6F2E0130A8002808B20785
:101CF4008312031331083202031C812E822E592EC3
:101D0400301B852E862ED12E3208031D8A2E8B2E53
:101D1400942E0030A3000030A2000030A100003057
:101D2400A000FF2F2408A007250803110318013E73
:101D340003199D2EA107260803110318013E031958
:101D4400A42EA207270803110318013E0319AB2E82
:101D5400A307231CAE2EAF2E852F331CB22EB32E19
:101D6400BC2E3308A8000310280C0138A900290848
:101D7400B300BE2E0310B30C201CC12EC22EC32EE2
:101D8400B3170130A800230DA30CA20CA10CA00CC6
:101D9400A80BC52E0130A8002808B207852F2308F8
:101DA400803AFF002708803A7F02031DE32E2608AD
:101DB4002202031DE32E25082102031DE32E24081D
:101DC40020020318E62EE72E3F2FFF30A800FF3035
:101DD400A900FF30AA00FF30AB002408AC0025089E
:101DE400AD002608AE002708AF002008AC02210889
:101DF400031C210FFE2EFF2EAD022208031C220F0E
:101E0400042F052FAE022308031C230F0A2F0B2FC8
:101E1400AF022C08A8072D0803182D0F122F132F1B
:101E2400A9072E0803182E0F182F192FAA072F08F9
:101E340003182F0AAB072B08A3002A08A2002908BD
:101E4400A1002808A0008030A8002808B006B30923
:101E5400B30A3308031D2F2F302F4D2F0130A00755
:101E6400003003180130A107003003180130A20725
:101E7400003003180130A3074D2F2408A0022508C1
:101E8400031C250FA1022608031C260FA202270803
:101E9400031C270FA3022308220421042004031D8A
:101EA400542F552F812F3308031D592F5A2F812F5B
:101EB4000030A3000030A2000030A1000030A000D8
:101EC400FF2F0130A8000310A00DA10DA20DA30D3A
:101ED400A80B652FB31F6F2F702F712F2014331C85
:101EE400742F752F782F0314B30D7A2F0310B30DAD
:101EF400320803197E2F7F2F812F0130B202A21FD7
:101F0400842F852F632FB101B31F892F8A2F982F18
:101F140033087F3903198F2F902F932FB101B10A02
:101F2400982F201C962F972F982F902F3108031944
:101F34009C2F9D2FD12F0130A007003003180130B2
:101F4400A107003003180130A20700300318013044
:101F5400A307231CAE2FAF2FD12F2008A8002108E0
:101F6400A9002208AA002308AB000130AC002B0D05
:101F7400AB0CAA0CA90CA80CAC0BB92F2B08A30012
:101F84002A08A2002908A1002808A000320A03197F
:101F9400CC2FCD2FD12F0130A8002808B207320A48
:101FA4000319D52FD62FDB2F3208031DDA2FDB2F91
:101FB400E92F0030A3000030A2000030A10000305F
:101FC400A0003208031DE72FE82FE92FB001321CCF
:101FD400EC2FED2FEF2FA217F32F7F30A800280846
:101FE400A2053208A8000310280CA9002908A300A0
:101FF400B01FFD2FFE2FFF2FA317080010308A00FB
:102004000408840A820700344234693465346E3427
:10201400763465346E34693464346F347334203404
:10202400433457340034543465346D347034653477
:102034007234613474347534723461343A34003433
:10204400443469347334743461346E3463346934BD
:1020540061343A3400344334613475346434613463
:102064006C343A3400345034653473346F343A3455
:1020740000346B346734003463346D3400342E34EC
:0620840000344334003477
:102D90000334003402340034013400346400800110
:102DA000840A0406031900340406CF2E0A168A1179
:102DB000E8260A168A1183160313111408000A164E
:102DC0008A11E8260A168A118316031311150800C2
:102DD000831603131419ED2EEE2EE82E11081F3959
:102DE000031DF32EF42EE82E0800F60083160313BD
:102DF000981CFB2EFC2EF62E7608831203139900E6
:102E0000C730F500032FF50B022F062F072F080000
:102E100083120313A2008817220886008816063042
:102E200083120313A1002F30A000A00B152FA10BBC
:102E3000152F1A2F8312031388120800831203130D
:102E4000A200081388132208860088160630831211
:102E50000313A1002F30A000A00B2C2FA10B2C2FAF
:102E6000312F83120313881208008030831203135A
:102E7000BD064108A3004008A2003F08A1003E088B
:102E8000A0003D08A7003C08A6003B08A5003A08A2
:102E9000A4000A128A1578250A168A1183120313D0
:102EA0002308BD002208BC002108BB002008BA008E
:102EB000080083120313A6006D2F23087F3E0A1615
:102EC0008A111E270A168A117D2F2308BF3E0A1673
:102ED0008A111E270A168A117D2F2608A400A50133
:102EE0002508003A0319752F7D2F2408013A03198C
:102EF0005D2F033A0319652F7D2F080083120313FA
:102F0000A401A501201C852F862F8C2F2208A40741
:102F10000318A50A2308A50701300310A20DA30D6D
:102F2000FF3E031D8D2F01300310A10CA00CFF3EAE
:102F3000031D942F20082104031D9F2FA02F822FF3
:102F40002508A1002408A000080083120313A5008F
:102F5000A301A401C02F2308250784000A168A11A3
:102F600000200A168A110A168A1108270A168A11E1
:102F7000013083120313A3070318A40A0030A40727
:102F80002308250784000A168A1100200A168A11D0
:102F9000003A031DCC2FCD2FAB2F08000A168A1143
:102FA000E8260A168A118316031391150A168A1148
:102FB000E8260A168A11831203131308A200A3013C
:102FC0002208A4002308A5000A168A11E8260A167A
:102FD0008A118312031320032104031DF02FF12F04
:102FE000F52F831603139112F82F831603139116EE
:102FF0001116831203132508A1002408A00008005D
:04400E00D4E0FFFFFC
:00000001FF
