:020000040000FA
:060000000A128A1110280B
:10000800FE00030E83120313A6000408A7000A08C3
:10001800A8000A128A15A2290A128A111328831322
:10002800C930FD000830FE007830FF00B930840088
:100038000A128A158C200A128A110A128A11FC27C0
:100048000A128A11E2000A128A11FD270A128A117D
:10005800E30083160313C901CA01CB01CC01CD010A
:10006800CE01CF01D001D101D201D301D401D501F4
:1000780083120313DE01DF01E001E101F001F10168
:10008800F201F301F401F501F60183010A128A1164
:10009800602E8312031340088039C5004508CA0042
:1000A8004008C5004507C6004608D000BF1F5D28A8
:1000B8005E285F28501450080319632864287328A1
:1000C800500A031D6828692871280030C0000030D4
:1000D800BF000030BE000030BD00BF177B280030D5
:1000E800C0000030BF000030BE000030BD00440832
:1000F8008039C5004508CA064408C5004507C6003A
:100108004608CF00C31F89288A288B284F144F0818
:1001180003198F2890289F284F0A031D9428952893
:100128009D280030C4000030C3000030C2000030F9
:10013800C100C317A7280030C4000030C300003036
:10014800C2000030C1004F080319AB28AC28B12801
:100158005008031DB028B128BA280030C00000306C
:10016800BF000030BE000030BD00AD2B3D08C5000B
:100178004508A90043080A128A151D210A128A1186
:10018800831203132A08D6002908D5005508C5008C
:10019800C601C701C8014808CE004708CD00460877
:1001A800CC004508CB005608C500C601C701C801E8
:1001B8004808D4004708D3004608D2004508D100B3
:1001C8003E08C5004508A90042080A128A151D21E3
:1001D8000A128A11831203132A08D6002908D500A7
:1001E8005508C500C601C701C8014508CB07460820
:1001F80003110318013E03190229CC07470803110C
:100208000318013E03190929CD07480803110318EB
:10021800013E03191029CE075608C500C601C701BB
:10022800C8014508D107460803110318013E031900
:100238001E29D207470803110318013E031925296F
:10024800D307480803110318013E03192C29D407C2
:100258003F08C5004508A90041080A128A151D2152
:100268000A128A11831203132A08D6002908D50016
:100278005508C500C601C701C8014508CB0746088F
:1002880003110318013E03194A29CC074708031133
:100298000318013E03195129CD0748080311031813
:1002A800013E03195829CE075608C500C601C701E3
:1002B800C8014508D107460803110318013E031970
:1002C8006629D207470803110318013E03196D294F
:1002D800D307480803110318013E03197429D407EA
:1002E8000830C5000310CB0DCC0DCD0DCE0DC50BC0
:1002F80076293E08C5004508A90041080A128A1552
:100308001D210A128A11831203132A08D60029080C
:10031800D5005508C5005608C600C701C8014508DC
:10032800CB07460803110318013E03199C29CC0783
:10033800470803110318013E0319A329CD074808EC
:1003480003110318013E0319AA29CE073D08C50069
:100358004508A90042080A128A151D210A128A11A5
:10036800831203132A08D6002908D5005508C500AA
:100378005608C600C701C8014508CB07460803113F
:100388000318013E0319C929CC07470803110318AC
:10039800013E0319D029CD07480803110318013E6F
:1003A8000319D729CE070830C5000310CB0DCC0D93
:1003B800CD0DCE0DC50BD9293D08C5004508A900AE
:1003C80041080A128A151D210A128A118312031381
:1003D8002A08D6002908D5005508C5005608C600C1
:1003E800C701C8014508CB07460803110318013E99
:1003F8000319FF29CC07470803110318013E031905
:10040800062ACD07480803110318013E03190D2ACF
:10041800CE073E08C5004508A90043080A128A15F8
:100428001D210A128A11831203132A08D6002908EB
:10043800D5005508C5005608C600C701C8014508BB
:10044800D107460803110318013E03192C2AD207C5
:10045800470803110318013E0319332AD307480834
:1004680003110318013E03193A2AD4073F08C500AF
:100478004508A90042080A128A151D210A128A1184
:10048800831203132A08D6002908D5005508C50089
:100498005608C600C701C8014508D1074608031118
:1004A8000318013E0319592AD207470803110318F4
:1004B800013E0319602AD307480803110318013EB7
:1004C8000319672AD4073F08C5004508A90043084F
:1004D8000A128A151D210A128A11831203132A0887
:1004E800D6002908D5005508C5005608C600C7011A
:1004F800C80108300310C50DC60DC70DC80DFF3E55
:10050800031D7E2A4508D107460803110318013E3A
:1005180003198F2AD207470803110318013E03194C
:10052800962AD307480803110318013E03199D2A88
:10053800D4074B08C5004C08C6004D08C7004E0834
:10054800C80018300310C80CC70CC60CC50CFF3EF9
:10055800031DA62A4508D107460803110318013EC2
:100568000319B72AD207470803110318013E0319D4
:10057800BE2AD307480803110318013E0319C52AE8
:10058800D4070830C5000310CB0DCC0DCD0DCE0D12
:10059800C50BC72A50084F07C500C601C60D450838
:1005A800823ED50046080318013EFF3ED600F92AD0
:1005B8000130C5000310D10DD20DD30DD40DC50BDC
:1005C800DE2ACE1FE82AE92AEA2A51140130C5009A
:1005D8000310CB0DCC0DCD0DCE0DC50BEC2AFF3085
:1005E800D5070318D60AFF30D607D31FFC2AFD2AE1
:1005F800DC2ACF01CE1F012B022B1E2BFF304B050F
:10060800C500FF304C05C600FF304D05C7007F30E0
:100618004E05C80048084704460445040319152B2D
:10062800162B192BCF01CF0A1E2B511C1C2B1D2B4F
:100638001E2B162B4F080319222B232B542B01306A
:10064800D107003003180130D207003003180130F9
:10065800D307003003180130D407541C342B352B32
:10066800542B5108C5005208C6005308C700540847
:10067800C8000130C900480DC80CC70CC60CC50C11
:10068800C90B3F2B4808D4004708D3004608D200BE
:100698004508D1000130D5070318D60A0030D6071F
:1006A8005608803AFF0080307F02031D5D2BFF3023
:1006B8005502031C602B612B6C2B7F3083120313B4
:1006C800D4008030D3000030D2000030D100A12BFC
:1006D800831203135608803AFF0080307F02031DFF
:1006E800772B0130550203187A2B7B2B872B003090
:1006F80083120313D4000030D3000030D20000303E
:10070800D100CA01A12B831203135508C50045085F
:10071800D000FF30D105FF30D2057F30D30500303F
:10072800D405501C982B992B9A2BD3175008C50029
:100738000310450CC6004608D4004A08C500450801
:10074800D4045408C0005308BF005208BE00510822
:10075800BD00080083160313230883120313AC009B
:1007680083160313220883120313AB0083160313A3
:10077800210883120313AA00831603132008831287
:100788000313A9000030B0000030AF000030AE0005
:100798000030AD000A128A153B220A128A11031C86
:1007A800D62BD72B332E8316031323088312031358
:1007B800B00083160313220883120313AF008316B5
:1007C8000313210883120313AE00831603132008B2
:1007D80083120313AD004430AC007A30AB00003014
:1007E800AA000030A9000A128A159B230A128A114E
:1007F800831203132C08CE002B08CD002A08CC0046
:100808002908CB000A128A1180270A128A1183123A
:1008180003134B0883160313A80028088312031335
:10082800D90083160313230883120313B000831619
:100838000313220883120313AF008316031321083E
:1008480083120313AE0083160313200883120313C5
:10085800AD004230AC00C830AB000030AA00003018
:10086800A9000A128A159B230A128A1183120313FC
:100878002C08CA002B08C9002A08C8002908C70084
:100888000A30AB000030AC00590883160313A800E7
:10089800A901280883120313A90083160313290842
:1008A80083120313AA000A128A15F6200A128A1163
:1008B800831203132908AF002A08B0000030B01BC8
:1008C800FF30B100B20001300A128A15DF220A1285
:1008D8008A11831203133208C6003108C500300894
:1008E800C4002F08C3000A128A15D2200A128A11DE
:1008F800831203134608CE004508CD004408CC00F7
:100908004308CB000A128A1180270A128A1183121F
:1009180003134B0883160313AA002A088312031330
:10092800D80083160313230883120313B000831619
:100938000313220883120313AF008316031321083D
:1009480083120313AE0083160313200883120313C4
:10095800AD004130AC002030AB000030AA000030C0
:10096800A9000A128A159B230A128A1183120313FB
:100978002C08CA002B08C9002A08C8002908C70083
:100988006430AB000030AC00590883160313A8008C
:10099800A901280883120313A90083160313290841
:1009A80083120313AA000A128A15F6200A128A1162
:1009B80083120313290883160313AA00831203134F
:1009C8002A0883160313AB000A3083120313AB0003
:1009D8000030AC00580883160313AC00AD012C0896
:1009E80083120313A900831603132D08831203131C
:1009F800AA000A128A15F6200A128A118312031312
:100A08002908831603132A07AE00831203132A0842
:100A180003182A0A831603132B07AF002E08831224
:100A28000313AF00831603132F0883120313B000B8
:100A38000030B01BFF30B100B20001300A128A1535
:100A4800DF220A128A11831203133208C600310802
:100A5800C5003008C4002F08C3000A128A15D22026
:100A68000A128A11831203134608CE004508CD00E6
:100A78004408CC004308CB000A128A1180270A12C6
:100A88008A11831203134B0883160313B00030082E
:100A980083120313D7008316031323088312031347
:100AA800B00083160313220883120313AF008316C2
:100AB8000313210883120313AE00831603132008BF
:100AC80083120313AD003F30AC008030AB00003020
:100AD800AA000030A9000A128A159B230A128A115B
:100AE800831203132C08CA002B08C9002A08C8005F
:100AF8002908C700E830AB000330AC00590883165A
:100B08000313A800A901280883120313A900831658
:100B18000313290883120313AA000A128A15F62060
:100B28000A128A1183120313290883160313AA00D1
:100B3800831203132A0883160313AB00643083124D
:100B48000313AB000030AC00580883160313AC0045
:100B5800AD012C0883120313A900831603132D0873
:100B680083120313AA000A128A15F6200A128A11A0
:100B7800831203132908831603132A07AE0083126E
:100B880003132A0803182A0A831603132B07AF0036
:100B98000A3083120313AB000030AC0057088316E9
:100BA8000313B000B101300883120313A9008316A0
:100BB8000313310883120313AA000A128A15F620B8
:100BC8000A128A11831203132908831603132E07A6
:100BD800B200831203132A0803182A0A8316031380
:100BE8002F07B300320883120313AF0083160313D1
:100BF800330883120313B0000030B01BFF30B1007C
:100C0800B20001300A128A15DF220A128A118312F1
:100C180003133208C6003108C5003008C4002F0885
:100C2800C3000A128A15D2200A128A1183120313EA
:100C38004608CE004508CD004408CC004308CB0048
:100C48000A128A1180270A128A11831203134B0889
:100C580083160313B400340883120313D6008312D7
:100C680003135908303E83160313A8002408840090
:100C780028088000831203135808303E8316031394
:100C8800A800250884002808800083120313570849
:100C9800303E83160313A800260884002808800025
:100CA800831203135608303E83160313A80027083F
:100CB80084002808800008000A128A159B200A125E
:100CC8008A110A128A156C200A128A1183120313D8
:100CD8009F14610886004030C000A330BF00223056
:100CE800BE00D130BD00610883160313B500B601FC
:100CF800B701B801380883120313B200831603132F
:100D0800370883120313B1008316031336088312BE
:100D18000313B00083160313350883120313AF00BF
:100D280000300A128A15DF220A128A11831203136D
:100D38003208C4003108C3003008C2002F08C100BF
:100D48000A128A114D200A128A11831203134008CD
:100D5800DD003F08DC003E08DB003D08DA005D08E6
:100D680083160313A300831203135C08831603136B
:100D7800A200831203135B0883160313A1008312D6
:100D880003135A0883160313A0007530B5003508FD
:100D9800A4007430B6003608A5007330B7003708D1
:100DA800A6007230B8003808A7000A128A11AE23CC
:100DB8000A128A11831203135E03031DE42EE52E23
:100DC800EE2E1E0883160313B5003508831203138D
:100DD800E100DE014430AC004730AB00C030AA006F
:100DE8000030A9005D08B0005C08AF005B08AE00E9
:100DF8005A08AD000A128A153B220A128A11031CEE
:100E0800062F072F082FF101831203135D08AC008A
:100E18005C08AB005B08AA005A08A9004430B0007F
:100E28004830AF000030AE000030AD000A128A151D
:100E38003B220A128A11031C222F232F402F4430F1
:100E480083120313AC007A30AB000030AA000030E4
:100E5800A9005D08B0005C08AF005B08AE005A0846
:100E6800AD000A128A153B220A128A11031C3D2F73
:100E78003E2F402FF101F10A831203135D08AC00E5
:100E88005C08AB005B08AA005A08A9004430B0000F
:100E98007A30AF000030AE000030AD000A128A157B
:100EA8003B220A128A11031C5A2F5B2F6A2E4430E8
:100EB80083120313AC009630AB000030AA00003058
:100EC800A9005D08B0005C08AF005B08AE005A08D6
:100ED800AD000A128A153B220A128A11031C752FCB
:100EE800762F6A2E023083160313B5003508F100F9
:100EF8006A2E0A128A1110280310831203134D0D4B
:100F08004E0DCF004F08D5005508031D8C2F8D2F8F
:100F1800962F0030CE000030CD000030CC000030DD
:100F2800CB00FB2F4B08CF004C08D0004D08D10058
:100F38004E08D2001F300310D20CD10CD00CCF0CAD
:100F4800FF3E031D9F2F4F08D3005308D400CD1731
:100F5800FF30CB05FF30CC05FF30CD050030CE0586
:100F68009630D502D51FB92FBA2FD42F5508803AFD
:100F7800973E0318C02FC12FC22F8D2F01300310A9
:100F8800CE0CCD0CCC0CCB0CFF3E031DC32F013077
:100F9800CF004F08D507031DD22FD32FC22FEB2F19
:100FA80020305502031CD92FDA2FE62F8D2F013060
:100FB800CF000310CB0DCC0DCD0DCE0DCF0BDD2FFB
:100FC8000130D5025508031DEA2FEB2FDB2F5408FB
:100FD8000319EF2FF02FFB2FCB09CC09CD09CE0930
:100FE800CB0A0319CC0A0319CD0A0319CE0A080043
:040FF8000F34F0348E
:1010D800831603139F0140308C00831203131F13E0
:1010E8009F179F141F1408003F3406345B344F3495
:1010F80066346D347D3407347F346F3437347C3450
:1011080039345E34793471347E088A007F0882006D
:101118000A128A1588200A128A158000840A04088F
:101128007D0603190034FF0A0319FE0A8C280130D2
:101138008316031788008901831203138801850128
:101148008601890101308316031385008601880111
:101158008901C0308B0020300A128A15B6200A1285
:101168008A15080083120313A9002908831603139C
:1011780093003630831203139400803083160313D0
:10118800940001309100871507168B170B178312EF
:1011980003138C11831603138C15080080308312F7
:1011A8000313C6064A08AC004908AB004808AA0061
:1011B8004708A9004608B0004508AF004408AE003B
:1011C8004308AD000A128A1578250A128A15831277
:1011D80003132C08C6002B08C5002A08C4002908D8
:1011E800C300080083120313AD01AE01291CFD28BA
:1011F800FE2804292B08AD070318AE0A2C08AE07F1
:1012080001300310AB0DAC0DFF3E031D0529013065
:101218000310AA0CA90CFF3E031D0C2929082A0457
:10122800031D17291829FA282E08AA002D08A90035
:10123800080083120313B100AD01AE012908AB0009
:10124800AC012B08AF002C08B000311C2C292D292B
:1012580033292F08AD070318AE0A3008AE0701304E
:101268000310AF0DB00DFF3E031D34290310B10C60
:101278003108031D4029412929292E08AA002D08D3
:10128800A9000800FD007B0884000008031D4D2903
:101298004E2959297B0884000008013EFC007B0880
:1012A80084007C0880007D08A1297B088400000355
:1012B800031D5F2960296B297B0884000008013E13
:1012C800FC007B0884007C0880007708A1297B0843
:1012D800840002300006031D722973297E297B08C9
:1012E80084000008013EFC007B0884007C08800024
:1012F8007808A1297B08840003300006031D85298E
:10130800862991297B0884000008013EFC007B089F
:1013180084007C0880007908A1297B0884000430B7
:101328000006031D982999299E297B0884008001BD
:101338007A08A1297B088400000808008C1DA529CB
:10134800A6292B2A1412141BAA29AB29AF29941FEA
:10135800AE29AF29BA291308A00020088316031361
:10136800CB00831203131413941314168316031358
:10137800941ABF29C029E6291419C329C429E629C2
:10138800831203131308A000200883160313CB004D
:10139800831203138C11141683160313141CD529F6
:1013A800D629D029831203131308A0002008831616
:1013B8000313C900523083120313A000A00BE229C3
:1013C8000000282A941AE929EA29282A141DED2957
:1013D800EE29282A831203131308A0002008831675
:1013E8000313CB001410740883120313A000200801
:1013F800F7007308A1002108F8007208A20022086B
:10140800F9007108A3002308FA007630A400240824
:10141800FB0075080A128A1546210A128A158312DA
:101428000313A5002508F000700893001416523025
:1014380083120313A000A00B1F2A000083160313B6
:101448001418272A282A222A831203138C119F187A
:101458002E2A2F2A322ADE01DE0A0C1328088A00D7
:1014680027088400260E8300FE0E7E0E0900003039
:10147800831203132905B10000302A05B200803019
:101488002B05B3007F302C05B40034083304320434
:101498003104031D502A512A592A0030AC0000306B
:1014A800AB000030AA000030A90000302D05B100C3
:1014B80000302E05B20080302F05B3007F30300594
:1014C800B4003408330432043104031D6C2A6D2A35
:1014D800752A0030B0000030AF000030AE00003098
:1014E800AD00AC1F782A792A9D2A0030B10000305F
:1014F800B2000030B3008030B4002908B1022A08D5
:10150800031C2A0F882A892AB2022B08031C2B0FD6
:101518008E2A8F2AB3022C08031C2C0F942A952A92
:10152800B4023408AC003308AB003208AA00310812
:10153800A900B01FA02AA12AC52A0030B100003096
:10154800B2000030B3008030B4002D08B1022E087C
:10155800031C2E0FB02AB12AB2022F08031C2F0F2A
:10156800B62AB72AB3023008031C300FBC2ABD2A9A
:10157800B4023408B0003308AF003208AE003108B6
:10158800AD008030AC068030B00630082C02031D58
:10159800D72A2F082B02031DD72A2E082A02031D3B
:1015A800D72A2D0829020318DA2ADB2ADD2A031094
:1015B800DE2A0314080083120313B700370803193F
:1015C800E62AE72AFB2AB21FEA2AEB2AFB2A2F0976
:1015D800B9003009BA003109BB003209BC00B90AA8
:1015E8000319BA0A0319BB0A0319BC0A032B3208E8
:1015F800BC003108BB003008BA002F08B900320817
:10160800310430042F04031D0A2B0B2B142B00303C
:10161800B2000030B1000030B0000030AF009A2BAB
:101628009630B3003308B800262B0130B3003308D6
:10163800B80701300310BC0CBB0CBA0CB90CFF3E48
:10164800031D1E2BFE303C05031D2B2B2C2B192BA9
:10165800482B0130B3003308B8070130B907003010
:1016680003180130BA07003003180130BB070030F7
:1016780003180130BC0701300310BC0CBB0CBA0CBA
:10168800B90CFF3E031D402BFF303C05031D4D2BBD
:101698004E2B2D2B5A2B0130B8020130B30003100A
:1016A800B90DBA0DBB0DBC0DB30B532BBB1B5D2B7A
:1016B8005E2B642B023038020318632B642B4F2BEC
:1016C8003818672B682B702BFF30B905FF30BA0527
:1016D8007F30BB05FF30BC050310B80C3808B300D9
:1016E800B401B501B60118300310B30DB40DB50D32
:1016F800B60DFF3E031D782B3308B9043408BA042D
:101708003508BB043608BC04370803198C2B8D2B0D
:10171800922BB21F902B912B922BBC173C08B20036
:101728003B08B1003A08B0003908AF00080083123E
:10173800031330088039B1003108BA003008B1000D
:101748003107B2003208C100AF1FAB2BAC2BAD2B59
:10175800411441080319B12BB22BC22B410A031DB6
:10176800B62BB72BBF2B0030B0000030AF000030D5
:10177800AE000030AD00AF17B001CA2B0030B0008A
:101788000030AF000030AE000030AD002C088039CA
:10179800B1003108BA062C08B1003107B20032088E
:1017A800C200AB1FD82BD92BDA2B421442080319DD
:1017B800DE2BDF2BEF2B420A031DE32BE42BEC2B54
:1017C8000030AC000030AB000030AA000030A900A7
:1017D800AB17AC01F72B0030AC000030AB00003089
:1017E800AA000030A9002C082B042A042904031D90
:1017F800FE2BFF2B182C0030B0000030AF0000305B
:10180800AE000030AD008030AF047F30B0043A083D
:10181800B1003108B0043008AC002F08AB002E0826
:10182800AA002D08A900772D4108031D1C2C1D2C8A
:10183800262C0030AC000030AB000030AA0000308D
:10184800A900772D4108B100B2013208B40042085E
:101858003102B300031CB40333087F3EBB003408D5
:101868000318013E003EBC003008B9002F08B8003C
:101878002E08B7002D08B6000030B0000030AF00C9
:101888000030AE000030AD000030C0000030BF00B6
:101898000030BE000030BD00C2019C2C4208031974
:1018A800562C572C772C0130B1000310B60DB70D0C
:1018B800B80DB90DB10B592C0130B1000310AD0DA5
:1018C800AE0DAF0DB00DB10B622CC01F6C2C6D2C82
:1018D8006E2C2D140130B1000310BD0DBE0DBF0DCF
:1018E800C00DB10B702C2C083902031D852C2B0858
:1018F8003802031D852C2A083702031D852C290868
:101908003602031C882C892C982C40172908B6020B
:101918002A08031C2A0FB7022B08031C2B0FB80236
:101928002C08031C2C0FB9020130B1003108C20782
:101938001A304202031CA12CA22C522C390838045C
:10194800370436040319A92CAA2CC92C3D14C92C18
:101958000130B1000310AD0DAE0DAF0DB00DB10BE0
:10196800AE2CC01FB82CB92CBA2C2D140130B100E4
:101978000310BD0DBE0DBF0DC00DB10BBC2CFF304B
:10198800BB070318BC0AFF30BC07AF1FCC2CCD2CFB
:10199800AC2CC201C01FD12CD22CEE2CFF303D053F
:1019A800B100FF303E05B200FF303F05B3007F3085
:1019B8004005B40034083304320431040319E52C1B
:1019C800E62CE92CC201C20AEE2C2D1CEC2CED2CC5
:1019D800EE2CE62C42080319F22CF32C242D0130AE
:1019E800AD07003003180130AE070030031801308E
:1019F800AF07003003180130B007301C042D052D47
:101A0800242D2D08B1002E08B2002F08B30030088D
:101A1800B4000130B500340DB40CB30CB20CB10CE9
:101A2800B50B0F2D3408B0003308AF003208AE00F4
:101A38003108AD000130BB070318BC0A0030BC07F1
:101A48003C08803AFF0080307F02031D2D2DFF30B7
:101A58003B02031C302D312D3F2DFF308312031321
:101A6800BB000030BC000030B0000030AF000030D8
:101A7800AE000030AD00831203133C08803AFF002B
:101A880080307F02031D4A2D01303B0203184D2D83
:101A98004E2D5B2D83120313BB01BC010030B00037
:101AA8000030AF000030AE000030AD00BA01831244
:101AB80003133B08B1003108C100411C642D652D9A
:101AC800672DAF176B2D7F30B1003108AF05410886
:101AD800B1000310310CB2003208B0003A08B1006E
:101AE8003108B0040F2C0800831203132C08803926
:101AF800B1003108B9002C08B1003107B200320832
:101B0800BB00AB1F882D892D8A2D3B143B08031978
:101B18008E2D8F2D9F2D3B0A031D932D942D9C2DCB
:101B28000030AC000030AB000030AA000030A90043
:101B3800AB17AC01A72D0030AC000030AB00003073
:101B4800AA000030A90030088039B1003108BA0075
:101B58003A0839060319B12DB22DB32D39173008BB
:101B6800B1003107B2003208BA00AF1FBC2DBD2D3D
:101B7800BE2D3A143A080319C22DC32DD32D3A0AA3
:101B8800031DC72DC82DD02D0030B0000030AF0088
:101B98000030AE000030AD00AF17B001DB2D0030D3
:101BA800B0000030AF000030AE000030AD003B08A0
:101BB8003A020318E02DE12D252E391FE42DE52DDD
:101BC800E92D8030B1003108B9063B08B100310871
:101BD800BC003A08B1003108BB003C08B10031082C
:101BE800BA002908B1003108BC002D08B10031083D
:101BF800A9003C08B1003108AD002A08B10031083D
:101C0800BC002E08B1003108AA003C08B100310818
:101C1800AE002B08B1003108BC002F08B100310814
:101C2800AB003C08B1003108AF002C08B100310806
:101C3800BC003008B1003108AC003C08B1003108E4
:101C4800B000BC013A08B100B2013208B4003B0848
:101C58003102B300031CB4033408803AFF0080301B
:101C68007F02031D392E1A303302031C3C2E3D2EF1
:101C78007A2E831203132C082B042A042904031D2B
:101C8800462E482E0130492E0030B1003108BC00E4
:101C98000030AC000030AB000030AA000030A900D2
:101CA8003A08B1003108BB00822E3C1C5C2E5D2E28
:101CB800662E3C08B1000310310C0138B20032081E
:101CC800BC00682E0310BC0C291C6B2E6C2E6D2ECC
:101CD800BC170130B1002C0DAC0CAB0CAA0CA90C34
:101CE800B10B6F2E0130B1003108BB07831203130B
:101CF8003A083B02031C812E822E592E391B852E51
:101D0800862ED12E3B08031D8A2E8B2E942E003052
:101D1800AC000030AB000030AA000030A900FF2F53
:101D28002D08A9072E0803110318013E03199D2E3B
:101D3800AA072F0803110318013E0319A42EAB07A5
:101D4800300803110318013E0319AB2EAC072C1CF5
:101D5800AE2EAF2E852F3C1CB22EB32EBC2E3C08C7
:101D6800B1000310310C0138B2003208BC00BE2E9D
:101D78000310BC0C291CC12EC22EC32EBC17013067
:101D8800B1002C0DAC0CAB0CAA0CA90CB10BC52ED8
:101D98000130B1003108BB07852F2C08803AFF00BD
:101DA8003008803A7F02031DE32E2F082B02031D03
:101DB800E32E2E082A02031DE32E2D0829020318FC
:101DC800E62EE72E3F2FFF30B100FF30B200FF3084
:101DD800B300FF30B4002D08B5002E08B6002F0858
:101DE800B7003008B8002908B5022A08031C2A0FD2
:101DF800FE2EFF2EB6022B08031C2B0F042F052FD7
:101E0800B7022C08031C2C0F0A2F0B2FB802350819
:101E1800B10736080318360F122F132FB2073708E9
:101E28000318370F182F192FB30738080318380A63
:101E3800B4073408AC003308AB003208AA003108F4
:101E4800A9008030B1003108B906BC09BC0A3C08B9
:101E5800031D2F2F302F4D2F0130A90700300318F5
:101E68000130AA07003003180130AB07003003180F
:101E78000130AC074D2F2D08A9022E08031C2E0F88
:101E8800AA022F08031C2F0FAB023008031C300FC7
:101E9800AC022C082B042A042904031D542F552FA7
:101EA800812F3C08031D592F5A2F812F0030AC0079
:101EB8000030AB000030AA000030A900FF2F01302D
:101EC800B1000310A90DAA0DAB0DAC0DB10B652F18
:101ED800BC1F6F2F702F712F29143C1C742F752F66
:101EE800782F0314BC0D7A2F0310BC0D3B0803197F
:101EF8007E2F7F2F812F0130BB02AB1F842F852FB0
:101F0800632FBA01BC1F892F8A2F982F3C087F396D
:101F180003198F2F902F932FBA01BA0A982F291CD3
:101F2800962F972F982F902F3A0803199C2F9D2FA3
:101F3800D12F0130A907003003180130AA0700305B
:101F480003180130AB07003003180130AC072C1C14
:101F5800AE2FAF2FD12F2908B1002A08B2002B08C5
:101F6800B3002C08B4000130B500340DB40CB30C28
:101F7800B20CB10CB50BB92F3408AC003308AB0068
:101F88003208AA003108A9003B0A0319CC2FCD2F2B
:101F9800D12F0130B1003108BB073B0A0319D52FF7
:101FA800D62FDB2F3B08031DDA2FDB2FE92F00305C
:101FB800AC000030AB000030AA000030A9003B089C
:101FC800031DE72FE82FE92FB9013B1CEC2FED2F5C
:101FD800EF2FAB17F32F7F30B1003108AB053B086B
:101FE800B1000310310CB2003208AC00B91FFD2F4C
:081FF800FE2FFF2FAC170800BB
:04400E00D4E0FFFFFC
:00000001FF
