:020000040000FA
:060000000A128A110C280F
:10000800FE00030EF1000A08F2000A128A111528F0
:100018000A128A110F28F401F50183010A128A11C4
:100028005728831203138C1D1A281B2850281412D2
:10003800141B1F2820282428941F232824282B2811
:100048001308F0007008F50014139413141683169F
:100058000313941A302831284D28141934283528C8
:100068004D28831203131308F0007008F5008C1153
:10007800141683160313141C422843283D288312A0
:1000880003131308F0007008F4000A30F000F00BB6
:100098004B28831203138C1172088A00710E830097
:1000A800FE0E7E0E09000A128A1180200A128A1199
:1000B80012300A128A11BD200A128A110A128A11F4
:1000C8009F200A128A117408031D6B286C28712856
:1000D8000A128A11DE200A128A117403031D752878
:1000E80076287C280A128A11D7200A128A116728D2
:1000F80067280A128A110C28831603130F088F39F0
:1001080030388F008316031788018901831603137B
:100118008501860188018312031386018801850100
:1001280003308316031386008B170B1716149614C7
:100138008B150B1008008316031307159B309200CC
:100148003F308312031397051708F0390C389700CE
:100158001B309500303097048C1003309204121530
:100168008C1CB728B828B4288C10831603130711E1
:100178000800F300730883160313930036308312C4
:100188000313940080308316031394000130910008
:10019800871507168B170B17831203138C118316F9
:1001A80003138C150800CF3083120313970503300F
:1001B8009500080030308312031397040D30950022
:0201C80008002D
:04400E00D4E0FFFFFC
:00000001FF
