:020000040000FA
:100000000A128A11C62F00308A000408840A820767
:1000100000344234693465346E34763465346E3479
:10002000693464346F3473342034433457340034C7
:10003000543465346D3470346534723461347434DE
:100040007534723461343A3400344434693473346E
:10005000743461346E346334693461343A34003456
:10006000433461347534643461346C343A3400346C
:100070005034653473346F343A3400346B3467343D
:0E00800000342E340034433400346D34003428
:10073000F00070088312031393000800E8340334B8
:10074000F4340134FA34003483160313141CA92B37
:10075000AA2BA42B08000A128A11A4230A128A11B8
:100760008312031313080800F2008312031388177F
:100770007208860088160630F1003030F000F00B69
:10078000BF2BF10BBF2B000083120313881208004C
:10079000F200831203130813881372088600881668
:1007A0000630F1003030F000F00BD42BF10BD42BDD
:1007B000000083120313881208000A128A113E24D3
:1007C0000A128A1183120313880183160313850109
:1007D00083160317880183120313850183160313FD
:1007E000871207168711880189010800F600082C76
:1007F00073087F3E0A128A11C8230A128A11182C24
:100800007308BF3E0A128A11C8230A128A11182CD3
:100810007608F400F5017508003A0319102C182C1D
:100820007408013A0319F82B033A0319002C182C09
:100830000800F500F301F401302C730875078400FB
:100840000A128A1103200A128A110A128A11B42389
:100850000A128A110130F3070318F40A0030F40772
:100860007308750784000A128A1103200A128A117C
:10087000003A031D3C2C3D2C1D2C0800831603134D
:100880008601831603178901831603138801153027
:10089000F400C630F300F30B4B2CF40B4B2C000090
:1008A00003300A128A11C8230A128A110630F40092
:1008B0007330F300F30B5A2CF40B5A2C03300A124A
:1008C0008A11C8230A128A11C730F300672CF30B70
:1008D000662C6A2C6B2C03300A128A11C8230A1268
:1008E0008A1138300A128A11C8230A128A110C3070
:1008F0000A128A11C8230A128A1106300A128A11B2
:10090000C8230A128A110800F601F31F882C892CCB
:10091000902CF209F309F20A0319F30AF601F60A18
:10092000F11F932C942C992CF009F109F00A03196A
:10093000F10A7008710403199E2C9F2CCE2CF5012E
:10094000F50AAD2C01300310F00DF10DFF3E031D33
:10095000A32C0130F4007408F507F11FB02CB12C62
:10096000A22C71087302031DB72C70087202031CBD
:10097000BA2CBB2CC12C7008F2027108031CF303C3
:10098000F30201300310F10CF00CFF3E031DC22CEA
:100990000130F502031DCD2CCE2CB12C76080319A5
:1009A000D22CD32CD82CF209F309F20A0319F30A3A
:1009B0007308F1007208F00008000A128A11DD23A2
:1009C0000A128A1101300A128A11C8230A128A11E6
:1009D0000630F8003030F700F70BEC2CF80BEC2C5D
:1009E0000000F301F30A01300A128A11F6230A12F9
:1009F0008A1101300A128A1119240A128A117A08FE
:100A00000A128A1198230A128A11831203138C1D69
:100A10000A2D0B2D212E8C117A08031D102D112D5E
:100A20001C2D0A128A11AB230A128A11F7007708CB
:100A300083120313A400032E7A03031D202D212DFE
:100A40002C2D0A128A11AB230A128A11F70077089B
:100A500083120313A300032E02307A06031D312DE7
:100A6000322D3D2D0A128A11AB230A128A11F7008A
:100A7000770883120313A200032E03307A06031DA6
:100A8000422D432D4E2D0A128A11AB230A128A11D0
:100A9000F700770883120313AC00032E04307A06A4
:100AA000031D532D542D5F2D0A128A11AB230A12F8
:100AB0008A11F700770883120313AB00032E053069
:100AC0007A06031D642D652D702D0A128A11AB2341
:100AD0000A128A11F700770883120313AA00032E63
:100AE00006307A06031D752D762D812D0A128A1186
:100AF000AB230A128A11F700770883120313A900A7
:100B0000032E07307A06031D862D872D922D0A129B
:100B10008A11AB230A128A11F70077088312031394
:100B2000A800032E08307A06031D972D982DA32DBB
:100B30000A128A11AB230A128A11F700770883126E
:100B40000313A700032E09307A06031DA82DA92D33
:100B5000B42D0A128A11AB230A128A11F700770802
:100B600083120313A600032E0A307A06031DB92D43
:100B7000BA2DC52D0A128A11AB230A128A11F70069
:100B8000770883120313A500032E0B307A06031D8A
:100B9000CA2DCB2DD42D0A128A11AB230A128A1129
:100BA000F7007708FD00032E0C307A06031DD92DBF
:100BB000DA2DE32D0A128A11AB230A128A11F700EB
:100BC0007708FC00032E0D307A06031DE82DE92D71
:100BD000F22D0A128A11AB230A128A11F700770844
:100BE000FB00032E0E307A06031DF72DF82D032E81
:100BF0000A128A11AB230A128A11F70077088312AE
:100C00000313AD00032E0130F7007708FA070F3009
:100C1000F0000030F1007A08F700F8017708F200E0
:100C20007808F3000A128A1184240A128A117008C3
:100C3000F9007908FA007A080A128A1198230A1230
:100C40008A1183120313200821040319282E292E48
:100C5000302E0130A0020030031CA103A102872E18
:100C600020082104031D352E362E872E01300A124E
:100C70008A11C8230A128A11C730F7003F2EF70BDA
:100C80003E2E422E432E0330F7007708F30001304A
:100C90000A128A11F6230A128A1110300A128A11D6
:100CA00019240A128A110330F7007708F300023082
:100CB0000A128A11F6230A128A11831203132408D6
:100CC0000A128A11B4230A128A1183120313230809
:100CD0000A128A11B4230A128A1139300A128A11AF
:100CE00019240A128A118312031322080A128A1184
:100CF000B4230A128A113B300A128A1119240A12EB
:100D00008A11E23083120313A0000430A1003208DC
:100D1000330403198C2E8D2E942E0130B202003034
:100D2000031CB303B302ED2E32083304031D992EC6
:100D30009A2EED2E01300A128A11C8230A128A1146
:100D4000C730F700A32EF70BA22EA62EA72E033036
:100D5000F7007708F30001300A128A11F6230A120D
:100D60008A1130300A128A1119240A128A110330AA
:100D7000F7007708F30002300A128A11F6230A12EC
:100D80008A11831203132C080A128A11B4230A123F
:100D90008A11831203132B080A128A11B4230A1230
:100DA0008A11831203132A080A128A11B4230A1221
:100DB0008A118312031329080A128A11B4230A1212
:100DC0008A1136300A128A1119240A128A11E23065
:100DD00083120313B2000430B30030083104031946
:100DE000F22EF32EFA2E0130B0020030031CB103B4
:100DF000B102532F30083104031DFF2E002F532F53
:100E000001300A128A11C8230A128A11C730F7006A
:100E1000092FF70B082F0C2F0D2F0330F700770841
:100E2000F30001300A128A11F6230A128A112830BF
:100E30000A128A1119240A128A110330F70077085E
:100E4000F30002300A128A11F6230A128A11831261
:100E5000031328080A128A11B4230A128A1139309E
:100E60000A128A1119240A128A11831203132708FD
:100E70000A128A11B4230A128A1183120313260854
:100E80000A128A11B4230A128A1183120313250845
:100E90000A128A11B4230A128A11E2308312031350
:100EA000B0000430B1002E082F040319582F592F19
:100EB000602F0130AE020030031CAF03AF02B92F28
:100EC0002E082F04031D652F662FB92F01300A123B
:100ED0008A11C8230A128A11C730F7006F2FF70B47
:100EE0006E2F722F732F0330F7007708F300013055
:100EF0000A128A11F6230A128A111D300A128A1167
:100F000019240A128A110330F7007708F30002301F
:100F10000A128A11F6230A128A117D080A128A110E
:100F2000B4230A128A117C080A128A11B4230A1205
:100F30008A1139300A128A1119240A128A117B087F
:100F40000A128A11B4230A128A11831203132D087C
:100F50000A128A11B4230A128A113D300A128A1128
:100F600019240A128A11E23083120313AE000430EE
:100F7000AF000D30F800FB30F700F70BBD2FF80B7A
:100F8000BD2FC22F052D0A128A1100280A128A11BC
:100F90009E230A128A11AE000A128A119F230A1296
:100FA0008A11AF000A128A11A0230A128A11B00016
:100FB0000A128A11A1230A128A11B1000A128A1197
:100FC000A2230A128A11B2000A128A11A3230A125A
:100FD0008A11B300A001A101A201A301A401A501EE
:100FE000A601A701A801A901AA01AB01AC01AD01AD
:100FF000FA01FB01FC01FD0183010A128A11DD2CBB
:04400E00D4E0FFFFFC
:00000001FF
