:020000040000FA
:060000000A128A1110280B
:10000800FE00030E83120313A7000408A8000A08C1
:10001800A9000A128A1559280A128A111328F80108
:10002800F901FA01FB01FC01FD0183135B30840037
:1000380065300A128A11F8270A128A11A030840042
:10004800B3300A128A11F8270A128A1183010A1298
:100058008A15762D831203135508803983160313E6
:10006800B3003308BB008312031355088316031328
:10007800B3003307B4003408BD0083120313D41F40
:10008800462847284A28831603133D14831603136A
:100098003D0803195028512864283D0A031D552896
:1000A80056286028003083120313D5000030D4008E
:1000B8000030D3000030D2008312D417D5016E2847
:1000C800003083120313D5000030D4000030D30071
:1000D8000030D2005908803983160313B30033085F
:1000E800BC003C083B0603197A287B287C283B1770
:1000F80083120313590883160313B3003307B4009C
:100108003408BC0083120313D81F8B288C288F282F
:10011800831603133C14831603133C08031995280C
:100128009628A9283C0A031D9A289B28A528003050
:1001380083120313D9000030D8000030D7000030F4
:10014800D6008312D817D901B328003083120313BD
:10015800D9000030D8000030D7000030D600831610
:1001680003133D083C020318BA28BB2831293B1F5A
:10017800BE28BF28C3288030B3003308BB063D081B
:10018800B3003308BE003C08B3003308BD003E0886
:10019800B3003308BC0083120313520883160313F9
:1001A800B3003308BE0083120313560883160313E3
:1001B800B300330883120313D200831603133E08D7
:1001C800B300330883120313D600530883160313AE
:1001D800B3003308BE0083120313570883160313B2
:1001E800B300330883120313D300831603133E08A6
:1001F800B300330883120313D7005408831603137C
:10020800B3003308BE008312031358088316031380
:10021800B300330883120313D400831603133E0874
:10022800B300330883120313D80055088316031349
:10023800B3003308BE00831203135908831603134F
:10024800B300330883120313D500831603133E0843
:10025800B300330883120313D90083160313BE01B6
:100268003C08B300B4013408B6003D083302B500B9
:10027800031CB6033608803AFF0080307F02031D56
:1002880047291A303502031C4A294B299829831219
:1002980003135508540453045204031D54295629C2
:1002A80001305729003083160313B3003308BE000A
:1002B800003083120313D5000030D4000030D3007F
:1002C8000030D200831603133C08B3003308BD0086
:1002D800A0293E1C702971297A293E08B300031011
:1002E800330C0138B4003408BE007C290310BE0C5E
:1002F80083120313521C812982298529831603132B
:10030800BE17013083160313B30083120313550D70
:10031800D50CD40CD30CD20C83160313B30B892938
:100328000130B3003308BD07831603133C083D02B0
:10033800031C9F29A0296D293B1BA329A429FF2958
:100348003D08031DA829A929B429003083120313E5
:10035800D5000030D4000030D3000030D200B12BDB
:10036800831203135608D207570803110318013ED6
:100378000319BF29D307580803110318013E0319AD
:10038800C629D407590803110318013E0319CD29BA
:10039800D507551CD029D129FD2A831603133E1CE5
:1003A800D629D729E0293E08B3000310330C0138B9
:1003B800B4003408BE00E2290310BE0C83120313F4
:1003C800521CE729E829EB2983160313BE170130CD
:1003D80083160313B30083120313550DD50CD40CE5
:1003E800D30CD20C83160313B30BEF290130B300DF
:1003F8003308BD07FD2A831203135508803AFF000E
:100408005908803A7F02031D132A58085402031D15
:10041800132A57085302031D132A560852020318B9
:10042800162A172AA72AFF3083160313B300FF30B2
:10043800B400FF30B500FF30B6008312031356082E
:1004480083160313B7008312031357088316031385
:10045800B80083120313580883160313B9008312D4
:100468000313590883160313BA008312031352089F
:1004780083160313B702831203135308031C530F85
:10048800462A492A83160313B80283120313540811
:10049800031C540F502A532A83160313B9028312DC
:1004A80003135508031C550F5A2A5D2A8316031394
:1004B800BA0283120313831603133708B3073808E5
:1004C8000318380F682A692AB40739080318390F3E
:1004D8006E2A6F2AB5073A0803183A0AB60736088B
:1004E80083120313D50083160313350883120313ED
:1004F800D40083160313340883120313D30083161E
:100508000313330883120313D200803083160313B6
:10051800B3003308BB06BE09BE0A3E08031D952A70
:10052800962AB52A013083120313D2070030031824
:100538000130D307003003180130D4070030031806
:100548000130D507B52A5608D2025708031C570FA1
:10055800D3025808031C580FD4025908031C590F1A
:10056800D50283125508540453045204031DBD2AAE
:10057800BE2AF82A831603133E08031DC42AC52A77
:10058800F82A003083120313D5000030D40000305D
:10059800D3000030D200B12B013083160313B3000F
:1005A800031083120313D20DD30DD40DD50D83166A
:1005B8000313B30BD42ABE1FE22AE32AE62A8312C6
:1005C80003135214831603133E1CEB2AEC2AEF2A5A
:1005D8000314BE0DF12A0310BE0D3D080319F52AB8
:1005E800F62AF82A0130BD028312D41FFC2AFD2AFC
:1005F800D02A83160313BC01BE1F032B042B162B12
:100608003E087F390319092B0A2B0F2B8316031376
:10061800BC01BC0A162B83120313521C142B152B76
:10062800162B0A2B831603133C0803191C2B1D2BAE
:10063800712B013083120313D207003003180130E5
:10064800D307003003180130D407003003180130F5
:10065800D507551C302B312B712B520883160313E9
:10066800B30083120313530883160313B4008312D1
:100678000313540883160313B50083120313550894
:1006880083160313B6000130B700360DB60CB50C4F
:10069800B40CB30CB70B492B360883120313D500DF
:1006A80083160313350883120313D4008316031328
:1006B800340883120313D3008316031333088312F9
:1006C8000313D200831603133D0A03196C2B6D2BF9
:1006D800712B0130B3003308BD07831603133D0A9D
:1006E8000319772B782B7D2B3D08031D7C2B7D2B45
:1006F8008F2B003083120313D5000030D400003054
:10070800D3000030D200831603133D08031D8D2B40
:100718008E2B8F2BBB013D1C922B932B972B831277
:100728000313D4179D2B7F30B300330883120313B0
:10073800D405831603133D08B3000310330CB4002B
:10074800340883120313D50083160313BB1FAD2B84
:10075800AE2BB12B83120313D51708008312031392
:100768003B088039C0004008C5003B08C00040076E
:10077800C1004108CB00BA1FC22BC32BC42B4B149A
:100788004B080319C82BC92BD82B4B0A031DCD2B9B
:10079800CE2BD62B0030BB000030BA000030B90099
:1007A8000030B800BA17E02B0030BB000030BA00A8
:1007B8000030B9000030B8003F088039C000400858
:1007C800C5063F08C0004007C1004108CA00BE1F57
:1007D800EE2BEF2BF02B4A144A080319F42BF52BB8
:1007E800042C4A0A031DF92BFA2B022C0030BF00F7
:1007F8000030BE000030BD000030BC00BE170C2C1D
:100808000030BF000030BE000030BD000030BC002A
:100818004A080319102C112C162C4B08031D152CF3
:10082800162C1F2C0030BB000030BA000030B90075
:100838000030B800122F3808C0004008AA003E084F
:100848000A128A11CF270A128A11831203132B085E
:10085800D1002A08D0005008C000C101C201C3015C
:100868004308C9004208C8004108C7004008C6003C
:100878005108C000C101C201C3014308CF004208AA
:10088800CE004108CD004008CC003908C00040081F
:10089800AA003D080A128A11CF270A128A11831268
:1008A80003132B08D1002A08D0005008C000C1014A
:1008B800C201C3014008C607410803110318013EDD
:1008C8000319672CC707420803110318013E0319CF
:1008D8006E2CC807430803110318013E0319752C31
:1008E800C9075108C000C101C201C3014008CC07B3
:1008F800410803110318013E0319832CCD07420850
:1009080003110318013E03198A2CCE07430803116B
:100918000318013E0319912CCF073A08C00040087C
:10092800AA003C080A128A11CF270A128A118312D8
:1009380003132B08D1002A08D0005008C000C101B9
:10094800C201C3014008C607410803110318013E4C
:100958000319AF2CC707420803110318013E0319F6
:10096800B62CC807430803110318013E0319BD2C10
:10097800C9075108C000C101C201C3014008CC0722
:10098800410803110318013E0319CB2CCD07420877
:1009980003110318013E0319D22CCE074308031193
:1009A8000318013E0319D92CCF070830C0000310E3
:1009B800C60DC70DC80DC90DC00BDB2C3908C0000A
:1009C8004008AA003C080A128A11CF270A128A1185
:1009D800831203132B08D1002A08D0005008C00046
:1009E8005108C100C201C3014008C60741080311EC
:1009F8000318013E0319012DC70742080311031804
:100A0800013E0319082DC807430803110318013EC6
:100A180003190F2DC9073808C0004008AA003D086F
:100A28000A128A11CF270A128A11831203132B087C
:100A3800D1002A08D0005008C0005108C100C201E6
:100A4800C3014008C607410803110318013E0319F2
:100A58002E2DC707420803110318013E0319352D2F
:100A6800C807430803110318013E03193C2DC907A1
:100A78000830C0000310C60DC70DC80DC90DC00B46
:100A88003E2D3808C0004008AA003C080A128A1106
:100A9800CF270A128A11831203132B08D1002A08C0
:100AA800D0005008C0005108C100C201C30140086D
:100AB800C607410803110318013E0319642DC7072F
:100AC800420803110318013E03196B2DC807430898
:100AD80003110318013E0319722DC9073908C00014
:100AE8004008AA003E080A128A11CF270A128A1162
:100AF800831203132B08D1002A08D0005008C00025
:100B08005108C100C201C3014008CC0741080311C4
:100B18000318013E0319912DCD074208031103184C
:100B2800013E0319982DCE07430803110318013E0F
:100B380003199F2DCF073A08C0004008AA003D08B6
:100B48000A128A11CF270A128A11831203132B085B
:100B5800D1002A08D0005008C0005108C100C201C5
:100B6800C3014008CC07410803110318013E0319CB
:100B7800BE2DCD07420803110318013E0319C52DE8
:100B8800CE07430803110318013E0319CC2DCF07E4
:100B98003A08C0004008AA003E080A128A11CF2766
:100BA8000A128A11831203132B08D1002A08D000D5
:100BB8005008C0005108C100C201C3010830031029
:100BC800C00DC10DC20DC30DFF3E031DE32D40082E
:100BD800CC07410803110318013E0319F42DCD0772
:100BE800420803110318013E0319FB2DCE074308E1
:100BF80003110318013E0319022ECF074608C0004F
:100C08004708C1004808C2004908C300183003104B
:100C1800C30CC20CC10CC00CFF3E031D0B2E4008B8
:100C2800CC07410803110318013E03191C2ECD07F8
:100C3800420803110318013E0319232ECE07430867
:100C480003110318013E03192A2ECF070830C000EC
:100C58000310C60DC70DC80DC90DC00B2C2E4B08AF
:100C68004A07C000C101C10D4008823ED0004108BA
:100C78000318013EFF3ED1005E2E0130C000031074
:100C8800CC0DCD0DCE0DCF0DC00B432EC91F4D2E53
:100C98004E2E4F2E4C140130C0000310C60DC70D48
:100CA800C80DC90DC00B512EFF30D0070318D10A4B
:100CB800FF30D107CE1F612E622E412ECA01C91FF7
:100CC800662E672E832EFF304605C000FF3047058D
:100CD800C100FF304805C2007F304905C300430802
:100CE80042044104400403197A2E7B2E7E2ECA0149
:100CF800CA0A832E4C1C812E822E832E7B2E4A08F4
:100D08000319872E882EB92E0130CC07003003181E
:100D18000130CD07003003180130CE07003003182A
:100D28000130CF074F1C992E9A2EB92E4C08C000BF
:100D38004D08C1004E08C2004F08C3000130C4006E
:100D4800430DC30CC20CC10CC00CC40BA42E430829
:100D5800CF004208CE004108CD004008CC00013049
:100D6800D0070318D10A0030D1075108803AFF0094
:100D780080307F02031DC22EFF305002031CC52E97
:100D8800C62ED12E7F3083120313CF008030CE00C1
:100D98000030CD000030CC00062F83120313510819
:100DA800803AFF0080307F02031DDC2E01305002A4
:100DB8000318DF2EE02EEC2E003083120313CF0031
:100DC8000030CE000030CD000030CC00C501062F29
:100DD800831203135008C0004008CB00FF30CC0535
:100DE800FF30CD057F30CE050030CF054B1CFD2EE2
:100DF800FE2EFF2ECE174B08C0000310400CC1007A
:100E08004108CF004508C0004008CF044F08BB0088
:100E18004E08BA004D08B9004C08B8000800831203
:100E28000313B200320803191A2F1B2F2F2FAD1FDF
:100E38001E2F1F2F2F2F2A09B4002B09B5002C09AC
:100E4800B6002D09B700B40A0319B50A0319B60A82
:100E58000319B70A372F2D08B7002C08B6002B083E
:100E6800B5002A08B4002D082C042B042A04031DFD
:100E78003E2F3F2F482F0030AD000030AC0000302F
:100E8800AB000030AA00CE2F9630AE002E08B3007B
:100E98005A2F0130AE002E08B30701300310B70CEB
:100EA800B60CB50CB40CFF3E031D522FFE303705AF
:100EB800031D5F2F602F4D2F7C2F0130AE002E08B1
:100EC800B3070130B407003003180130B50700300C
:100ED80003180130B607003003180130B707013096
:100EE8000310B70CB60CB50CB40CFF3E031D742FE1
:100EF800FF303705031D812F822F612F8E2F013080
:100F0800B3020130AE000310B40DB50DB60DB70D28
:100F1800AE0B872FB61B912F922F982F02303302DA
:100F28000318972F982F832F33189B2F9C2FA42FAC
:100F3800FF30B405FF30B5057F30B605FF30B70583
:100F48000310B30C3308AE00AF01B001B101183083
:100F58000310AE0DAF0DB00DB10DFF3E031DAC2F4C
:100F68002E08B4042F08B5043008B6043108B704B5
:100F780032080319C02FC12FC62FAD1FC42FC52F8C
:100F8800C62FB7173708AD003608AC003508AB00D8
:100F98003408AA00080083120313B200AE01AF019F
:100FA8002A08AC00AD012C08B0002D08B100321C95
:100FB800DE2FDF2FE52F3008AE070318AF0A310800
:100FC800AF0701300310B00DB10DFF3E031DE62F32
:100FD8000310B20C3208031DF22FF32FDB2F2F085A
:100FE800AB002E08AA00080064008001840A0406E9
:100FF800031900340406F92F08308A000408840A0B
:10100800820700340934033406340C340C340634B3
:0E1018000334093463346D3400342E34003454
:10103A0083120313AA002A08831603139300363077
:10104A008312031394008030831603139400013033
:10105A009100871507168B170B17831203138C1130
:10106A00831603138C1508007130831603138F003F
:10107A00D030880087018601831203138501831605
:10108A000313850183160317880189018312031349
:10109A00860188018701C0308B0070300A128A15D8
:1010AA001D200A128A1508008C1D5C285D28EE286E
:1010BA001412141B612862286628941F6528662862
:1010CA0071281308A000200883160313AA008312AC
:1010DA00031314139413141683160313941A7628FD
:1010EA0077289D2814197A287B289D2883120313B0
:1010FA001308A000200883160313AA0083120313FF
:10110A008C11141683160313141C8C288D28872817
:10111A00831203131308A000200883160313AB00DD
:10112A00A53083120313A000A00B99289C28EB2852
:10113A00941AA028A128EB28141DA428A528EB2876
:10114A00831203131308A000200883160313AA00AE
:10115A001410790883120313A0002008F0007A08FB
:10116A00A1002108F1007B08A2002208F2007C08F5
:10117A00A3002308F300831603132C088312031316
:10118A00A4002408F4007D30A5002508F50078089D
:10119A000A168A11FF260A128A1583120313A60059
:1011AA00260883160313A900290883120313930040
:1011BA001416A53083120313A000A00BE228E52819
:1011CA00831603131418EA28EB28E528831203135D
:1011DA008C1129088A0028088400270E8300FE0E35
:1011EA007E0E09000030831203132A05B200003074
:1011FA002B05B30080302C05B4007F302D05B500D7
:10120A003508340433043204031D0C290D29152929
:10121A000030AD000030AC000030AB000030AA0056
:10122A0000302E05B20000302F05B30080303005A3
:10123A00B4007F303105B500350834043304320474
:10124A00031D2829292931290030B1000030B000B6
:10125A000030AF000030AE00AD1F342935295929BE
:10126A000030B2000030B3000030B4008030B50066
:10127A002A08B2022B08031C2B0F44294529B30262
:10128A002C08031C2C0F4A294B29B4022D08031CD5
:10129A002D0F50295129B5023508AD003408AC008C
:1012AA003308AB003208AA00B11F5C295D298129E5
:1012BA000030B2000030B3000030B4008030B50016
:1012CA002E08B2022F08031C2F0F6C296D29B302B6
:1012DA003008031C300F72297329B4023108031C29
:1012EA00310F78297929B5023508B1003408B000E0
:1012FA003308AF003208AE008030AD068030B10648
:10130A0031082D02031D932930082C02031D93294D
:10131A002F082B02031D93292E082A020318962947
:10132A009729992903109A29031408008312031391
:10133A003F088039C0004008C9003F08C000400784
:10134A00C1004108D000BE1FAB29AC29AD295014F9
:10135A0050080319B129B229C229500A031DB62916
:10136A00B729BF290030BF000030BE000030BD00E1
:10137A000030BC00BE17BF01CA290030BF000030D0
:10138A00BE000030BD000030BC003B088039C00000
:10139A004008C9063B08C0004007C1004108D10007
:1013AA00BA1FD829D929DA29511451080319DE2973
:1013BA00DF29EF29510A031DE329E429EC2900302A
:1013CA00BB000030BA000030B9000030B800BA17CC
:1013DA00BB01F7290030BB000030BA000030B90069
:1013EA000030B8003B083A0439043804031DFE29CA
:1013FA00FF29182A0030BF000030BE000030BD00AF
:10140A000030BC008030BE047F30BF044908C000F1
:10141A004008BF043F08BB003E08BA003D08B900B7
:10142A003C08B800772B5008031D1C2A1D2A262ABF
:10143A000030BB000030BA000030B9000030B800FC
:10144A00772B5008C000C1014108C300510840026F
:10145A00C200031CC30342087F3ECA0043080318A4
:10146A00013E003ECB003F08C8003E08C7003D08C9
:10147A00C6003C08C5000030BF000030BE00003086
:10148A00BD000030BC000030CF000030CE0000307C
:10149A00CD000030CC00D1019C2A51080319562AEC
:1014AA00572A772A0130C0000310C50DC60DC70D93
:1014BA00C80DC00B592A0130C0000310BC0DBD0D68
:1014CA00BE0DBF0DC00B622ACF1F6C2A6D2A6E2A71
:1014DA003C140130C0000310CC0DCD0DCE0DCF0D44
:1014EA00C00B702A3B084802031D852A3A084702A6
:1014FA00031D852A39084602031D852A3808450234
:10150A00031C882A892A982A4F173808C5023908DD
:10151A00031C390FC6023A08031C3A0FC7023B08DC
:10152A00031C3B0FC8020130C0004008D1071A3023
:10153A005102031CA12AA22A522A48084704460437
:10154A0045040319A92AAA2AC92A4C14C92A01300E
:10155A00C0000310BC0DBD0DBE0DBF0DC00BAE2AE1
:10156A00CF1FB82AB92ABA2A3C140130C000031086
:10157A00CC0DCD0DCE0DCF0DC00BBC2AFF30CA0746
:10158A000318CB0AFF30CB07BE1FCC2ACD2AAC2AC0
:10159A00D101CF1FD12AD22AEE2AFF304C05C00032
:1015AA00FF304D05C100FF304E05C2007F304F05A8
:1015BA00C30043084204410440040319E52AE62A09
:1015CA00E92AD101D10AEE2A3C1CEC2AED2AEE2A9C
:1015DA00E62A51080319F22AF32A242B0130BC0700
:1015EA00003003180130BD07003003180130BE0770
:1015FA00003003180130BF073F1C042B052B242B96
:10160A003C08C0003D08C1003E08C2003F08C300B4
:10161A000130C400430DC30CC20CC10CC00CC40B76
:10162A000F2B4308BF004208BE004108BD00400816
:10163A00BC000130CA070318CB0A0030CB074B089D
:10164A00803AFF0080307F02031D2D2BFF304A02B3
:10165A00031C302B312B3F2BFF3083120313CA009C
:10166A000030CB000030BF000030BE000030BD00AB
:10167A000030BC00831203134B08803AFF0080300D
:10168A007F02031D4A2B01304A0203184D2B4E2BB1
:10169A005B2B83120313CA01CB010030BF00003059
:1016AA00BE000030BD000030BC00C9018312031324
:1016BA004A08C0004008D000501C642B652B672BD9
:1016CA00BE176B2B7F30C0004008BE055008C00013
:1016DA000310400CC1004108BF004908C00040087F
:1016EA00BF040F2A08000A3083120313AA0000302D
:1016FA00AB005F0883160313B500B60135088312E1
:10170A000313AC0083160313360883120313AD00C8
:10171A000A168A113B260A128A15831203132A080B
:10172A0083160313B7003708FA00831203135F08FE
:10173A0083160313B500B601B701B801380883123E
:10174A000313AD0083160313370883120313AC0087
:10175A0083160313360883120313AB00831603138D
:10176A00350883120313AA0000300A128A111327BC
:10177A000A128A15831203132D08BF002C08BE0013
:10178A002B08BD002A08BC004130BB002030BA003B
:10179A000030B9000030B8000A128A159B210A12DB
:1017AA008A15831203133B08D5003A08D400390876
:1017BA00D3003808D2000A168A116E270A128A152F
:1017CA0083120313520883160313B9003908B000B1
:1017DA000A3083120313AA000030AB0083160313E6
:1017EA003008B500B601350883120313AC0083161E
:1017FA000313360883120313AD000A168A113B2617
:10180A000A128A15831203132A0883160313B700D0
:10181A003708F900831203135F0883160313B50010
:10182A00B601B701B801380883120313AD00831655
:10183A000313370883120313AC0083160313360805
:10184A0083120313AB0083160313350883120313A1
:10185A00AA0000300A128A1113270A128A15831263
:10186A0003132D08BF002C08BE002B08BD002A0850
:10187A00BC004230BB00C830BA000030B9000030AA
:10188A00B8000A128A159B210A128A1583120313B9
:10189A003B08D5003A08D4003908D3003808D200EA
:1018AA000A168A116E270A128A158312031352081E
:1018BA0083160313B9003908F8000A308312031398
:1018CA00AA000030AB00780883160313B500B601EE
:1018DA00350883120313AC008316031336088312E8
:1018EA000313AD000A168A113B260A128A158312BF
:1018FA0003132A0883160313B7003708AF007A08C0
:10190A00B500350883120313E4007908831603131C
:10191A00B500350883120313E300831603132F0857
:10192A00B5003508B200423083120313BB00C83039
:10193A00BA000030B9000030B8005F0883160313FC
:10194A00B500B601B701B801380883120313AD0018
:10195A0083160313370883120313AC008316031389
:10196A00360883120313AB00831603133508831258
:10197A000313AA0001300A128A1113270A128A15C0
:10198A00831203132D08BF002C08BE002B08BD00CC
:10199A002A08BC000A128A11B2230A128A15831273
:1019AA0003133B0883160313A700831203133A0891
:1019BA0083160313A600831203133908831603132D
:1019CA00A50083120313380883160313A4002708FB
:1019DA0083120313D50083160313260883120313F5
:1019EA00D40083160313250883120313D300831626
:1019FA000313240883120313D2000A168A116E27CE
:101A0A000A128A1583120313520883160313B500A8
:101A1A00350883120313E2000A30AA000030AB0033
:101A2A00620883160313B500B6013508831203133F
:101A3A00AC0083160313360883120313AD000A168B
:101A4A008A113B260A128A15831203132A0883165F
:101A5A000313B7003708FC000A3083120313AA00E5
:101A6A000030AB00620883160313B500B6013508CF
:101A7A0083120313AC00831603133608831203136D
:101A8A00AD000A168A1196260A128A1583120313C2
:101A9A002A0883160313B7003708B1000A308312E5
:101AAA000313AA000030AB00831603133108B500F4
:101ABA00B601350883120313AC00831603133608E4
:101ACA0083120313AD000A168A113B260A128A15DD
:101ADA00831203132A0883160313B7003708FB007F
:101AEA0008000A128A1539200A128A15103083163C
:101AFA000313C1003930C0000D30BF00BF0B832D66
:101B0A00C00B832DC10B832D103083120313900059
:101B1A00831203138F018E010814053083160313F1
:101B2A00BF00BF0B962D992D831203130810081EB0
:101B3A009F2DA02D9C2D1014081AA42DA52DA12D82
:101B4A0010100F0883160313BF00C0013F08C0001E
:101B5A00BF013F08831203130E04AA00831603135E
:101B6A00400883120313AB00AC01AB1BAC032C0877
:101B7A00AD0001300A128A1113270A128A1583123C
:101B8A0003132D0883160313A300831203132C08CF
:101B9A0083160313A200831203132B08831603135D
:101BAA00A100831203132A0883160313A0003F30EF
:101BBA0083120313D5008030D4000030D3000030E4
:101BCA00D2004230BB006B30BA004730B900AE30A9
:101BDA00B80083160313230883120313BF00831666
:101BEA000313220883120313BE008316031321086A
:101BFA0083120313BD0083160313200883120313F1
:101C0A00BC000A128A159B210A128A158312031331
:101C1A003B08D9003A08D8003908D7003808D60056
:101C2A000A128A112E200A128A15831203135508E2
:101C3A00DE005408DD005308DC005208DB007D0892
:101C4A00031D282E292E402E5E08D5005D08D400DB
:101C5A005C08D3005B08D2000A168A116E270A12A2
:101C6A008A1583120313520883160313BF003F0811
:101C7A0083120313DF000A128A1578230A128A15BF
:101C8A0083120313881F4A2E4B2E722EE101682EEF
:101C9A006108013E84000A128A1500200A128A1578
:101CAA0086000D3083160313C000FB30BF00BF0B44
:101CBA005C2EC00B5C2E013083160313BF003F0855
:101CCA0083120313E1070430610203186D2E6E2E8E
:101CDA00722E881B712E722E4D2E081F752E762E8F
:101CEA009D2EE101932E6108053E84000A128A1591
:101CFA0000200A128A1586000D3083160313C000CD
:101D0A00FB30BF00BF0B872EC00B872E0130831616
:101D1A000313BF003F0883120313E1070430610273
:101D2A000318982E992E9D2E081B9C2E9D2E782ED8
:101D3A00881BA02EA12E8D2D081BA42EA52E8D2D1D
:101D4A005E08AD005D08AC005C08AB005B08AA0049
:101D5A004130B100E830B0000030AF000030AE00D2
:101D6A000A128A15F7200A128A15031CBD2EBE2EE6
:101D7A00E02E423083120313AD001430AC00003061
:101D8A00AB000030AA005E08B1005D08B0005C0834
:101D9A00AF005B08AE000A128A15F7200A128A15EC
:101DAA00031CD82ED92EE02E83120313051085109A
:101DBA000511E0018601831203135E08AD005D0878
:101DCA00AC005C08AB005B08AA004130B10090305F
:101DDA00B0000030AF000030AE000A128A15F720BA
:101DEA000A128A15031CFA2EFB2E4B2F413083123E
:101DFA000313AD00E030AC000030AB000030AA00A5
:101E0A005E08B1005D08B0005C08AF005B08AE0078
:101E1A000A128A15F7200A128A15031C152F162F83
:101E2A004B2F83120313051085100515E001E00AF4
:101E3A0083160313AC0183120313E1013F2F6108D8
:101E4A00053E84000A128A1500200A128A158600A5
:101E5A000D3083160313C000FB30BF00BF0B332FB6
:101E6A00C00B332F013083160313BF003F088312C0
:101E7A000313E107043061020318442F452F4B2F47
:101E8A0060030319492F4A2F242F4B2F8312031360
:101E9A005E08AD005D08AC005C08AB005B08AA00F8
:101EAA004130B1002030B0000030AF000030AE0049
:101EBA000A128A15F7200A128A15031C652F662F43
:101ECA00B72F413083120313AD008830AC000030C5
:101EDA00AB000030AA005E08B1005D08B0005C08E3
:101EEA00AF005B08AE000A128A15F7200A128A159B
:101EFA00031C802F812FB72F83120313051485101B
:101F0A000511E001E00A83160313AC01AC0A83123F
:101F1A000313E101AB2F6108053E84000A128A15FA
:101F2A0000200A128A1586000D3083160313C0009A
:101F3A00FB30BF00BF0B9F2FC00B9F2F01308316B2
:101F4A000313BF003F0883120313E1070430610241
:101F5A000318B02FB12FB72F60030319B52FB62F6F
:101F6A00902FB72F831203135E08AD005D08AC00F3
:101F7A005C08AB005B08AA004030B1000030B0003A
:101F8A000030AF000030AE000A128A15F7200A129C
:101F9A008A15031CD12FD22F8D2D413083120313A2
:101FAA00AD001030AC000030AB000030AA005E0873
:101FBA00B1005D08B0005C08AF005B08AE000A1211
:101FCA008A15F7200A128A15031CEC2FED2F8D2D86
:101FDA0083120313051085140511E00102308316DC
:101FEA000313BF003F08AC008312031386018D2D33
:061FFA000A128A111028F2
:102C760083120313B001AD1F412E422E492EAC091B
:102C8600AD09AC0A0319AD0AB001B00AAB1F4C2E50
:102C96004D2E522EAA09AB09AA0A0319AB0A2A0815
:102CA6002B040319572E582E872EAF01AF0A662E16
:102CB60001300310AA0DAB0DFF3E031D5C2E013043
:102CC600AE002E08AF07AB1F692E6A2E5B2E2B08AF
:102CD6002D02031D702E2A082C02031C732E742E3F
:102CE6007A2E2A08AC022B08031CAD03AD02013074
:102CF6000310AB0CAA0CFF3E031D7B2E0130AF0266
:102D0600031D862E872E6A2E300803198B2E8C2ED5
:102D1600912EAC09AD09AC0A0319AD0A2D08AB001A
:102D26002C08AA00080083120313B001AB1F9C2EC7
:102D36009D2EA42EAA09AB09AA0A0319AB0AB00153
:102D4600B00AAD1FA72EA82EB12EAC09AD09AC0A4C
:102D56000319AD0A0130AE002E08B006B101B2016A
:102D66002A082B040319B82EB92EF02EAF01AF0A8C
:102D7600C72E01300310AA0DAB0DFF3E031DBD2E5D
:102D86000130AE002E08AF07AB1FCA2ECB2EBC2ECD
:102D960001300310B10DB20DFF3E031DCC2E2B08E2
:102DA6002D02031DD82E2A082C02031CDB2EDC2E36
:102DB600E32E2A08AC022B08031CAD03AD02311426
:102DC60001300310AB0CAA0CFF3E031DE42E0130AC
:102DD600AF02031DEF2EF02ECB2E30080319F42E72
:102DE600F52EFA2EB109B209B10A0319B20A320850
:102DF600AB003108AA000800F70075088400000837
:102E0600031D062F072F122F750884000008013EA8
:102E1600F600750884007608800077086D2F75081F
:102E260084000003031D182F192F242F7508840012
:102E36000008013EF60075088400760880007008D8
:102E46006D2F7508840002300006031D2B2F2C2FD2
:102E5600372F750884000008013EF60075088400C7
:102E66007608800071086D2F75088400033000060F
:102E7600031D3E2F3F2F4A2F750884000008013E90
:102E8600F600750884007608800072086D2F7508B4
:102E9600840004300006031D512F522F5D2F750844
:102EA60084000008013EF60075088400760880005C
:102EB60073086D2F7508840005300006031D642F06
:102EC600652F6A2F75088400800174086D2F7508B8
:102ED600840000080800031083120313540D550DD7
:102EE600D600560883160313B4003408031D7C2F3E
:102EF6007D2F882F003083120313D5000030D400B5
:102F06000030D3000030D200FF2F83120313520883
:102F1600D6005308D7005408D8005508D9001F30EA
:102F26000310D90CD80CD70CD60CFF3E031D932FDB
:102F36005608DA005A0883160313B30083120313E4
:102F4600D417FF30D205FF30D305FF30D40500304B
:102F5600D505963083160313B402B41FB32FB42FCE
:102F6600D22F3408803A973E0318BA2FBB2FBC2FB6
:102F76007D2F0130031083120313D50CD40CD30C10
:102F8600D20CFF3E031DBD2F0130D6005608831616
:102F96000313B407031DD02FD12FBC2FED2F2030E4
:102FA6003402031CD72FD82FE82F7D2F0130831230
:102FB6000313D6000310D20DD30DD40DD50DD60BA9
:102FC600DD2F013083160313B4023408031DEC2FE2
:102FD600ED2FD92F33080319F12FF22FFF2F83126C
:102FE6000313D209D309D409D509D20A0319D30A7E
:0A2FF6000319D40A0319D50A0800D4
:04400E00D4E0FFFFFC
:00000001FF
