:020000040000FA
:060000000A128A110C280F
:10000800FE00030EFA000A08FB000A128A113028C3
:100018000A128A110F280A128A117E230A128A11DB
:10002800BA000A128A117F230A128A11BB000A1227
:100038008A1180230A128A11BC008313203084009D
:1000480033300A128A1170230A128A11FC01FD0149
:1000580083010A128A11D62A831203138C1E3528AB
:100068003628F5288C127D08031D3B283C2841289A
:100078001A08F7007708B100DA287D03031D452820
:1000880046284B281A08F7007708B000DA2802300B
:100098007D06031D5028512856281A08F7007708AE
:1000A800AF00DA2803307D06031D5B285C28612831
:1000B8001A08F7007708AD00DA2804307D06031D1A
:1000C800662867286C281A08F7007708AC00DA2831
:1000D80005307D06031D7128722877281A08F70055
:1000E8007708AB00DA2806307D06031D7C287D28BA
:1000F80082281A08F7007708AA00DA2807307D0650
:10010800031D872888288D281A08F7007708A90072
:10011800DA2808307D06031D9228932898281A08A3
:10012800F7007708A800DA2809307D06031D9D2806
:100138009E28A3281A08F7007708A700DA280A30AB
:100148007D06031DA828A928AE281A08F7007708F5
:10015800A600DA280B307D06031DB328B428B92879
:100168001A08F7007708A500DA280C307D06031D69
:10017800BE28BF28C4281A08F7007708A400DA2880
:100188000D307D06031DC928CA28CF281A08F70094
:100198007708A300DA280E307D06031DD428D52859
:1001A800DA281A08F7007708A200DA280130F700E1
:1001B8007708FD070F30F0000030F1007D08F700E8
:1001C800F8017708F2007808F3000A128A117D22F4
:1001D8000A128A117008F9007908FD0083120313C6
:1001E800B2018C1DF828F928F4297C08031DFD2884
:1001F800FE28072901300A128A1178230A128A1167
:10020800FC01FC0AF1297C03031D0B290C29172981
:1002180002300A128A1178230A128A110230F70072
:100228007708FC00F12902307C06031D1C291D29D2
:10023800282903300A128A1178230A128A110330F6
:10024800F7007708FC00F12903307C06031D2D29EF
:100258002E29392904300A128A1178230A128A11A0
:100268000430F7007708FC00F12904307C06031DF0
:100278003E293F294A2905300A128A1178230A1291
:100288008A110530F7007708FC00F12905307C0653
:10029800031D4F2950295B2906300A128A11782339
:1002A8000A128A110630F7007708FC00F129063097
:1002B8007C06031D602961296C2907300A128A11FE
:1002C80078230A128A110730F7007708FC00F12911
:1002D80007307C06031D712972297D2908300A120E
:1002E8008A1178230A128A110830F7007708FC006F
:1002F800F12908307C06031D822983298E290830BC
:100308000A128A1178230A128A110930F70077082D
:10031800FC00F12909307C06031D932994299F29A3
:100328000A300A128A1178230A128A110A30F70051
:100338007708FC00F1290A307C06031DA429A529A9
:10034800B0290B300A128A1178230A128A110B304D
:10035800F7007708FC00F1290B307C06031DB5294E
:10036800B629C1290C300A128A1178230A128A1177
:100378000C30F7007708FC00F1290C307C06031DCF
:10038800C629C729D2290D300A128A1178230A12E0
:100398008A110D30F7007708FC00F1290D307C0632
:1003A800031DD729D829E3290E300A128A11782388
:1003B8000A128A110E30F7007708FC00F1290E3076
:1003C8007C06031DE829E929F1290F300A128A1150
:1003D80078230A128A11FC01F129831203138C1164
:1003E8007B088A007A0E8300FE0E7E0E09008316B3
:1003F800031387170713831203139817370C8316F1
:100408000313031C1812031818168C1283120313F3
:1004180036080319102A112A182A181683160313E6
:100428008C16831203138C12350803191C2A1D2AF3
:10043800202A831603139816831603178715831625
:10044800031318112C30831203133306031D302AAB
:100458003403031D302A312A382A40308316031307
:10046800990003309A007C2AB0303306043003190F
:100478003406031D402A412A462ACF308316031327
:1004880099007C2A60303306093003193406031DAD
:100498004E2A4F2A542A67308316031399007C2A60
:1004A80080303306253003193406031D5C2A5D2A83
:1004B800622A19308316031399007C2AB130330657
:1004C800283003193406031D6A2A6B2A702A17304C
:1004D8008316031399007C2A4B3034063304031D1A
:1004E800762A772A7C2A0C308316031399007C2AF3
:1004F8000800F601F31F812A822A892AF209F309E2
:10050800F20A0319F30AF601F60AF11F8C2A8D2A5A
:10051800922AF009F109F00A0319F10A7008710426
:100528000319972A982AC72AF501F50AA62A01303D
:100538000310F00DF10DFF3E031D9C2A0130F4005D
:100548007408F507F11FA92AAA2A9B2A71087302C1
:10055800031DB02A70087202031CB32AB42ABA2AEF
:100568007008F2027108031CF303F3020130031050
:10057800F10CF00CFF3E031DBB2A0130F502031DF0
:10058800C62AC72AAA2A76080319CB2ACC2AD12A2E
:10059800F209F309F20A0319F30A7308F100720861
:1005A800F00008000A128A1116230A128A118030F4
:1005B80083120313B3002530B400B501B50AB601A0
:1005C800B60AB7010A128A11FB210A128A1182306F
:1005D80083120313B900DD30B800B80BF12AB90B48
:1005E800F12A831203133208031DFB2AFC2A062B67
:1005F8007D080A128A115A230A128A1183120313D8
:10060800B201B20A310886000D3083120313B90013
:10061800FB30B800B80B0E2BB90B0E2BF52A0A12BB
:100628008A110C288312031385018601870188012A
:10063800890183160313850186018701871207162E
:10064800880189018B170B178C16831203138C11E1
:10065800831603138C15851683120313B301B40193
:10066800B50125300A128A113C230A128A110800A2
:1006780083120313B600831603138712831203131E
:10068800361D472B482B4E2B350883160313940031
:100698008715542B330835048316031394008711E8
:1006A80083120313360834049400080083120313DA
:1006B800B40083160313981C622B632B5D2B8312E3
:1006C800031334089900C73083120313B3006C2B4B
:1006D800B30B6B2B6F2B080064008001840A04069F
:1006E800031900340406712BF000700883120313F9
:0A06F80093000800043405340134B7
:04400E00D4E0FFFFFC
:00000001FF
