:020000040000FA
:060000000A128A1110280B
:10000800FE00030E83120313BB000A08BC007F081E
:10001800BD000A128A1587280A128A1113280A12A3
:100028008A11FC270A128A11CE000A128A11FD27AA
:100038000A128A11CF000A128A11FE270A128A119F
:10004800D0000A128A11FF270A128A11D100C101B1
:10005800C201C301C401C501C601C701C801C90164
:10006800CA01CB01CC01CD0183010A128A151E2CCD
:10007800831603134D088039D2005208D7004D0863
:10008800D2005207D3005308DD00CC1F4C284D285E
:100098004F285D144F285D080319532854286428F5
:1000A8005D0A031D5828592862280030CD00003009
:1000B800CC000030CB000030CA006228CC176D2875
:1000C8000030CD000030CC000030CB000030CA003A
:1000D8006D2851088039D2005208D7065108D2003D
:1000E8005207D3005308D800D01F7B287C287E28CD
:1000F80058147E2858080319822883289328580AF8
:10010800031D8728882891280030D1000030D000AE
:100118000030CF000030CE009128D0179C28003046
:10012800D1000030D0000030CF000030CE009C2835
:1001380058080319A028A128A7285D08031DA52889
:10014800A628B128A7280030CD000030CC00003008
:10015800CB000030CA000A2C0A2C4A08D2005208E8
:1001680083120313BE008316031350080A128A155C
:1001780000200A128A11831203133F0883160313FF
:10018800E300831203133E0883160313E200620898
:10019800D200D301D401D5015508DC005408DB0096
:1001A8005308DA005208D9006308D200D301D401F9
:1001B800D5015508E1005408E0005308DF00520853
:1001C800DE004B08D200520883120313BE008316C8
:1001D80003134F080A128A1500200A128A11831283
:1001E80003133F0883160313E300831203133E0827
:1001F80083160313E2006208D200D301D401D501AB
:100208005208D907530803110318013E03190D2991
:10021800DA07540803110318013E03191429DB07F0
:10022800550803110318013E03191B29DC0763084D
:10023800D200D301D401D5015208DE0753080311B7
:100248000318013E03192929DF075408031103186D
:10025800013E03193029E007550803110318013E30
:1002680003193729E1074C08D200520883120313F7
:10027800BE00831603134E080A128A1500200A12BC
:100288008A11831203133F0883160313E3008312B2
:1002980003133E0883160313E2006208D200D30159
:1002A800D401D5015208D907530803110318013E98
:1002B80003195F29DA07540803110318013E0319CB
:1002C8006629DB07550803110318013E03196D2938
:1002D800DC076308D200D301D401D5015208DE0738
:1002E800530803110318013E03197B29DF0754083B
:1002F80003110318013E03198229E0075508031169
:100308000318013E03198929E1070830D2000310B8
:10031800D90DDA0DDB0DDC0DD20B8B294B08D20081
:10032800520883120313BE00831603134E080A12E1
:100338008A1500200A128A11831203133F088316B4
:100348000313E300831203133E0883160313E2002A
:100358006208D2006308D300D401D5015208D90736
:10036800530803110318013E0319BB29DA0754087F
:1003780003110318013E0319C229DB0755080311AD
:100388000318013E0319C929DC074A08D20052089C
:1003980083120313BE00831603134F080A128A152B
:1003A80000200A128A11831203133F0883160313CD
:1003B800E300831203133E0883160313E200620866
:1003C800D2006308D300D401D5015208D9075308D5
:1003D80003110318013E0319F229DA07540803111F
:1003E8000318013E0319F929DB07550803110318FF
:1003F800013E0319002ADC070830D2000310D90D8A
:10040800DA0DDB0DDC0DD20B022A4A08D2005208A5
:1004180083120313BE00831603134E080A128A15AB
:1004280000200A128A11831203133F08831603134C
:10043800E300831203133E0883160313E2006208E5
:10044800D2006308D300D401D5015208D907530854
:1004580003110318013E0319322ADA07540803115D
:100468000318013E0319392ADB075508031103183D
:10047800013E0319402ADC074B08D20052088312B8
:100488000313BE008316031350080A128A150020AE
:100498000A128A11831203133F0883160313E30019
:1004A800831203133E0883160313E2006208D20086
:1004B8006308D300D401D5015208DE07530803119D
:1004C8000318013E0319692ADF07540803110318AA
:1004D800013E0319702AE007550803110318013E6D
:1004E8000319772AE1074C08D20052088312031334
:1004F800BE00831603134F080A128A1500200A1239
:100508008A11831203133F0883160313E30083122F
:1005180003133E0883160313E2006208D20063083F
:10052800D300D401D5015208DE075308031103187C
:10053800013E0319A02ADF07540803110318013EDE
:100548000319A72AE007550803110318013E0319E8
:10055800AE2AE1074C08D200520883120313BE00EA
:100568008316031350080A128A1500200A128A11EA
:10057800831203133F0883160313E3008312031344
:100588003E0883160313E2006208D2006308D30012
:10059800D401D50108300310D20DD30DD40DD50DDB
:1005A800FF3E031DCF2A5208DE0753080311031824
:1005B800013E0319E02ADF07540803110318013E1E
:1005C8000319E72AE007550803110318013E031928
:1005D800EE2AE1075908D2005A08D3005B08D40074
:1005E8005C08D50018300310D50CD40CD30CD20CF1
:1005F800FF3E031DF72A5208DE07530803110318AC
:10060800013E0319082BDF07540803110318013EA4
:1006180003190F2BE007550803110318013E0319AE
:10062800162BE1070830D2000310D90DDA0DDB0DC7
:10063800DC0DD20B182B5D085807D200D301D30D5F
:100648005208823EE20053080318013EFF3EE300D1
:100658004C2B0130D2000310DE0DDF0DE00DE10D53
:10066800D20B2F2BDC1F392B3A2B3C2B5E143C2B47
:100678000130D2000310D90DDA0DDB0DDC0DD20BE1
:100688003E2BFF30E2070318E30AFF30E3074C2B49
:10069800E01F4F2B502B2D2B512BD801DC1F552B36
:1006A800562B762BFF305905D200FF305A05D30060
:1006B800FF305B05D4007F305C05D5005508540435
:1006C800530452040319692B6A2B6D2BD801D80ADD
:1006D800762B5E1C702B712B762BD801D80A762BC3
:1006E800762B762B580803197A2B7B2BAE2B0130EF
:1006F800DE07003003180130DF070030031801302F
:10070800E007003003180130E107611C8C2B8D2BAA
:10071800AE2B5E08D2005F08D3006008D4006108E1
:10072800D5000130D600550DD50CD40CD30CD20C05
:10073800D60B972B5508E1005408E0005308DF005A
:100748005208DE000130E2070318E30A0030E3072D
:10075800AE2BAE2B6308803AFF0080307F02031D6A
:10076800B72BFF306202031CBA2BBB2BC62B7F3082
:1007780083160313E1008030E0000030DF00003012
:10078800DE00FD2B831603136308803AFF008030D8
:100798007F02031DD12B013062020318D42BD52B05
:1007A800E12B003083160313E1000030E000003035
:1007B800DF000030DE00D701FD2B8316031362082B
:1007C800D2005208DD00FF30DE05FF30DF057F3044
:1007D800E0050030E1055D1CF22BF32BF52BE0174B
:1007E800F52B5D08D2000310520CD3005308E1002A
:1007F800FD2B5708D2005208E1046108CD006008BB
:10080800CC005F08CB005E08CA000A2C08008312DF
:10081800031323088039A8002808AD002308A8007E
:100828002807A9002908B300A21F1B2C1C2C1E2C6A
:1008380033141E2C33080319222C232C332C330A8F
:10084800031D272C282C312C0030A3000030A200D7
:100858000030A1000030A000312CA2173C2C003041
:10086800A3000030A2000030A1000030A0003C2C02
:1008780027088039A8002808AD062708A8002807F7
:10088800A9002908B200A61F4A2C4B2C4D2C321463
:100898004D2C32080319512C522C622C320A031D9C
:1008A800562C572C602C0030A7000030A6000030D2
:1008B800A5000030A400602CA6176B2C0030A70000
:1008C8000030A6000030A5000030A4006B2C3208D0
:1008D80003196F2C702C762C3308031D742C752C7F
:1008E800802C762C0030A3000030A2000030A1003C
:1008F8000030A0007F2F7F2F2008A8002808F000D4
:1009080026080A168A1197260A128A117108831274
:100918000313B9007008B8003808A800A901AA0193
:10092800AB012B08B1002A08B0002908AF0028083D
:10093800AE003908A800A901AA01AB012B08B7002D
:100948002A08B6002908B5002808B4002108A8001C
:100958002808F00025080A168A1197260A128A1113
:10096800710883120313B9007008B8003808A8008A
:10097800A901AA01AB012808AE0729080311031829
:10098800013E0319C82CAF072A0803110318013EBA
:100998000319CF2CB0072B0803110318013E0319C4
:1009A800D62CB1073908A800A901AA01AB0128086B
:1009B800B407290803110318013E0319E42CB507ED
:1009C8002A0803110318013E0319EB2CB6072B085C
:1009D80003110318013E0319F22CB7072208A800D7
:1009E8002808F00024080A168A1197260A128A1184
:1009F800710883120313B9007008B8003808A800FA
:100A0800A901AA01AB012808AE0729080311031898
:100A1800013E0319102DAF072A0803110318013EE0
:100A28000319172DB0072B0803110318013E0319EA
:100A38001E2DB1073908A800A901AA01AB01280891
:100A4800B407290803110318013E03192C2DB50713
:100A58002A0803110318013E0319332DB6072B0882
:100A680003110318013E03193A2DB7070830A800EF
:100A78000310AE0DAF0DB00DB10DA80B3C2D210824
:100A8800A8002808F00024080A168A1197260A12D6
:100A98008A11710883120313B9007008B800380866
:100AA800A8003908A900AA01AB012808AE0729083F
:100AB80003110318013E0319622DAF072A08031119
:100AC8000318013E0319692DB0072B0803110318F9
:100AD800013E0319702DB1072008A8002808F0006E
:100AE80025080A168A1197260A128A117108831294
:100AF8000313B9007008B8003808A8003908A9001D
:100B0800AA01AB012808AE07290803110318013E02
:100B180003198F2DAF072A0803110318013E031983
:100B2800962DB0072B0803110318013E03199D2DBC
:100B3800B1070830A8000310AE0DAF0DB00DB10D10
:100B4800A80B9F2D2008A8002808F00024080A16E2
:100B58008A1197260A128A11710883120313B900A1
:100B68007008B8003808A8003908A900AA01AB0124
:100B78002808AE07290803110318013E0319C52DDB
:100B8800AF072A0803110318013E0319CC2DB0073B
:100B98002B0803110318013E0319D32DB1072108AF
:100BA800A8002808F00026080A168A1197260A12B3
:100BB8008A11710883120313B9007008B800380845
:100BC800A8003908A900AA01AB012808B407290818
:100BD80003110318013E0319F22DB5072A08031162
:100BE8000318013E0319F92DB6072B080311031842
:100BF800013E0319002EB7072208A8002808F000B4
:100C080025080A168A1197260A128A117108831272
:100C18000313B9007008B8003808A8003908A900FB
:100C2800AA01AB012808B407290803110318013EDB
:100C380003191F2EB5072A0803110318013E0319CB
:100C4800262EB6072B0803110318013E03192D2E73
:100C5800B7072208A8002808F00026080A168A11F3
:100C680097260A128A11710883120313B9007008B3
:100C7800B8003808A8003908A900AA01AB01083053
:100C88000310A80DA90DAA0DAB0DFF3E031D442EA0
:100C98002808B407290803110318013E0319552E23
:100CA800B5072A0803110318013E03195C2EB6077D
:100CB8002B0803110318013E0319632EB7072E08EA
:100CC800A8002F08A9003008AA003108AB00183086
:100CD8000310AB0CAA0CA90CA80CFF3E031D6C2E2C
:100CE8002808B407290803110318013E03197D2EAB
:100CF800B5072A0803110318013E0319842EB60705
:100D08002B0803110318013E03198B2EB70708306F
:100D1800A8000310AE0DAF0DB00DB10DA80B8D2EB0
:100D280033083207A800A901A90D2808823EB80097
:100D380029080318013EFF3EB900C12E0130A80062
:100D48000310B40DB50DB60DB70DA80BA42EB11F29
:100D5800AE2EAF2EB12E3414B12E0130A8000310E0
:100D6800AE0DAF0DB00DB10DA80BB32EFF30B80707
:100D78000318B90AFF30B907C12EB61FC42EC52EF5
:100D8800A22EC62EB201B11FCA2ECB2EEB2EFF30DB
:100D98002E05A800FF302F05A900FF303005AA0056
:100DA8007F303105AB002B082A04290428040319D5
:100DB800DE2EDF2EE22EB201B20AEB2E341CE52E17
:100DC800E62EEB2EB201B20AEB2EEB2EEB2E3208FA
:100DD8000319EF2EF02E232F0130B407003003182B
:100DE8000130B507003003180130B607003003188A
:100DF8000130B707371C012F022F232F3408A80012
:100E08003508A9003608AA003708AB000130AC0045
:100E18002B0DAB0CAA0CA90CA80CAC0B0C2F2B0897
:100E2800B7002A08B6002908B5002808B400013020
:100E3800B8070318B90A0030B907232F232F390838
:100E4800803AFF0080307F02031D2C2FFF303802CC
:100E5800031C2F2F302F3B2F7F3083120313B70033
:100E68008030B6000030B5000030B400722F831215
:100E780003133908803AFF0080307F02031D462F94
:100E8800013038020318492F4A2F562F0030831299
:100E98000313B7000030B6000030B5000030B400CE
:100EA800AD01722F831203133808A8002808B30075
:100EB800FF30B405FF30B5057F30B6050030B70503
:100EC800331C672F682F6A2FB6176A2F3308A800BC
:100ED8000310280CA9002908B700722F2D08A800B4
:100EE8002808B7043708A3003608A2003508A1006F
:100EF8003408A0007F2F080083160313C30041089D
:100F0800C2004208A00002300A168A11C1260A123D
:100F18008A118316031343080A168A1176260A12C1
:100F28008A11831603134108013EC2004208A0003B
:100F380002300A168A11C1260A128A112E300A16A0
:100F48008A115D260A128A11831603134108023E8C
:100F5800C2004208A00002300A168A11C1260A12ED
:100F68008A110A308316031340020318BC2FBD2FC1
:100F7800C42F30300A168A115D260A128A11C42F2E
:100F88008316031340080A168A1176260A128A1154
:100F9800831603134108043EC2004208A000023031
:100FA8000A168A11C1260A128A114C300A168A11A9
:100FB8005D260A128A11E02F08008316031788019C
:100FC800890183160313850186010614880183129B
:100FD80003138601880185018316031381130130E9
:100FE800950001138B170B170B168B10FB2F08009E
:100FF8003F3459340F343E3483160313A600A2013C
:10100800A301831203133E0883160313A000A10152
:101018002008A4002108A5001128261C142815283A
:101028001B282408A2070318A30A2508A3070130D0
:101038000310A40DA50DFF3E031D1C280310A60CCC
:101048002608031D2828292811282A28230883125E
:101058000313BF0083160313220883120313BE0071
:1010680035280800831603132708280403193D2888
:101078003E287F2883120313C001C00A5328013079
:10108800831603130310A70DA80DFF3E031D462862
:10109800013083120313BF003F08C007532883168B
:1010A8000313A81F5828592843285B285B28831650
:1010B800031328082A02031D632827082902031C92
:1010C800662867286E282708A9022808031CAA038F
:1010D800AA026E2801300310A80CA70CFF3E031DBE
:1010E8006F28013083120313C002031D7C287D285A
:1010F8005B287F287F28831603132A08A80029085D
:10110800A700862808008B1C8A288B289328013082
:10111800C9070318CA0A0030CA078B1093280B1D89
:1011280096289728D6280F304D06031D9C289D2801
:10113800CE285108A3005008A2004F08A1004E086D
:10114800A0004908F0004A08F100F201F30100305C
:101158000A128A1596210A128A1573088312031334
:10116800A7007208A6007108A5007008A4000A125A
:101178008A110B240A128A15831203132308C80044
:101188002208C7002108C6002008C500CD01C901F2
:10119800CA01D3280130BA003A08CD07D328810103
:1011A8000B11D6283D08FF003C088A003B0E83003F
:1011B800FE0E7E0E0900831603132008A4002108E2
:1011C800A5002208A6002308A7000310260D270D56
:1011D800A800280883120313BF003F08031DF52841
:1011E800F6280229003083160313A3000030A2005A
:1011F8000030A1000030A00095299529831603131B
:101208002008A4002108A5002208A6002308A7009A
:101218001F300310A70CA60CA50CA40CFF3E031D41
:101228000D292408A800280883120313BE0083167A
:101238000313A217FF30A005FF30A105FF30A20558
:101248000030A305963083120313BF02BF1F2D2958
:101258002E2959293F08803A973E03183429352901
:101268004229003083160313A3000030A200003087
:10127800A1000030A00095299529422901300310CA
:1012880083160313A30CA20CA10CA00CFF3E031D94
:1012980043290130A400240883120313BF07031D48
:1012A8005629572942298329832920303F02031CC4
:1012B8005E295F297B29003083160313A3000030C1
:1012C800A2000030A1000030A000952995297B29B3
:1012D800013083160313A4000310A00DA10DA20D65
:1012E800A30DA40B7029013083120313BF028312CC
:1012F8003F08031D802981296C29832983293E08F9
:10130800031987298829952983160313A009A10998
:10131800A209A309A00A0319A10A0319A20A031919
:10132800A30A0800F800780803199B299C29B0290A
:10133800F31F9F29A029B0297009FA007109FB0041
:101348007209FC007309FD00FA0A0319FB0A031964
:10135800FC0A0319FD0AB8297308FD007208FC008D
:101368007108FB007008FA007308720471047004B5
:10137800031DBF29C029CA290030F3000030F2003C
:101388000030F1000030F000572A572A9630F40058
:101398007408F900DD290130F4007408F9070130F8
:1013A8000310FD0CFC0CFB0CFA0CFF3E031DD429AA
:1013B800DD29FE307D05031DE229E329CF29002A16
:1013C800002A0130F4007408F9070130FA070030E8
:1013D80003180130FB07003003180130FC07003008
:1013E80003180130FD0701300310FD0CFC0CFB0C49
:1013F800FA0CFF3E031DF829FF307D05031D052A61
:10140800062AE529142A142A0130F9020130F400C9
:101418000310FA0DFB0DFC0DFD0DF40B0C2A142A1C
:10142800FC1B172A182A1F2A0230790203181D2AC2
:101438001E2A082A1F2A7918222A232A2B2AFF3033
:10144800FA05FF30FB057F30FC05FF30FD05031072
:10145800F90C7908F400F501F601F70118300310CA
:10146800F40DF50DF60DF70DFF3E031D332A740834
:10147800FA047508FB047608FC047708FD0478086C
:101488000319472A482A4E2AF31F4B2A4C2A4E2A68
:10149800FD174E2A7D08F3007C08F2007B08F10056
:1014A8007A08F000572A080083160313A8002808B2
:1014B80003195F2A602A742AA31F632A642A742ADC
:1014C8002009AA002109AB002209AC002309AD00BC
:1014D800AA0A0319AB0A0319AC0A0319AD0A7C2A34
:1014E8002308AD002208AC002108AB002008AA00A0
:1014F8002308220421042004031D832A842A8E2A17
:101508000030A3000030A2000030A1000030A0008D
:101518001B2B1B2B9630A4002408A900A12A0130FC
:10152800A4002408A90701300310AD0CAC0CAB0CC7
:10153800AA0CFF3E031D982AA12AFE302D05031D83
:10154800A62AA72A932AC42AC42A0130A400240858
:10155800A9070130AA07003003180130AB07003093
:1015680003180130AC07003003180130AD07013013
:101578000310AD0CAC0CAB0CAA0CFF3E031DBC2A2F
:10158800FF302D05031DC92ACA2AA92AD82AD82A14
:101598000130A9020130A4000310AA0DAB0DAC0D57
:1015A800AD0DA40BD02AD82AAC1BDB2ADC2AE32AEF
:1015B800023029020318E12AE22ACC2AE32A291850
:1015C800E62AE72AEF2AFF30AA05FF30AB057F306D
:1015D800AC05FF30AD050310A90C2908A400A5012E
:1015E800A601A70118300310A40DA50DA60DA70D7F
:1015F800FF3E031DF72A2408AA042508AB04260881
:10160800AC042708AD04280803190B2B0C2B122B4C
:10161800A31F0F2B102B122BAD17122B2D08A30075
:101628002C08A2002B08A1002A08A0001B2B0800E8
:1016380083160313B600AC30AE002E08B100042C9C
:10164800253037060319292B2A2B362B3708AE00ED
:10165800360884002E08831380000130AE002E085F
:10166800B607042CB2013D2B182C5A2B5A2B042CEC
:101678005A2B0130AB07FF302B0784000A168A115A
:101688000A200A128A15B700AE00AF012F08003AE7
:1016980003194F2B042C2E08003A0319182C643A0E
:1016A80003195A2B0D3A03195A2B042C31088400BC
:1016B80083130008B400840A0008B5000230AE00A5
:1016C8002E08B107B51F692B6A2B742B0330AE00A7
:1016D8002E08B204B409B509B40A0319B50A742B63
:1016E800B701B70A05303706031D7B2B7C2B7E2BF1
:1016F800A62BA62B3708AE002E07013E84000A163B
:101708008A110A200A128A15AF000A168A110A20BD
:101718000A128A15B00030083502031D952B2F08D0
:1017280034020318982B992B9B2BA62BA62B013040
:10173800AE002E08B70705303706031DA42BA52BCE
:101748007E2BA62B320803390319AB2BAC2BB82BF5
:101758002D30AE00360884002E0883138000013037
:10176800AE002E08B607B82B3708AE002E08B30017
:10177800F92B0A30A7000030A8003308AE002E0766
:10178800013E84000A168A110A200A128A15A0004E
:101798000A168A110A200A128A15A1003508A30020
:1017A8003408A2000A168A11AF270A128A1583166E
:1017B80003132108AA002008A9000A128A15362056
:1017C8000A128A15831603132708303EAF002F0824
:1017D800B7003708AE00360884002E08831380004F
:1017E8000130AE002E08B607F92BFF30AE002E08E8
:1017F800B307330A031D012C022CBD2B042C042C27
:101808000130AB07FF302B0784000A168A110A2023
:101818000A128A15AE002E08B7003708031D152CCA
:10182800162C242B182C182C3608840083138001BE
:101838001D2C08000A128A11E1270A128A150A16B5
:101848008A115E270A128A150A168A1122260A1296
:101858008A150A168A112A260A128A15831603136C
:10186800A001A00A01300A168A11C1260A128A1597
:101878000B3083160313A0008030A1000A168A11CA
:10188800EC260A128A15083083160313E40064084C
:10189800A00001300A168A11C1260A128A151230D0
:1018A80083160313A0008030A1000A168A11EC26C3
:1018B8000A128A1583160313A001A00A02300A1619
:1018C8008A11C1260A128A15692C83120313480843
:1018D80083160313A3008312031347088316031305
:1018E800A20083120313460883160313A100831270
:1018F8000313450883160313A0000A128A15DF2074
:101908000A128A15831603132008E4006408831258
:101918000313CC00423083160313CD00C830CC002B
:101928000030CB000030CA00831203134808831626
:101938000313B50083120313470883160313B40077
:1019480083120313460883160313B3008312031389
:10195800450883160313B200831203134C08831639
:101968000313E400E501E601E7016708A300660840
:10197800A2006508A1006408A00001300A128A15B7
:1019880058220A128A15831603132308B100220865
:10199800B0002108AF002008AE000A168A113726C9
:1019A8000A128A15831603133108B9003008B800E3
:1019B8002F08B7002E08B6000A128A1544250A1205
:1019C8008A15831603133508D1003408D00033086C
:1019D800CF003208CE000A128A113C200A128A155A
:1019E800831603134D0883120313C40083160313CD
:1019F8004C0883120313C300831603134B08831286
:101A08000313C200831603134A0883120313C10089
:101A1800440883160313A300831203134308831691
:101A28000313A20083120313420883160313A100B1
:101A380083120313410883160313A0000A128A15A0
:101A4800DF200A128A15831603132008E4006408AD
:101A580083120313CB004B0883160313E4006408B6
:101A6800C000C101C10A831203134C080A128A116B
:101A780080270A128A15692C692C0A128A111028E3
:101A88008316031335088039BA003A08C6003508AA
:101A9800BA003A07BB003B08C800B41F542D552DA7
:101AA800572D4814572D480803195B2D5C2D6D2DB3
:101AB800480A031D602D612D6A2D0030B5000030E5
:101AC800B4000030B3000030B2006A2DB417B5017D
:101AD800762D0030B5000030B4000030B30000307F
:101AE800B200762D39088039BA003A08C70047088D
:101AF80046060319802D812D832D4617832D39081D
:101B0800BA003A07BB003B08C700B81F8C2D8D2DC3
:101B18008F2D47148F2D47080319932D942DA52D2C
:101B2800470A031D982D992DA22D0030B9000030C9
:101B3800B8000030B7000030B600A22DB817B901C0
:101B4800AD2D0030B9000030B8000030B7000030CB
:101B5800B600480847020318B22DB32DF92D461FC9
:101B6800B62DB72DBC2D8030BA003A08C606BC2D5C
:101B78004808BA003A08C9004708BA003A08C80035
:101B88004908BA003A08C7003208BA003A08C9003A
:101B98003608BA003A08B2004908BA003A08B6004E
:101BA8003308BA003A08C9003708BA003A08B3003F
:101BB8004908BA003A08B7003408BA003A08C90018
:101BC8003808BA003A08B4004908BA003A08B80018
:101BD8003508BA003A08C9003908BA003A08B50009
:101BE8004908BA003A08B900F92DC9014808BA00ED
:101BF800BB01BA09BB09BA0A0319BB0A47083A0765
:101C0800BC003B0803183B0ABD003D08803AFF00B2
:101C180080307F02031D122E1A303C02031C152E41
:101C2800162E572E83160313350834043304320452
:101C3800031D1F2E212E0130222E0030BA003A0833
:101C4800C9000030B5000030B4000030B3000030E7
:101C5800B2004708BA003A08C800602E572E491C3F
:101C6800362E372E402E4908BA0003103A0C013898
:101C7800BB003B08C900432E0310C90C432E321C7D
:101C8800462E472E492EC917492E0130BA00350D68
:101C9800B50CB40CB30CB20CBA0B4B2E0130BA0015
:101CA8003A08C807572E8316031347084802031C2F
:101CB8005E2E5F2E332E602E461B632E642EB32EAF
:101CC8004808031D682E692E732E0030B5000030B9
:101CD800B4000030B3000030B200FF2FFF2F3608E9
:101CE800B207370803110318013E03197C2EB30706
:101CF800380803110318013E0319832EB407390865
:101D080003110318013E03198A2EB507351C8D2EC1
:101D18008E2E7C2F491C912E922E9B2E4908BA009C
:101D280003103A0C0138BB003B08C9009E2E031073
:101D3800C90C9E2E321CA12EA22EA42EC917A42E89
:101D48000130BA00350DB50CB40CB30CB20CBA0B9B
:101D5800A62E0130BA003A08C8077C2F7C2F350818
:101D6800803AFF003908803A7F02031DC52E3808E3
:101D78003402031DC52E37083302031DC52E36084D
:101D880032020318C82EC92E2F2FFF30BA00FF3099
:101D9800BB00FF30BC00FF30BD003608BE0037086E
:101DA800BF003808C0003908C1003209C200330931
:101DB800C3003409C4003509C500C20A0319C30A9F
:101DC8000319C40A0319C50A4208BE0743080318C1
:101DD800430FEF2EF02EBF0744080318440FF52ECB
:101DE800F62EC00745080318450AC1073E08BA077A
:101DF8003F0803183F0F012F022FBB0740080318A5
:101E0800400F072F082FBC0741080318410ABD07D8
:101E18003D08B5003C08B4003B08B3003A08B200DE
:101E28008030BA003A08C606C909C90A4908031D1C
:101E38001E2F1F2F3D2F0130B2070030031801302D
:101E4800B307003003180130B4070030031801301D
:101E5800B5073D2F3D2F3608B2023708031C370F50
:101E6800B3023808031C380FB4023908031C390FB1
:101E7800B5023508340433043204031D442F452FBA
:101E8800762F4908031D492F4A2F762F0030B500B9
:101E98000030B4000030B3000030B200FF2FFF2F35
:101EA800762F0130BA000310B20DB30DB40DB50D85
:101EB800BA0B572FC91F612F622F632F3214491C89
:101EC800662F672F6A2F0314C90D6D2F0310C90DD4
:101ED8006D2F48080319712F722F762F0130C80211
:101EE800762F762FB41F792F7A2F552F7C2F7C2FA2
:101EF800C701C91F802F812F932F49087F390319E4
:101F0800862F872F8A2FC701C70A932F321C8D2F40
:101F18008E2F932FC701C70A932F932F932F47080C
:101F28000319972F982FCE2F0130B20700300318CE
:101F38000130B307003003180130B407003003182C
:101F48000130B507351CA92FAA2FCE2F3208BA00A9
:101F58003308BB003408BC003508BD000130BE00A2
:101F68003D0DBD0CBC0CBB0CBA0CBE0BB42F3D0810
:101F7800B5003C08B4003B08B3003A08B200480A70
:101F88000319C72FC82FCE2F0130BA003A08C80747
:101F9800CE2FCE2F480A0319D22FD32FD92F480876
:101FA800031DD72FD82FE92FD92F0030B5000030C7
:101FB800B4000030B3000030B2004808031DE52F1C
:101FC800E62FE92FC601E92FE92F481CEC2FED2F4A
:101FD800EF2FB417F32F7F30BA003A08B40548083A
:101FE800BA0003103A0CBB003B08B500C61FFD2F12
:101FF800FE2FFF2FB5170800FF1B0A2883137F1831
:1020080083170008840A0319FF0A080010308A00A1
:102018000408840A82070034013400340A34003486
:1020280064340034E8340334103427344C342F3407
:102038006D3469346E343A340034503475346C3449
:08204800003425346434003437
:102C440001300A168A1146260A168A11292E08000E
:102C540083160313811281110115811401148B163B
:102C64000B11831203138101080083160313310827
:102C740030042F042E040319402E412E442E80309C
:102C8400B106442E452E080083120313C000881297
:102C9400400885008817063083120313BF002F30C5
:102CA400BE00BE0B532EBF0B532E582E831203139C
:102CB40088135C2E080083120313C0008816400892
:102CC4000A168A1121270A168A11831203138817F8
:102CD4000C3083120313BF00BF0B6E2E000083124F
:102CE40003138813752E080083160313BF001630D0
:102CF400B8003808AB003F08B900BA013908AC0085
:102D04003A08AD00BB300A128A151C230A168A1130
:102D1400BB3083160313A0000030A1000A168A11E9
:102D2400EC260A168A11962E0800F800F401F50123
:102D34007008F200F3017208F6007308F700A22E7F
:102D4400781CA52EA62EAC2E7608F4070318F50AD7
:102D54007708F50701300310F60DF70DFF3E031D4C
:102D6400AD2E0310F80C7808031DB92EBA2EA22E2E
:102D7400BB2E7508F1007408F000C02E08008316FD
:102D84000313A2002203031DC82EC92ED52E20082A
:102D94007F3EA1002108A30023080A168A114626B3
:102DA4000A168A11EB2E0230831603132206031D22
:102DB400DC2EDD2EEB2E2008BF3EA1002108A3004F
:102DC40023080A168A1146260A168A11EB2EEB2EC0
:102DD400EB2E080083160313A3010C2F8316031391
:102DE40023082007840021080318210A83120313EF
:102DF400FF000A168A1100200A168A110A168A117F
:102E04005D260A168A11013083160313A2002208D4
:102E1400A3070C2F23082007840021080318210A84
:102E240083120313FF000A168A1100200A168A115E
:102E3400003A031D1E2F1F2FF02E202F080083128F
:102E44000313BE003E1C272F282F2A2F05142B2FD7
:102E54000510BE1C2E2F2F2F312F8514322F8510D5
:102E64003E1D352F362F382F0515392F0511BE1D60
:102E74003C2F3D2F3F2F8515402F85113E1E432F9C
:102E8400442F462F0516472F0512BE1E4A2F4B2FDF
:102E94004D2F85164E2F85123E1F512F522F542F22
:102EA4000517552F0513BE1F582F592F5B2F851754
:102EB4005D2F85135D2F0800143083160313A100C2
:102EC4007930A000A00B642FA10B642F30300A16B8
:102ED4008A1146260A168A11073083160313A100A5
:102EE4007C30A000A00B742FA10B742F0000303095
:102EF4000A168A1146260A168A110F3083160313FE
:102F0400A1004730A000A00B852FA10B852F3030E6
:102F14000A168A1146260A168A1138300A168A11A8
:102F240046260A168A1110300A168A1146260A16EF
:102F34008A1101300A168A1146260A168A110630A9
:102F44000A168A1146260A168A110E300A168A11A2
:102F540046260A168A11AE2F080083160313A5010C
:102F6400A601200821040319B82FB92FFA2FA401B0
:102F7400A40ACC2F01300310A00DA10DFF3E031DA8
:102F8400BD2F013083120313BE003E0883160313C2
:102F9400A407CC2FA11FCF2FD02FBC2FD22FD22FDD
:102FA40001300310A50DA60DFF3E031DD32F2108EC
:102FB4002302031DDF2F20082202031CE22FE32F2C
:102FC400EB2F2008A2022108031CA303A30225144B
:102FD400EB2F01300310A10CA00CFF3E031DEC2FBE
:102FE4000130A402031DF72FF82FD22FFA2FFA2F46
:0C2FF4002608A1002508A000FF2F0800FF
:04400E00D4E0FFFFFC
:00000001FF
