:020000040000FA
:060000000A128A110C280F
:10000800FE00030EF2000A08F3000A128A118A2879
:100018000A128A110F28F001F10183010A128A11CC
:1000280015280A128A114B200A128A110A128A11FB
:100038006B200A128A112028710803192428252800
:10004800312883120313861C2A282B2831280A12E8
:100058008A11AD200A128A113328F1013328700859
:10006800031937283828442883120313061C3D280F
:100078003E2844280A128A11A5200A128A1120282B
:10008800F0012028202820280A128A110C2883161B
:1000980003130F088F3930388F0083160317880130
:1000A80089018316031385018601880183120313CE
:1000B80086018801850103308316031386008B1798
:1000C8000B17161496148B150B106A280800831644
:1000D800031307159B3092003F30831203139705D3
:1000E8001708F0390C3897001B309500303097040A
:1000F8008C1003309204121581288C1C84288528C2
:1001080081288C1083160313071108000B1C8D28F7
:100118008E289E2883120313061C93289428962859
:10012800F001F00A861C99289A289C28F101F10A06
:100138000B109E2873088A00720E8300FE0E7E0E36
:100148000900CF3083120313970503309500AC28BC
:10015800080030308312031397040D309500B4283B
:0201680008008D
:04400E00D4E0FFFFFC
:00000001FF
