:020000040000FA
:060000000A128A1110280B
:10000800FE00030E83120313A6000408A7000A08C3
:10001800A8000A168A11562B0A128A111328831669
:1000280003170A128A11F8270A128A11A1000A1264
:100038008A11F9270A128A11A2000A128A11FA27CC
:100048000A128A11A3000A128A11FB270A128A11BE
:10005800A40083120313E101E201E301E401E501D5
:10006800E601F001F101F201F301F401F501F601F5
:1000780083010A128A15022A831203134B08803956
:10008800D000500883160313A000831203134B08F3
:10009800D0005007D100510883160313A60083121D
:1000A8000313CA1F582859285C28831603132614DB
:1000B8008316031326080319622863287528260A5D
:1000C800031D672868287228003083120313CB00A9
:1000D8000030CA000030C9000030C8008312CA17B7
:1000E8007F28003083120313CB000030CA00003091
:1000F800C9000030C8004F088039D0005008831666
:100108000313A006831203134F08D0005007D10031
:10011800510883160313A10083120313CE1F9528D9
:10012800962899288316031321148316031321088C
:1001380003199F28A028B228210A031DA428A5284E
:10014800AF28003083120313CF000030CE000030F8
:10015800CD000030CC008312CE17BC2800308312AB
:100168000313CF000030CE000030CD000030CC00AB
:100178008316031321080319C228C328C828260890
:10018800031DC728C828D328003083120313CB00C7
:100198000030CA000030C9000030C8009E2D83120C
:1001A80003134808D0005008A9004E080A168A11FF
:1001B80052220A128A11831203132A088316031380
:1001C800AC0083120313290883160313AB002B0812
:1001D80083120313D000D101D201D301530883162F
:1001E8000313A50083120313520883160313A400F4
:1001F80083120313510883160313A30083120313F6
:10020800500883160313A2002C0883120313D0008E
:10021800D101D201D301530883160313AA00831214
:100228000313520883160313A900831203135108FA
:1002380083160313A80083120313500883160313AD
:10024800A700831203134908D0005008A9004D08DD
:100258000A168A1152220A128A11831203132A08D3
:1002680083160313AC0083120313290883160313A0
:10027800AB002B0883120313D000D101D201D301A4
:10028800500883160313A20783120313510803119E
:100298000318013E0319532983160313A307831276
:1002A8000313520803110318013E03195E2983162C
:1002B8000313A40783120313530803110318013E01
:1002C8000319692983160313A507831203138316D9
:1002D80003132C0883120313D000D101D201D301D8
:1002E800500883160313A707831203135108031139
:1002F8000318013E0319832983160313A8078312E1
:100308000313520803110318013E03198E2983169B
:100318000313A90783120313530803110318013E9B
:100328000319992983160313AA0783120313831643
:100338000313831203134A08D0005008A9004C087D
:100348000A168A1152220A128A11831203132A08E2
:1003580083160313AC0083120313290883160313AF
:10036800AB002B0883120313D000D101D201D301B3
:10037800500883160313A2078312031351080311AD
:100388000318013E0319CB2983160313A30783120D
:100398000313520803110318013E0319D6298316C3
:1003A8000313A40783120313530803110318013E10
:1003B8000319E12983160313A50783120313831670
:1003C80003132C0883120313D000D101D201D301E7
:1003D800500883160313A707831203135108031148
:1003E8000318013E0319FB2983160313A807831278
:1003F8000313520803110318013E0319062A831632
:100408000313A90783120313530803110318013EAA
:100418000319112A83160313AA07831203138316D9
:100428000313083083120313D00003108316031339
:10043800A20DA30DA40DA50D83120313D00B192A29
:100448004908D0005008A9004C080A168A115222FF
:100458000A128A11831203132A0883160313AC00A5
:1004680083120313290883160313AB002B08831286
:100478000313D000831603132C0883120313D1002F
:10048800D201D301500883160313A2078312031362
:10049800510803110318013E0319552A8316031343
:1004A800A30783120313520803110318013E03190B
:1004B800602A83160313A407831203135308031136
:1004C8000318013E03196B2A83160313A507831229
:1004D800031383160313831203134808D00050082C
:1004E800A9004D080A168A1152220A128A1183128B
:1004F80003132A0883160313AC0083120313290875
:1005080083160313AB002B0883120313D000831642
:1005180003132C0883120313D100D201D30150080E
:1005280083160313A2078312031351080311031838
:10053800013E0319A22A83160313A3078312031388
:10054800520803110318013E0319AD2A8316031339
:10055800A40783120313530803110318013E031958
:10056800B82A83160313A5078312031383160313EC
:10057800083083120313D000031083160313A20D4F
:10058800A30DA40DA50D83120313D00BC02A480890
:10059800D0005008A9004C080A168A1152220A12E3
:1005A8008A11831203132A0883160313AC008312DB
:1005B8000313290883160313AB002B0883120313B4
:1005C800D000831603132C0883120313D100D20121
:1005D800D301500883160313A2078312031351088B
:1005E80003110318013E0319FC2A83160313A307FA
:1005F80083120313520803110318013E0319072B32
:1006080083160313A4078312031353080311031853
:10061800013E0319122B83160313A5078312031334
:1006280083160313831203134908D0005008A90046
:100638004E080A168A1152220A128A1183120313CB
:100648002A0883160313AC008312031329088316A0
:100658000313AB002B0883120313D0008316031374
:100668002C0883120313D100D201D301500883163A
:100678000313A70783120313510803110318013E3C
:100688000319492B83160313A8078312031352086F
:1006980003110318013E0319542B83160313A907EA
:1006A80083120313530803110318013E03195F2B28
:1006B80083160313AA0783120313831603138312E3
:1006C80003134A08D0005008A9004D080A168A11D9
:1006D80052220A128A11831203132A08831603135B
:1006E800AC0083120313290883160313AB002B08ED
:1006F80083120313D000831603132C0883120313E9
:10070800D100D201D301500883160313A70783121F
:100718000313510803110318013E0319962B83167E
:100728000313A80783120313520803110318013E89
:100738000319A12B83160313A90783120313530864
:1007480003110318013E0319AC2B83160313AA07E0
:100758008312031383160313831203134A08D0006A
:100768005008A9004E080A168A1152220A128A1144
:10077800831203132A0883160313AC00831203138E
:10078800290883160313AB002B0883120313D00028
:10079800831603132C0883120313D100D201D3014B
:1007A80008300310D00DD10DD20DD30DFF3E031D1F
:1007B800D52B500883160313A70783120313510878
:1007C80003110318013E0319EC2B83160313A80722
:1007D80083120313520803110318013E0319F72B60
:1007E80083160313A907831203135308031103186D
:1007F800013E0319022C83160313AA07831203135D
:1008080083160313220883120313D00083160313DD
:10081800230883120313D1008316031324088312B9
:100828000313D20083160313250883120313D3007E
:1008380018300310D30CD20CD10CD00CFF3E031D82
:100848001D2C500883160313A7078312031351089E
:1008580003110318013E0319342C83160313A80748
:1008680083120313520803110318013E03193F2C86
:1008780083160313A90783120313530803110318DC
:10088800013E03194A2C83160313AA078312031384
:1008980083160313083083120313D0000310831642
:1008A8000313A20DA30DA40DA50D83120313D00BE2
:1008B800522C831603132608210783120313D00032
:1008C800D101D10D5008823E83160313AB00831269
:1008D800031351080318013EFF3E83160313AC00AF
:1008E800A22C013083120313D000031083160313C4
:1008F800A70DA80DA90DAA0D83120313D00B792CEF
:1009080083160313A51F892C8A2C8B2C27140130DE
:1009180083120313D000031083160313A20DA30D33
:10092800A40DA50D83120313D00B8F2CFF30831653
:100938000313AB070318AC0AFF30AC07A91FA52C9B
:10094800A62C752CA101A51FAA2CAB2CD92CFF30E5
:10095800220583120313D000FF30831603132305E7
:1009680083120313D100FF30831603132405831267
:100978000313D2007F308316031325058312031354
:10098800D30053085204510450040319CC2CCD2C25
:10099800D22C83160313A101A10AD92C83160313A1
:1009A800271CD72CD82CD92CCD2C21080319DD2CA9
:1009B800DE2C2B2D0130A707003003180130A807C3
:1009C800003003180130A907003003180130AA07C6
:1009D8002A1CEF2CF02C2B2D270883120313D00090
:1009E80083160313280883120313D10083160313F5
:1009F800290883120313D200831603132A088312CB
:100A08000313D3000130D400530DD30CD20CD10CF6
:100A1800D00CD40B082D530883160313AA00831295
:100A28000313520883160313A900831203135108F2
:100A380083160313A80083120313500883160313A5
:100A4800A7000130AB070318AC0A0030AC072C082C
:100A5800803AFF0080307F02031D342DFF302B02C7
:100A6800031C372D382D432D7F3083160313AA001E
:100A78008030A9000030A8000030A700802D831620
:100A880003132C08803AFF0080307F02031D4E2D8F
:100A980001302B020318512D522D5E2D0030831684
:100AA8000313AA000030A9000030A8000030A700F6
:100AB800A001802D831603132B0883120313D00083
:100AC800500883160313A600FF30A705FF30A805BA
:100AD8007F30A9050030AA05261C732D742D752DAD
:100AE800A917260883120313D0000310500CD10055
:100AF800510883160313AA00200883120313D00099
:100B0800500883160313AA042A0883120313CB0080
:100B180083160313290883120313CA0083160313C9
:100B2800280883120313C9008316031327088312A6
:100B38000313C80008008312031330088039B1007A
:100B48003108BA003008B1003107B2003208C100DC
:100B5800AF1FAF2DB02DB12D411441080319B52D8C
:100B6800B62DC62D410A031DBA2DBB2DC32D00304D
:100B7800B0000030AF000030AE000030AD00AF175D
:100B8800B001CE2D0030B0000030AF000030AE0014
:100B98000030AD002C088039B1003108BA062C08A5
:100BA800B1003107B2003208C200AB1FDC2DDD2DC9
:100BB800DE2D421442080319E22DE32DF32D420ADB
:100BC800031DE72DE82DF02D0030AC000030AB0000
:100BD8000030AA000030A900AB17AC01FB2D003093
:100BE800AC000030AB000030AA000030A9002C088F
:100BF8002B042A042904031D022E032E1C2E003068
:100C0800B0000030AF000030AE000030AD008030E2
:100C1800AF047F30B0043A08B1003108B00430089E
:100C2800AC002F08AB002E08AA002D08A9007B2FC6
:100C38004108031D202E212E2A2E0030AC00003042
:100C4800AB000030AA000030A9007B2F4108B1009A
:100C5800B2013208B40042083102B300031CB403E5
:100C680033087F3EBB0034080318013E003EBC0039
:100C78003008B9002F08B8002E08B7002D08B600B4
:100C88000030B0000030AF000030AE000030AD00E2
:100C98000030C0000030BF000030BE000030BD0092
:100CA800C201A02E420803195A2E5B2E7B2E01305A
:100CB800B1000310B60DB70DB80DB90DB10B5D2E0F
:100CC8000130B1000310AD0DAE0DAF0DB00DB10B7D
:100CD800662EC01F702E712E722E2D140130B10099
:100CE8000310BD0DBE0DBF0DC00DB10B742E2C0829
:100CF8003902031D892E2B083802031D892E2A0864
:100D08003702031D892E29083602031C8C2E8D2ECE
:100D18009C2E40172908B6022A08031C2A0FB7027E
:100D28002B08031C2B0FB8022C08031C2C0FB9022C
:100D38000130B1003108C2071A304202031CA52E47
:100D4800A62E562E39083804370436040319AD2E5A
:100D5800AE2ECD2E3D14CD2E0130B1000310AD0DB9
:100D6800AE0DAF0DB00DB10BB22EC01FBC2EBD2EF7
:100D7800BE2E2D140130B1000310BD0DBE0DBF0DE8
:100D8800C00DB10BC02EFF30BB070318BC0AFF30E3
:100D9800BC07AF1FD02ED12EB02EC201C01FD52E3A
:100DA800D62EF22EFF303D05B100FF303E05B200D1
:100DB800FF303F05B3007F304005B40034083304EA
:100DC800320431040319E92EEA2EED2EC201C20ABB
:100DD800F22E2D1CF02EF12EF22EEA2E42080319C7
:100DE800F62EF72E282F0130AD07003003180130FA
:100DF800AE07003003180130AF0700300318013088
:100E0800B007301C082F092F282F2D08B1002E08F5
:100E1800B2002F08B3003008B4000130B500340D1B
:100E2800B40CB30CB20CB10CB50B132F3408B000D2
:100E38003308AF003208AE003108AD000130BB07FF
:100E48000318BC0A0030BC073C08803AFF00803019
:100E58007F02031D312FFF303B02031C342F352F37
:100E6800432FFF3083120313BB000030BC00003057
:100E7800B0000030AF000030AE000030AD0083128B
:100E880003133C08803AFF0080307F02031D4E2F79
:100E980001303B020318512F522F5F2F8312031387
:100EA800BB01BC010030B0000030AF000030AE0024
:100EB8000030AD00BA01831203133B08B1003108BA
:100EC800C100411C682F692F6B2FAF176F2F7F3020
:100ED800B1003108AF054108B1000310310CB20070
:100EE8003208B0003A08B1003108B004132E0800E7
:100EF800003083120313B9000030B8000030B70087
:100F08000030B6008518892F8A2F862FB501051461
:100F1800000083120313051000000130831203132D
:100F2800AD000310B60DB70DB80DB90DAD0B952F6B
:100F3800050C0139AD00AE01AF01B0013008B400B5
:100F48002F08B3002E08B2002D08B100310836046E
:100F5800AD0032083704AE0033083804AF00340857
:100F68003904B0003008B9002F08B8002E08B700BF
:100F78002D08B6000130AD002D08B5071830350230
:100F8800031CC72FC82F8B2F0514000083120313CF
:100F980005100030AD000030AE000030AF008030EA
:100FA800B0003608AD0737080318370FDC2FDD2FE0
:100FB800AE0738080318380FE22FE32FAF073908B8
:100FC8000318390AB0073008B9002F08B8002E08EE
:100FD800B7002D08B6003908AC003808AB00370850
:100FE800AA003608A900080033343334B3343E3439
:10100800FD007B0884000008031D0B280C28172806
:101018007B0884000008013EFC007B0884007C08F3
:1010280080007D085F287B0884000003031D1D28BD
:101038001E2829287B0884000008013EFC007B0844
:1010480084007C08800077085F287B0884000230D1
:101058000006031D302831283C287B08840000083E
:10106800013EFC007B0884007C08800078085F282B
:101078007B08840003300006031D432844284F28BA
:101088007B0884000008013EFC007B0884007C0883
:10109800800079085F287B08840004300006031D5F
:1010A800562857285C287B08840080017A085F2826
:1010B8007B0884000008080083120313C20042085A
:1010C8000319672868287C28BD1F6B286C287C2892
:1010D8003A09C4003B09C5003C09C6003D09C700E0
:1010E800C40A0319C50A0319C60A0319C70A8428BA
:1010F8003D08C7003C08C6003B08C5003A08C400C4
:101108003D083C043B043A04031D8B288C28952891
:101118000030BD000030BC000030BB000030BA0019
:101128001B299630BE003E08C300A7280130BE0028
:101138003E08C30701300310C70CC60CC50CC40C0D
:10114800FF3E031D9F28FE304705031DAC28AD2830
:101158009A28C9280130BE003E08C3070130C407D9
:10116800003003180130C507003003180130C607E6
:10117800003003180130C70701300310C70CC60C34
:10118800C50CC40CFF3E031DC128FF304705031DD5
:10119800CE28CF28AE28DB280130C3020130BE009C
:1011A8000310C40DC50DC60DC70DBE0BD428C61B34
:1011B800DE28DF28E528023043020318E428E52862
:1011C800D0284318E828E928F128FF30C405FF3063
:1011D800C5057F30C605FF30C7050310C30C43089B
:1011E800BE00BF01C001C10118300310BE0DBF0D04
:1011F800C00DC10DFF3E031DF9283E08C4043F0879
:10120800C5044008C6044108C704420803190D294B
:101218000E291329BD1F112912291329C717470899
:10122800BD004608BC004508BB004408BA000800D9
:101238000A128A117C270A128A15831203132C08B2
:1012480083160313D400831203132B088316031386
:10125800D300831203132A0883160313D2008312C0
:101268000313290883160313D100D5015408D000AD
:101278005308CF005208CE005108CD000A128A1137
:101288007C270A128A15831203132C08BD002B0829
:10129800BC002A08BB002908BA0000300A128A15C7
:1012A80060200A128A15831203133D08CF003C08F8
:1012B800CE003B08CD003A08CC003E30CB00B3301E
:1012C800CA003330C9003330C8000A128A114020DE
:1012D8000A128A15831203134B0883160313B400EA
:1012E800831203134A0883160313B30083120313EC
:1012F800490883160313B2008312031348088316A0
:101308000313B100500883120313BD00831603139F
:101318004F0883120313BC00831603134E0883126D
:101328000313BB00831603134D0883120313BA007B
:1013380000300A128A1560200A128A1583120313D4
:101348003D08CF003C08CE003B08CD003A08CC0051
:101358003F30CB002630CA006630C9006630C8006E
:101368000A128A1140200A128A15831203134B08A5
:1013780083160313B000831203134A08831603135A
:10138800AF0083120313490883160313AE008312B8
:101398000313480883160313AD000A168A11822422
:1013A8000A128A15831603133008C0002F08BF00DD
:1013B8002E08BE002D08BD000A168A11DA220A126C
:1013C8008A15831603134008D4003F08D3003E084B
:1013D800D2003D08D1000130CC004C08D5071430AC
:1013E8005502031CF829F9293A295408CB00530857
:1013F800CA005208C9005108C80008000A168A1114
:101408007B220A128A15831603171B0897001A08ED
:10141800960019089500180894000A128A117C276A
:101428000A128A15831203132C08BD002B08BC006E
:101438002A08BB002908BA0000300A128A15602061
:101448000A128A15831203133D08CF003C08CE0008
:101458003B08CD003A08CC003F30CB002630CA000C
:101468006630C9006630C8000A128A1140200A1284
:101478008A15831203134B0883160313B4008312CF
:1014880003134A0883160313B3008312031349088E
:1014980083160313B2008312031348088316031339
:1014A800B10083160317170883120313BD008316B0
:1014B8000317160883120313BC00831603171508B5
:1014C80083120313BB008316031714088312031334
:1014D800BA0000300A128A1560200A128A1583128F
:1014E80003133D08CF003C08CE003B08CD003A0866
:1014F800CC003E30CB00B330CA003330C9003330A3
:10150800C8000A128A1140200A128A15831203138E
:101518004B0883160313B000831203134A0883167B
:101528000313AF0083120313490883160313AE0095
:1015380083120313480883160313AD000A168A1191
:1015480082240A128A15831603133008C0002F0854
:10155800BF002E08BE002D08BD000A168A11DA2227
:101568000A128A15831603134008831603179B0073
:10157800831603133F08831603179A008316031371
:101588003E08831603179900831603133D08831634
:101598000317980083120313640883160313CB0000
:1015A80083120313630883160313CA0083120313F9
:1015B800620883160313C900831203136108831694
:1015C8000313C80083160317130883160313CF00E9
:1015D80083160317120883160313CE008316031706
:1015E800110883160313CD008316031710088316FA
:1015F8000313CC007530831603179C001C08831650
:101608000313D0007430831603179D001D0883163A
:101618000313D1007330831603179E001E08831628
:101628000313D2007230831603179F001F08831616
:101638000313D300713083160317A0002008831604
:101648000313D4000A128A155A230A128A15760837
:10165800031D2F2B302B482B831603171B088312CF
:101668000313E400831603171A0883120313E30015
:1016780083160317190883120313E200831603174E
:10168800180883120313E1000230831603179E0023
:1016980045309D00A9309C009C0B502B9D0B502B76
:1016A8009E0B502B072A0A128A1110283D308312EC
:1016B8000313CB006130CA006430C9002D30C80064
:1016C800003083160313D500FE30D600FF30D70054
:1016D800FF30D8004808D9004908DA004A08DB007A
:1016E8004B08DC004C08D9024D08031C4D0F7D2B1C
:1016F8007E2BDA024E08031C4E0F832B842BDB0251
:101708004F08031C4F0F892B8A2BDC025908D50779
:101718005A0803185A0F912B922BD6075B08031807
:101728005B0F972B982BD7075C0803185C0AD80720
:10173800580883120313BD00831603135708831236
:101748000313BC0083160313560883120313BB004C
:1017580083160313550883120313BA0000300A12C4
:101768008A1560200A128A15831203133D08CF00D8
:101778003C08CE003B08CD003A08CC000A128A117A
:1017880040200A128A15831203134B088316031389
:10179800EE00831203134A0883160313ED00831225
:1017A8000313490883160313EC0083120313480834
:1017B80083160313EB006E0883120313AC00831621
:1017C80003136D0883120313AB00831603136C080D
:1017D80083120313AA00831603136B0883120313DF
:1017E800A9000030B0000030AF000030AE0000307B
:1017F800AD000A168A11DE230A128A15031C052C6D
:10180800062CDA2F831603136E0883120313B00015
:10181800831603136D0883120313AF008316031393
:101828006C0883120313AE00831603136B0883122C
:101838000313AD004630AC001C30AB004030AA00AA
:101848000030A9000A128A119F250A128A158312EC
:1018580003132C0883160313C000831203132B08E9
:1018680083160313BF00831203132A088316031376
:10187800BE0083120313290883160313BD000A163A
:101888008A11DA220A128A15831603133D08D50035
:101898005508EA006E0883120313B0008316031379
:1018A8006D0883120313AF00831603136C088312A9
:1018B8000313AE00831603136B0883120313AD00E2
:1018C8004430AC007A30AB000030AA000030A900E8
:1018D8000A128A119F250A128A15831203132C08EB
:1018E80083160313BC00831203132B0883160313F8
:1018F800BB00831203132A0883160313BA0083124A
:101908000313290883160313B9000A30831203133B
:10191800AB000030AC00831603136A08D500D6016B
:10192800550883120313A90083160313560883125C
:101938000313AA000A168A112B220A128A15831287
:1019480003132908BA002A08BB000030BB1BFF306C
:10195800BC00BD0001300A128A1560200A128A15DF
:10196800831203133D0883160313B800831203136D
:101978003C0883160313B700831203133B0883162E
:101988000313B600831203133A0883160313B50032
:101998000A168A1107220A128A15831603133808B1
:1019A800C0003708BF003608BE003508BD000A165B
:1019B8008A11DA220A128A15831603133D08D70002
:1019C8005708E9006E0883120313B0008316031347
:1019D8006D0883120313AF00831603136C08831278
:1019E8000313AE00831603136B0883120313AD00B1
:1019F8004230AC00C830AB000030AA000030A9006B
:101A08000A128A119F250A128A15831203132C08B9
:101A180083160313BC00831203132B0883160313C6
:101A2800BB00831203132A0883160313BA00831218
:101A38000313290883160313B900643083120313B0
:101A4800AB000030AC00831603136A08D500D6013A
:101A5800550883120313A90083160313560883122B
:101A68000313AA000A168A112B220A128A15831256
:101A78000313290883160313D700831203132A08B4
:101A880083160313D8000A3083120313AB00003007
:101A9800AC00831603136908D900DA0159088312C8
:101AA8000313A900831603135A0883120313AA0009
:101AB8000A168A112B220A128A158312031329087F
:101AC800831603135707DB00831203132A0803182E
:101AD8002A0A831603135807DC005B0883120313D2
:101AE800BA00831603135C0883120313BB0000308B
:101AF800BB1BFF30BC00BD0001300A128A156020F4
:101B08000A128A15831203133D0883160313B800BB
:101B1800831203133C0883160313B70083120313BD
:101B28003B0883160313B600831203133A0883167F
:101B38000313B5000A168A1107220A128A1583169A
:101B480003133808C0003708BF003608BE00350840
:101B5800BD000A168A11DA220A128A15831603139F
:101B68003D08DD005D08E8006E0883120313B0002D
:101B7800831603136D0883120313AF008316031330
:101B88006C0883120313AE00831603136B088312C9
:101B98000313AD004130AC002030AB000030AA0088
:101BA8000030A9000A128A119F250A128A15831289
:101BB80003132C0883160313BC00831203132B088A
:101BC80083160313BB00831203132A088316031317
:101BD800BA0083120313290883160313B900E830E7
:101BE80083120313AB000330AC00831603136A0897
:101BF800D500D601550883120313A90083160313D1
:101C0800560883120313AA000A168A112B220A12F5
:101C18008A1583120313290883160313D700831226
:101C280003132A0883160313D8006430831203139E
:101C3800AB000030AC00831603136908D900DA0141
:101C4800590883120313A900831603135A08831231
:101C58000313AA000A168A112B220A128A15831264
:101C680003132908831603135707DB008312031392
:101C78002A0803182A0A831603135807DC000A30B7
:101C880083120313AB000030AC00831603136808FB
:101C9800DD00DE015D0883120313A9008316031318
:101CA8005E0883120313AA000A168A112B220A124D
:101CB8008A15831203132908831603135B07DF00B1
:101CC800831203132A0803182A0A831603135C07CE
:101CD800E0005F0883120313BA0083160313600839
:101CE80083120313BB000030BB1BFF30BC00BD00D8
:101CF80001300A128A1560200A128A15831203130A
:101D08003D0883160313B800831203133C08831697
:101D18000313B700831203133B0883160313B6009B
:101D2800831203133A0883160313B5000A168A119F
:101D380007220A128A15831603133808C0003708C9
:101D4800BF003608BE003508BD000A168A11DA221F
:101D58000A128A15831603133D08E1006108E7009B
:101D68006E0883120313B000831603136D088312E1
:101D78000313AF00831603136C0883120313AE001A
:101D8800831603136B0883120313AD003F30AC00B6
:101D98008030AB000030AA000030A9000A128A1176
:101DA8009F250A128A15831203132C08831603131E
:101DB800BC00831203132B0883160313BB00831282
:101DC80003132A0883160313BA008312031329087E
:101DD80083160313B900103083120313AB002730A6
:101DE800AC00831603136A08D500D6015508831280
:101DF8000313A90083160313560883120313AA00BA
:101E08000A168A112B220A128A158312031329082B
:101E180083160313D700831203132A0883160313A8
:101E2800D800E83083120313AB000330AC008316EC
:101E380003136908D900DA01590883120313A900AA
:101E4800831603135A0883120313AA000A168A1169
:101E58002B220A128A1583120313290883160313E7
:101E68005707DB00831203132A0803182A0A83166C
:101E780003135807DC00643083120313AB000030EF
:101E8800AC00831603136808DD00DE015D088312C9
:101E98000313A900831603135E0883120313AA0011
:101EA8000A168A112B220A128A158312031329088B
:101EB800831603135B07DF00831203132A08031832
:101EC8002A0A831603135C07E0000A3083120313FF
:101ED800AB000030AC00831603136708E100E20191
:101EE800610883120313A90083160313620883127F
:101EF8000313AA000A168A112B220A128A158312C2
:101F080003132908831603135F07E30083120313DF
:101F18002A0803182A0A831603136007E4006308D3
:101F280083120313BA00831603136408831203137E
:101F3800BB000030BB1BFF30BC00BD0001300A12E3
:101F48008A1560200A128A15831203133D08831626
:101F58000313B800831203133C0883160313B70056
:101F6800831203133B0883160313B600831203136B
:101F78003A0883160313B5000A168A1107220A12B3
:101F88008A15831603133808C0003708BF003608BF
:101F9800BE003508BD000A168A11DA220A128A150F
:101FA800831603133D08E5006508E600831603134E
:101FB8006A08303ED500500884005508800069083A
:101FC800303ED50051088400550880006808303E2E
:101FD800D50052088400550880006708303ED500B7
:101FE80053088400550880006608303ED500540820
:081FF800840055088000080078
:1023D60083120313A90029088316031393003630CA
:1023E6008312031394008030831603139400013084
:1023F6009100871507168B170B17831203138C1181
:10240600831603138C150800803083160313B80651
:102416003C08B0003B08AF003A08AE003908AD00F2
:102426003808B4003708B3003608B2003508B100E2
:102436000A168A1182240A168A1183160313300893
:10244600B8002F08B7002E08B6002D08B500080002
:1024560083120313AD01AE01291C322A332A392A0D
:102466002B08AD070318AE0A2C08AE07013003107F
:10247600AB0DAC0DFF3E031D3A2A01300310AA0C2A
:10248600A90CFF3E031D412A29082A04031D4C2AD4
:102496004D2A2F2A2E08AA002D08A900080083120B
:1024A6000313B100AD01AE012908AB00AC012B0846
:1024B600AF002C08B000311C612A622A682A2F0856
:1024C600AD070318AE0A3008AE0701300310AF0D92
:1024D600B00DFF3E031D692A0310B10C3108031D20
:1024E600752A762A5E2A2E08AA002D08A900080059
:1024F6000A168A11A9220A168A1183160313590885
:1025060083160317930083160313580883160317BD
:102516009200831603135708831603179100831638
:102526000313560883160317900013089B0012081E
:102536009A001108990010089800C0308B002030CE
:102546000A168A11EB210A168A110800831603134C
:1025560005108514831603178801831203130510CB
:10256600153083160313DC004B30DB00BD30DA0078
:10257600DA0BBB2ADB0BBB2ADC0BBB2AC22A0A12EC
:102586008A151C210A168A11831603134B08E000CC
:102596004A08DF004908DE004808DD006008D90067
:1025A6005F08D8005E08D7005D08D6000800031053
:1025B600831603133F0D400DC1004108C7004708AD
:1025C600031DE62AE72AF02A0030C0000030BF00CB
:1025D6000030BE000030BD00552B3D08C1003E084E
:1025E600C2003F08C3004008C4001F300310C40CDB
:1025F600C30CC20CC10CFF3E031DF92A4108C500DD
:102606004508C600BF17FF30BD05FF30BE05FF30C9
:10261600BF050030C0059630C702C71F132B142B09
:102626002E2B4708803A973E03181A2B1B2B1C2B80
:10263600E72A01300310C00CBF0CBE0CBD0CFF3ED8
:10264600031D1D2B0130C1004108C707031D2C2B9C
:102656002D2B1C2B452B20304702031C332B342BF0
:10266600402BE72A0130C1000310BD0DBE0DBF0D82
:10267600C00DC10B372B0130C7024708031D442B81
:10268600452B352B46080319492B4A2B552BBD09DB
:10269600BE09BF09C009BD0A0319BE0A0319BF0A4C
:1026A6000319C00A08008C1D592B5A2BD52B14125E
:1026B600141B5E2B5F2B632B941F622B632B6A2BE1
:1026C6001308A0002008E5001413941314168316AB
:1026D6000313941A6F2B702B902B1419732B742BD6
:1026E600902B831203131308A0002008E5008C1119
:1026F600141683160313141C812B822B7C2B831236
:1027060003131308A0002008E600523083120313B7
:10271600A000A00B8C2B0000D22B941A932B942B89
:10272600D22B141D972B982BD22B8312031313082D
:10273600A0002008E5008316031314107408831202
:102746000313A0002008F7007308A1002108F80071
:102756007208A2002208F9007108A3002308FA00F3
:102766007630A4002408FB0075080A128A15042096
:102776000A168A1183120313A5002508F0007008B3
:1027860093001416523083120313A000A00BC92B1A
:102796000000831603131418D12BD22BCC2B8312D3
:1027A60003138C1128088A0027088400260E83004C
:1027B600FE0E7E0E09000030831203132905B100B8
:1027C60000302A05B20080302B05B3007F302C057F
:1027D600B4003408330432043104031DF32BF42B04
:1027E600FC2B0030AC000030AB000030AA000030FB
:1027F600A90000302D05B10000302E05B200803052
:102806002F05B3007F303005B4003408330432049A
:102816003104031D0F2C102C182C0030B000003092
:10282600AF000030AE000030AD00AC1F1B2C1C2CDE
:10283600402C0030B1000030B2000030B3008030D0
:10284600B4002908B1022A08031C2A0F2B2C2C2CB1
:10285600B2022B08031C2B0F312C322CB3022C088E
:10286600031C2C0F372C382CB4023408AC00330868
:10287600AB003208AA003108A900B01F432C442C33
:10288600682C0030B1000030B2000030B300803058
:10289600B4002D08B1022E08031C2E0F532C542C05
:1028A600B2022F08031C2F0F592C5A2CB3023008E2
:1028B600031C300F5F2C602CB4023408B0003308C0
:1028C600AF003208AE003108AD008030AC06803073
:1028D600B00630082C02031D7A2C2F082B02031D8C
:1028E6007A2C2E082A02031D7A2C2D082902031899
:1028F6007D2C7E2C802C0310812C0314080083165B
:1029060003133008803983120313D5005508DD0000
:1029160083160313300883120313D5005507D60018
:102926005608DF0083160313AF1F9A2C9B2C9E2C90
:10293600831203135F1483125F080319A32CA42CBC
:10294600B82C5F0A031DA82CA92CB32C00308316C3
:102956000313B0000030AF000030AE000030AD0011
:1029660083160313AF17B001C22C0030831603136E
:10297600B0000030AF000030AE000030AD003408CB
:10298600803983120313D5005508DE005E085D0604
:102996000319CE2CCF2CD02C5D17831603133408C5
:1029A60083120313D5005507D6005608DE0083169A
:1029B6000313B31FDF2CE02CE32C831203135E14E6
:1029C60083125E080319E82CE92CFD2C5E0A031D10
:1029D600ED2CEE2CF82C003083160313B4000030D7
:1029E600B3000030B2000030B10083160313B317F2
:1029F600B401072D003083160313B4000030B30072
:102A06000030B2000030B100831203135F085E028B
:102A160003180E2D0F2D852D5D1F122D132D172D2D
:102A26008030D5005508DD065F08D5005508E00062
:102A36005E08D5005508DF006008D5005508DE00A1
:102A4600831603132D0883120313D5005508E000DF
:102A560083160313310883120313D5005508831612
:102A66000313AD00831203136008D50055088316BF
:102A76000313B1002E0883120313D5005508E00096
:102A860083160313320883120313D50055088316E1
:102A96000313AE00831203136008D500550883168E
:102AA6000313B2002F0883120313D5005508E00064
:102AB60083160313330883120313D50055088316B0
:102AC6000313AF00831203136008D500550883165D
:102AD6000313B300300883120313D5005508E00032
:102AE60083160313340883120313D500550883167F
:102AF6000313B000831203136008D500550883162C
:102B06000313B4008312E0015E08D500D60156080F
:102B1600D8005F085502D700031CD8035808803A2E
:102B2600FF0080307F02031D9A2D1A305702031CC6
:102B36009D2D9E2DEA2D8316031330082F042E0497
:102B46002D04031DA72DA92D0130AA2D00308312B7
:102B56000313D5005508E000003083160313B000B8
:102B66000030AF000030AE000030AD00831203131A
:102B76005E08D5005508DF00F22D601CC32DC42D5C
:102B8600CD2D6008D5000310550C0138D600560827
:102B9600E000CF2D0310E00C831603132D1CD42D5B
:102BA600D52DD82D83120313E01701308312D500DB
:102BB60083160313300DB00CAF0CAE0CAD0C8312A4
:102BC6000313D50BDB2D0130D5005508DF07831223
:102BD60003135E085F02031CF12DF22DC02D5D1B51
:102BE600F52DF62D502E5F08031DFA2DFB2D062E12
:102BF600003083160313B0000030AF000030AE0083
:102C06000030AD00FF2F831603133108AD073208DD
:102C160003110318013E0319112EAE0733080311E1
:102C26000318013E0319182EAF07340803110318C1
:102C3600013E03191F2EB007301C222E232E4F2FC4
:102C460083120313601C282E292E322E6008D5000D
:102C56000310550C0138D6005608E000342E031038
:102C6600E00C831603132D1C392E3A2E3D2E8312AB
:102C76000313E01701308312D50083160313300DBA
:102C8600B00CAF0CAE0CAD0C83120313D50B402E5B
:102C96000130D5005508DF074F2F83160313300880
:102CA600803AFF003408803A7F02031D642E330801
:102CB6002F02031D642E32082E02031D642E3108D6
:102CC6002D020318672E682EF82EFF308312031389
:102CD600D500FF30D600FF30D700FF30D80083166E
:102CE6000313310883120313D90083160313320822
:102CF60083120313DA0083160313330883120313B4
:102D0600DB0083160313340883120313DC008316D7
:102D160003132D0883120313D902831603132E08F7
:102D2600031C2E0F972E9A2E83120313DA02831694
:102D360003132F08031C2F0FA12EA42E8312031397
:102D4600DB02831603133008031C300FAB2EAE2EA6
:102D560083120313DC028316031383120313590829
:102D6600D5075A0803185A0FB92EBA2ED6075B088C
:102D760003185B0FBF2EC02ED7075C0803185C0A2A
:102D8600D807580883160313B00083120313570895
:102D960083160313AF008312031356088316031317
:102DA600AE0083120313550883160313AD0080305B
:102DB60083120313D5005508DD06E009E00A600812
:102DC600031DE62EE72E062F013083160313AD07EB
:102DD600003003180130AE07003003180130AF078A
:102DE600003003180130B007062F3108AD02320853
:102DF600031C320FAE023308031C330FAF02340834
:102E0600031C340FB0028316031330082F042E045C
:102E16002D04031D0F2F102F492F83120313600853
:102E2600031D162F172F492F003083160313B000EA
:102E36000030AF000030AE000030AD00FF2F013093
:102E460083120313D500031083160313AD0DAE0DC5
:102E5600AF0DB00D83120313D50B262FE01F342FB1
:102E6600352F382F831603132D148312601C3C2F25
:102E76003D2F402F0314E00D422F0310E00D5F0895
:102E86000319462F472F492F0130DF0283160313FC
:102E9600AF1F4E2F4F2F222F8312DE01E01F542F1C
:102EA600552F662F60087F3903195A2F5B2F5F2F26
:102EB6008312DE01DE0A662F831603132D1C642F90
:102EC600652F662F5B2F83125E0803196B2F6C2FFD
:102ED600C02F013083160313AD07003003180130ED
:102EE600AE07003003180130AF0700300318013079
:102EF600B007301C7F2F802FC02F2D08831203139D
:102F0600D500831603132E0883120313D6008316E7
:102F160003132F0883120313D700831603133008F5
:102F260083120313D8000130D900580DD80CD70CE2
:102F3600D60CD50CD90B982F580883160313B0005E
:102F460083120313570883160313AF008312031368
:102F5600560883160313AE0083120313550883160F
:102F66000313AD00831203135F0A0319BB2FBC2F93
:102F7600C02F0130D5005508DF0783125F0A0319F9
:102F8600C52FC62FCB2F5F08031DCA2FCB2FDD2FD2
:102F9600003083160313B0000030AF000030AE00DF
:102FA6000030AD00831203135F08031DDB2FDC2FF7
:102FB600DD2FDD015F1CE02FE12FE52F83160313C4
:102FC600AF17EB2F7F30D500550883160313AF05D7
:102FD600831203135F08D5000310550CD60056085C
:102FE60083160313B00083120313DD1FFB2FFC2F80
:0A2FF600FF2F83160313B017080025
:04400E00D4E0FFFFFC
:00000001FF
