:020000040000FA
:060000000A128A11F32F21
:10000E00F2008312031308138813720886008816F1
:10001E000630F1003030F000F00B1328F10B1328EE
:10002E0000008312031388120800F500F301F40197
:10003E0033287308750784000A128A1500200A12E5
:10004E008A110A128A15E9260A128A110130F3075B
:10005E000318F40A0030F4077308750784000A12B7
:10006E008A1500200A128A11003A031D3F284028E3
:10007E00202808000A128A15DE260A128A110A1290
:10008E008A15AF270A128A11003083120313C30098
:10009E000030C2000030C1000030C0006030D70018
:1000AE005708C4005F30D8005808C5005E30D9002C
:1000BE005908C6000A128A1144220A128A11033004
:1000CE0083120313D7005708F30001300A128A1562
:1000DE00FD260A128A1101300A128A111C200A12F8
:1000EE008A11083083120313D7005708F300023029
:1000FE000A128A15FD260A128A118312031360084A
:10010E000A128A15E9260A128A11831203135F084E
:10011E000A128A15E9260A128A110D300A128A115C
:10012E001C200A128A11831203135E080A128A1502
:10013E00E9260A128A1146280A128A11002800306E
:10014E00FC000030FB000030FA000030F9007308AC
:10015E007204710470040319B528B6280329FD0131
:10016E00FD0AC6280130F8000310F00DF10DF20D56
:10017E00F30DF80BBB280130F8007808FD07F31FCC
:10018E00C928CA28B9280130F8000310F90DFA0D54
:10019E00FB0DFC0DF80BCC2873087702031DE1282C
:1001AE0072087602031DE12871087502031DE1280D
:1001BE0070087402031CE428E528F4287008F40281
:1001CE007108031C710FF5027208031C720FF60200
:1001DE007308031C730FF702791401300310F30C2C
:1001EE00F20CF10CF00CFF3E031DF5280130FD0260
:1001FE00031D02290329CA287C08F3007B08F2009C
:10020E007A08F1007908F000080003108312031336
:10021E00370D380DB9003908BF003F08031D1829E6
:10022E00192922290030B8000030B7000030B6007E
:10023E000030B50087293508B9003608BA003708EE
:10024E00BB003808BC001F300310BC0CBB0CBA0C32
:10025E00B90CFF3E031D2B293908BD003D08BE0019
:10026E00B717FF30B505FF30B605FF30B7050030C4
:10027E00B8059630BF02BF1F4529462960293F08A1
:10028E00803A973E03184C294D294E2919290130E1
:10029E000310B80CB70CB60CB50CFF3E031D4F295E
:1002AE000130B9003908BF07031D5E295F294E29A9
:1002BE00772920303F02031C6529662972291929E6
:1002CE000130B9000310B50DB60DB70DB80DB90B51
:1002DE0069290130BF023F08031D76297729672956
:1002EE003E0803197B297C298729B509B609B70968
:1002FE00B809B50A0319B60A0319B70A0319B80AD9
:10030E00080083120313A000200803198F299029D7
:10031E00A429F91F93299429A4297609A200770903
:10032E00A3007809A4007909A500A20A0319A30A5B
:10033E000319A40A0319A50AAC297908A50078089F
:10034E00A4007708A3007608A20079087804770441
:10035E007604031DB329B429BD290030F9000030FD
:10036E00F8000030F7000030F600432A9630FA000D
:10037E007A08A100CF290130FA007A08A1070130CE
:10038E000310A50CA40CA30CA20CFF3E031DC72941
:10039E00FE302505031DD429D529C229F1290130A6
:1003AE00FA007A08A1070130A207003003180130C5
:1003BE00A307003003180130A407003003180130E2
:1003CE00A50701300310A50CA40CA30CA20CFF3E34
:1003DE00031DE929FF302505031DF629F729D62926
:1003EE00032A0130A1020130FA000310A20DA30D61
:1003FE00A40DA50DFA0BFC29A41B062A072A0D2A0B
:10040E000230210203180C2A0D2AF8292118102A6D
:10041E00112A192AFF30A205FF30A3057F30A4054B
:10042E00FF30A5050310A10C2108FA00FB01FC0109
:10043E00FD0118300310FA0DFB0DFC0DFD0DFF3EF6
:10044E00031D212A7A08A2047B08A3047C08A404B5
:10045E007D08A50420080319352A362A3B2AF91FE0
:10046E00392A3A2A3B2AA5172508F9002408F8004C
:10047E002308F7002208F6000800FF30831203134A
:10048E004005F600FF304105F700FF304205F80049
:10049E0000304305F90000300A128A1188210A1231
:1004AE008A11790883120313D4007808D3007708D1
:1004BE00D2007608D1000030F3000030F200003098
:1004CE00F1006430F0004308F7004208F6004108DE
:1004DE00F5004008F4000A128A11A6200A128A11A9
:1004EE00700883120313C7004708D6005408F7009C
:1004FE005308F6005208F5005108F4004130F3009D
:10050E002030F2000030F1000030F0000A128A11A3
:10051E0078230A128A11730883120313B400720827
:10052E00B3007108B2007008B1000A30F20000305A
:10053E00F3005608C700C8014708F0004808F1004C
:10054E000A128A1544270A128A117008F6007108D9
:10055E00F7000030F71BFF30F800F90001300A12E7
:10056E008A1188210A128A11790883120313B000A6
:10057E007808AF007708AE007608AD000A128A152B
:10058E0020270A128A11831203133008B8002F088D
:10059E00B7002E08B6002D08B5000A128A110C21DC
:1005AE000A128A11831203133508C9004908D500AF
:1005BE005408F7005308F6005208F5005108F400ED
:1005CE003F30F3008030F2000030F1000030F000D8
:1005DE000A128A1178230A128A11730883120313DE
:1005EE00B4007208B3007108B2007008B100643034
:1005FE00F2000030F3005608C700C8014708F000AB
:10060E004808F1000A128A1544270A128A11700846
:10061E0083120313C9007108CA000A30F2000030B9
:10062E00F3005508CB00CC014B08F0004C08F1004C
:10063E000A128A1544270A128A11700883120313AC
:10064E004907CD0071080318710A4A07CE004D08FC
:10065E00F6004E08F7000030F71BFF30F800F900E7
:10066E0001300A128A1188210A128A11790883121E
:10067E000313B0007808AF007708AE007608AD001F
:10068E000A128A1520270A128A11831203133008C0
:10069E00B8002F08B7002E08B6002D08B5000A12B4
:1006AE008A110C210A128A11831203133508CF0006
:1006BE004F08D0005608303EC70044088400470853
:1006CE00831380005508303EC70045088400470854
:1006DE0080005008303EC70046088400470880005E
:1006EE00080077088039F800780883120313A400F5
:1006FE007708F8007807F9007908AB00F61F882B09
:10070E00892B8A2B2B142B0803198E2B8F2B9F2BA7
:10071E002B0A031D932B942B9C2B0030F7000030DB
:10072E00F6000030F5000030F400F617F701A72BA5
:10073E000030F7000030F6000030F5000030F40015
:10074E0073088039F8007808A4067308F800780753
:10075E00F9007908AC00F21FB52BB62BB72B2C1471
:10076E002C080319BB2BBC2BCC2B2C0A031DC02B26
:10077E00C12BC92B0030F3000030F2000030F10025
:10078E000030F000F217F301D42B0030F3000030EC
:10079E00F2000030F1000030F000730872047104B2
:1007AE007004031DDB2BDC2BF52B0030F700003023
:1007BE00F6000030F5000030F4008030F6047F3093
:1007CE00F7042408F8007808F7047708F300760891
:1007DE00F2007508F1007408F0005A2D2B08031D65
:1007EE00F92BFA2B032C0030F3000030F20000300E
:1007FE00F1000030F0005A2D2B08F800F9017908AD
:10080E00FB002C087802FA00031CFB037A087F3EDB
:10081E00A5007B080318013E003EA6007708A30042
:10082E007608A2007508A1007408A0000030F70039
:10083E000030F6000030F5000030F4000030AA0061
:10084E000030A9000030A8000030A700AC017F2CBA
:10085E002C080319332C342C542C0130F8000310BF
:10086E00A00DA10DA20DA30DF80B362C0130F80032
:10087E000310F40DF50DF60DF70DF80B3F2CAA1F16
:10088E00492C4A2C4B2C74140130F8000310A70D80
:10089E00A80DA90DAA0DF80B4D2C73082302031DEC
:1008AE00622C72082202031D622C71082102031DA4
:1008BE00622C70082002031C652C662C7B2C2A17D8
:1008CE007008A0027108031C710F6E2C6F2CA10210
:1008DE007208031C720F742C752CA2027308031C71
:1008EE00730F7A2C7B2CA3020130F8007808AC072A
:1008FE001A302C02031C842C852C2F2C2308220446
:10090E002104200403198C2C8D2CAC2C2714AC2C18
:10091E000130F8000310F40DF50DF60DF70DF80B80
:10092E00912CAA1F9B2C9C2C9D2C74140130F8002A
:10093E000310A70DA80DA90DAA0DF80B9F2CFF30C3
:10094E00A5070318A60AFF30A607F61FAF2CB02C7A
:10095E008F2CAC01AA1FB42CB52CD12CFF3027053F
:10096E00F800FF302805F900FF302905FA007F3026
:10097E002A05FB007B087A04790478040319C82C35
:10098E00C92CCC2CAC01AC0AD12C741CCF2CD02C85
:10099E00D12CC92C2C080319D52CD62C072D01309F
:1009AE00F407003003180130F5070030031801304A
:1009BE00F607003003180130F707771CE72CE82CF8
:1009CE00072D7408F8007508F9007608FA00770804
:1009DE00FB000130FC007B0DFB0CFA0CF90CF80C43
:1009EE00FC0BF22C7B08F7007A08F6007908F5006C
:1009FE007808F4000130A5070318A60A0030A607F0
:100A0E002608803AFF0080307F02031D102DFF3034
:100A1E002502031C132D142D222DFF3083120313D8
:100A2E00A5000030A6000030F7000030F6000030C0
:100A3E00F5000030F400831203132608803AFF00FD
:100A4E0080307F02031D2D2D013025020318302D1D
:100A5E00312D3E2D83120313A501A6010030F700A0
:100A6E000030F6000030F5000030F400A4018312CF
:100A7E0003132508F8007808AB002B1C472D482DD2
:100A8E004A2DF6174E2D7F30F8007808F6052B0804
:100A9E00F8000310780CF9007908F7002408F80024
:100AAE007808F704EC2B08007308803983120313BF
:100ABE00A0002008F8007308A0002007A10021085C
:100ACE00FA00F21F6B2D6C2D6D2D7A147A08031916
:100ADE00712D722D822D7A0A031D762D772D7F2D85
:100AEE000030F3000030F2000030F1000030F00072
:100AFE00F217F3018A2D0030F3000030F2000030BF
:100B0E00F1000030F00077088039A0002008F900CD
:100B1E00790878060319942D952D962D7817770858
:100B2E00A0002007A1002108F900F61F9F2DA02D7F
:100B3E00A12D791479080319A52DA62DB62D790AA4
:100B4E00031DAA2DAB2DB32D0030F7000030F6009B
:100B5E000030F5000030F400F617F701BE2D00301E
:100B6E00F7000030F6000030F5000030F4007A088F
:100B7E0079020318C32DC42D082E781FC72DC82D3A
:100B8E00CC2D8030A0002008F8067A08A00020089E
:100B9E00FB007908A0002008FA007B08A0002008BE
:100BAE00F9007008A0002008FB007408A0002008BF
:100BBE00F0007B08A0002008F4007108A0002008B7
:100BCE00FB007508A0002008F1007B08A00020089B
:100BDE00F5007208A0002008FB007608A00020088F
:100BEE00F2007B08A0002008F6007308A000200881
:100BFE00FB007708A0002008F3007B08A000200867
:100C0E00F700FB017908A000A1012108A3007A08D2
:100C1E002002A200031CA3032308803AFF008030A9
:100C2E007F02031D1C2E1A302202031C1F2E202EA3
:100C3E00612E7308720471047004031D272E292E71
:100C4E0001302A2E003083120313A0002008FB006F
:100C5E000030F3000030F2000030F1000030F00000
:100C6E007908A0002008FA00672E7B1C3F2E402E2C
:100C7E004B2E7B0883120313A0000310200C0138A7
:100C8E00A1002108FB004D2E0310FB0C701C502EF2
:100C9E00512E522EFB17013083120313A000730D39
:100CAE00F30CF20CF10CF00CA00B562E0130A00040
:100CBE002008FA0779087A02031C662E672E3C2E4E
:100CCE00781B6A2E6B2EBA2E7A08031D6F2E702E8D
:100CDE00792E0030F3000030F2000030F1000030C9
:100CEE00F000F22F7408F007750803110318013E87
:100CFE000319822EF107760803110318013E03191A
:100D0E00892EF207770803110318013E0319902E5E
:100D1E00F307731C932E942E722F7B1C972E982EF6
:100D2E00A32E7B0883120313A0000310200C01389E
:100D3E00A1002108FB00A52E0310FB0C701CA82E91
:100D4E00A92EAA2EFB17013083120313A000730DD8
:100D5E00F30CF20CF10CF00CA00BAE2E0130A00037
:100D6E002008FA07722F7308803AFF007708803A3E
:100D7E007F02031DCC2E76087202031DCC2E750841
:100D8E007102031DCC2E740870020318CF2ED02EC4
:100D9E002A2FFF3083120313A000FF30A100FF3073
:100DAE00A200FF30A3007408A4007508A500760801
:100DBE00A6007708A7007008A4027108031C710F23
:100DCE00E92EEA2EA5027208031C720FEF2EF02EEA
:100DDE00A6027308031C730FF52EF62EA702240825
:100DEE00A00725080318250FFD2EFE2EA1072608A5
:100DFE000318260F032F042FA20727080318270A0C
:100E0E00A3072308F3002208F2002108F1002008AE
:100E1E00F0008030A0002008F806FB09FB0A7B08D2
:100E2E00031D1A2F1B2F382F0130F0070030031827
:100E3E000130F107003003180130F20700300318BB
:100E4E000130F307382F7408F0027508031C750F74
:100E5E00F1027608031C760FF2027708031C770F57
:100E6E00F3027308720471047004031D3F2F402FA8
:100E7E006E2F7B08031D442F452F6E2F0030F3007D
:100E8E000030F2000030F1000030F000F22F01309F
:100E9E0083120313A0000310F00DF10DF20DF30DEC
:100EAE00A00B522FFB1F5C2F5D2F5E2F70147B1C2F
:100EBE00612F622F652F0314FB0D672F0310FB0D9F
:100ECE007A0803196B2F6C2F6E2F0130FA02F21F66
:100EDE00712F722F4E2FF901FB1F762F772F852F33
:100EEE007B087F3903197C2F7D2F802FF901F90A9A
:100EFE00852F701C832F842F852F7D2F7908031942
:100F0E00892F8A2FC02F0130F007003003180130CF
:100F1E00F107003003180130F207003003180130DA
:100F2E00F307731C9B2F9C2FC02F70088312031383
:100F3E00A0007108A1007208A2007308A30001307E
:100F4E00A400230DA30CA20CA10CA00CA40BA82F83
:100F5E002308F3002208F2002108F1002008F00017
:100F6E007A0A0319BB2FBC2FC02F0130A000200816
:100F7E00FA077A0A0319C42FC52FCA2F7A08031D40
:100F8E00C92FCA2FD82F0030F3000030F2000030E6
:100F9E00F1000030F0007A08031DD62FD72FD82F7E
:100FAE00F8017A1CDB2FDC2FDE2FF217E42F7F30B7
:100FBE0083120313A0002008F2057A08831203138C
:100FCE00A0000310200CA1002108F300F81FF02F41
:100FDE00F12FF22FF317080083120313DA01DB014E
:100FEE00DC01DD01DE01DF01E00183010A128A115D
:100FFE00412808308A000408840A820700347434B9
:10100E0065346D34703465347234613474347534CF
:0A101E007234613400342E340034C3
:101DAA008316031305108514831203138510051077
:101DBA0008000A128A1569270A128A150A128A1550
:101DCA00D5260A128A150800F2008312031388170F
:101DDA007208860088160630F1003030F000F00BE9
:101DEA00F42EF10BF42E000083120313881208005C
:101DFA00F6000F2F73087F3E0A128A1107200A1273
:101E0A008A151F2F7308BF3E0A128A1107200A1269
:101E1A008A151F2F7608F400F5017508003A031990
:101E2A00172F1F2F7408013A0319FF2E033A0319BB
:101E3A00072F1F2F0800803083120313B0063408BF
:101E4A00F3003308F2003208F1003108F0003008DC
:101E5A00F7002F08F6002E08F5002D08F4000A12E4
:101E6A008A115B250A128A15730883120313B000BC
:101E7A007208AF007108AE007008AD000800F401E6
:101E8A00F501701C492F4A2F502F7208F4070318C6
:101E9A00F50A7308F50701300310F20DF30DFF3E42
:101EAA00031D512F01300310F10CF00CFF3E031DEE
:101EBA00582F70087104031D632F642F462F75086D
:101ECA00F1007408F00008008316031386018316D4
:101EDA00031789018316031388011530F400C630ED
:101EEA00F300F30B762FF40B762F000003300A125F
:101EFA008A1107200A128A150630F4007330F3009B
:101F0A00F30B852FF40B852F03300A128A11072051
:101F1A000A128A15C730F300922FF30B912F952FCF
:101F2A00962F03300A128A1107200A128A153830AE
:101F3A000A128A1107200A128A150C300A128A110B
:101F4A0007200A128A1506300A128A1107200A1275
:101F5A008A150800831203138518B42FB52FAF2FE3
:101F6A00FC0183120313050C0139F000F101F2019F
:101F7A00F3017308F7007208F6007108F50070089B
:101F8A00F40074087804F00075087904F100760802
:101F9A007A04F20077087B04F3007308FB007208E6
:101FAA00FA007108F9007008F8000130F000031017
:101FBA00F80DF90DFA0DFB0DF00BDC2F0514C730E7
:101FCA00F000E72FF00BE62FEA2FEB2F8312031313
:101FDA000510C730F000F12FF00BF02FF42FF52F7A
:101FEA000130F0007008FC0718307C02031CFE2F39
:061FFA00FF2FB62F0800C6
:04400E00D4E0FFFFFC
:00000001FF
