:020000040000FA
:100000000A128A11EA2F0A128A15CA230A128A11C1
:10001000700883120313930008002830831203131F
:100020009400831603139101831203132008A40084
:100030002108A5002208A6002308A700023003100B
:10004000A40DA50DA60DA70DFF3E031D1F28270813
:10005000F3002608F2002508F1002408F000003023
:10006000F7003D30F6000930F5000030F4000A12C8
:100070008A1523250A128A117008FF3E831603137E
:100080009300940187150716080077088039F80057
:10009000780883120313A4007708F8007807F900A2
:1000A0007908AB00F61F5528562857282B142B0823
:1000B00003195B285C286C282B0A031D6028612823
:1000C00069280030F7000030F6000030F5000030FD
:1000D000F400F617F70174280030F7000030F6003E
:1000E0000030F5000030F40073088039F80078081B
:1000F000A4067308F8007807F9007908AC00F21F2D
:100100008228832884282C142C08031988288928FD
:1001100099282C0A031D8D288E2896280030F3007C
:100120000030F2000030F1000030F000F217F3016F
:10013000A1280030F3000030F2000030F100003060
:10014000F0007308720471047004031DA828A92824
:10015000C2280030F7000030F6000030F500003013
:10016000F4008030F6047F30F7042408F8007808A3
:10017000F7047708F3007608F2007508F1007408B8
:10018000F000272A2B08031DC628C728D0280030D6
:10019000F3000030F2000030F1000030F000272AB8
:1001A0002B08F800F9017908FB002C087802FA0006
:1001B000031CFB037A087F3EA5007B080318013E61
:1001C000003EA6007708A3007608A2007508A100EB
:1001D0007408A0000030F7000030F6000030F50091
:1001E0000030F4000030AA000030A9000030A80060
:1001F0000030A700AC014C292C0803190029012963
:1002000021290130F8000310A00DA10DA20DA30DAE
:10021000F80B03290130F8000310F40DF50DF60D6D
:10022000F70DF80B0C29AA1F162917291829741481
:100230000130F8000310A70DA80DA90DAA0DF80BA9
:100240001A2973082302031D2F2972082202031D95
:100250002F2971082102031D2F2970082002031C79
:100260003229332948292A177008A0027108031C73
:10027000710F3B293C29A1027208031C720F41290E
:100280004229A2027308031C730F47294829A302BD
:100290000130F8007808AC071A302C02031C5129F1
:1002A0005229FC2823082204210420040319592977
:1002B0005A297929271479290130F8000310F40DFF
:1002C000F50DF60DF70DF80B5E29AA1F68296929AF
:1002D0006A2974140130F8000310A70DA80DA90DA8
:1002E000AA0DF80B6C29FF30A5070318A60AFF30EA
:1002F000A607F61F7C297D295C29AC01AA1F81294C
:1003000082299E29FF302705F800FF302805F900D3
:10031000FF302905FA007F302A05FB007B087A04AC
:10032000790478040319952996299929AC01AC0A16
:100330009E29741C9C299D299E2996292C08031905
:10034000A229A329D4290130F40700300318013071
:10035000F507003003180130F607003003180130AC
:10036000F707771CB429B529D4297408F800750853
:10037000F9007608FA007708FB000130FC007B0DDD
:10038000FB0CFA0CF90CF80CFC0BBF297B08F700EE
:100390007A08F6007908F5007808F4000130A5071E
:1003A0000318A60A0030A6072608803AFF0080300E
:1003B0007F02031DDD29FF302502031CE029E1290E
:1003C000EF29FF3083120313A5000030A600003090
:1003D000F7000030F6000030F5000030F400831222
:1003E00003132608803AFF0080307F02031DFA299C
:1003F000013025020318FD29FE290B2A831203135D
:10040000A501A6010030F7000030F6000030F5002D
:100410000030F400A401831203132508F8007808C3
:10042000AB002B1C142A152A172AF6171B2A7F301B
:10043000F8007808F6052B08F8000310780CF9008E
:100440007908F7002408F8007808F704B9280800AC
:100450007308803983120313A0002008F800730882
:10046000A0002007A1002108FA00F21F382A392A2B
:100470003A2A7A147A0803193E2A3F2A4F2A7A0A1E
:10048000031D432A442A4C2A0030F3000030F200B6
:100490000030F1000030F000F217F301572A00306D
:1004A000F3000030F2000030F1000030F000770877
:1004B0008039A0002008F900790878060319612A1C
:1004C000622A632A78177708A0002007A100210874
:1004D000F900F61F6C2A6D2A6E2A7914790803191F
:1004E000722A732A832A790A031D772A782A802A96
:1004F0000030F7000030F6000030F5000030F40066
:10050000F617F7018B2A0030F7000030F6000030B4
:10051000F5000030F4007A0879020318902A912A35
:10052000D52A781F942A952A992A8030A00020087D
:10053000F8067A08A0002008FB007908A00020082F
:10054000FA007B08A0002008F9007008A00020082D
:10055000FB007408A0002008F0007B08A000200821
:10056000F4007108A0002008FB007508A000200816
:10057000F1007B08A0002008F5007208A000200808
:10058000FB007608A0002008F2007B08A0002008ED
:10059000F6007308A0002008FB007708A0002008E0
:1005A000F3007B08A0002008F700FB017908A000F9
:1005B000A1012108A3007A082002A200031CA303C2
:1005C0002308803AFF0080307F02031DE92A1A3099
:1005D0002202031CEC2AED2A2E2B730872047104EC
:1005E0007004031DF42AF62A0130F72A0030831222
:1005F0000313A0002008FB000030F3000030F200DD
:100600000030F1000030F0007908A0002008FA0066
:10061000342B7B1C0C2B0D2B182B7B088312031304
:10062000A0000310200C0138A1002108FB001A2BA8
:100630000310FB0C701C1D2B1E2B1F2BFB170130F6
:1006400083120313A000730DF30CF20CF10CF00CE9
:10065000A00B232B0130A0002008FA0779087A02AA
:10066000031C332B342B092B781B372B382B872B70
:100670007A08031D3C2B3D2B462B0030F300003045
:10068000F2000030F1000030F000BF2C7408F007D9
:10069000750803110318013E03194F2BF107760863
:1006A00003110318013E0319562BF20777080311B3
:1006B0000318013E03195D2BF307731C602B612B9C
:1006C0003F2C7B1C642B652B702B7B088312031340
:1006D000A0000310200C0138A1002108FB00722BA0
:1006E0000310FB0C701C752B762B772BFB1701303E
:1006F00083120313A000730DF30CF20CF10CF00C39
:10070000A00B7B2B0130A0002008FA073F2C7308B8
:10071000803AFF007708803A7F02031D992B760804
:100720007202031D992B75087102031D992B740821
:10073000700203189C2B9D2BF72BFF3083120313A1
:10074000A000FF30A100FF30A200FF30A30074081A
:10075000A4007508A5007608A6007708A700700811
:10076000A4027108031C710FB62BB72BA5027208E7
:10077000031C720FBC2BBD2BA6027308031C730F46
:10078000C22BC32BA7022408A00725080318250F96
:10079000CA2BCB2BA10726080318260FD02BD12B51
:1007A000A20727080318270AA3072308F300220833
:1007B000F2002108F1002008F0008030A00020089D
:1007C000F806FB09FB0A7B08031DE72BE82B052C29
:1007D0000130F007003003180130F1070030031832
:1007E0000130F207003003180130F307052C7408BC
:1007F000F0027508031C750FF1027608031C760FD2
:10080000F2027708031C770FF30273087204710475
:100810007004031D0C2C0D2C3B2C7B08031D112C8C
:10082000122C3B2C0030F3000030F2000030F100BD
:100830000030F000BF2C013083120313A00003101E
:10084000F00DF10DF20DF30DA00B1F2CFB1F292C49
:100850002A2C2B2C70147B1C2E2C2F2C322C0314A6
:10086000FB0D342C0310FB0D7A080319382C392C9E
:100870003B2C0130FA02F21F3E2C3F2C1B2CF901BD
:10088000FB1F432C442C522C7B087F390319492C25
:100890004A2C4D2CF901F90A522C701C502C512C69
:1008A000522C4A2C79080319562C572C8D2C0130C8
:1008B000F007003003180130F10700300318013051
:1008C000F207003003180130F307731C682C692C01
:1008D0008D2C700883120313A0007108A100720808
:1008E000A2007308A3000130A400230DA30CA20CE6
:1008F000A10CA00CA40B752C2308F3002208F20015
:100900002108F1002008F0007A0A0319882C892CAC
:100910008D2C0130A0002008FA077A0A0319912CC7
:10092000922C972C7A08031D962C972CA52C00301E
:10093000F3000030F2000030F1000030F0007A08DF
:10094000031DA32CA42CA52CF8017A1CA82CA92CDF
:10095000AB2CF217B12C7F3083120313A0002008B8
:10096000F2057A0883120313A0000310200CA100E3
:100970002108F300F81FBD2CBE2CBF2CF317080074
:100980000A128A1500240A128A1101300A128A15E5
:10099000EB230A128A11063083120313D8002F307A
:1009A000D700D70BD12CD80BD12CD62C0D308312DD
:1009B0000313D7005708F30001300A128A151E24CA
:1009C0000A128A1127300A128A158A240A128A11F9
:1009D0000A128A15B8230A128A113130F000003049
:1009E000F1000A128A1103200A128A110030F00065
:1009F000F1000A128A15AF240A128A1170088312B4
:100A00000313DF007108E000E101E2010A128A1518
:100A1000C1230A128A11831203135F08D7006008EA
:100A2000D8006108D9006208DA0008300310D70D39
:100A3000D80DD90DDA0DFF3E031D162D5A08E20020
:100A40005908E1005808E0005708DF00C73083125A
:100A50000313D7002B2DD70B2A2D2E2D0A128A1502
:100A6000B8230A128A113130F0000030F1000A1266
:100A70008A1103200A128A11831203135F08D70018
:100A80006008D8006108D9006208DA000030F00080
:100A9000F1000A128A15AF240A128A117008831213
:100AA0000313DB007108DC00DD01DE015B08D70702
:100AB0005C0803185C0F5D2D5E2DD8075D080318D8
:100AC0005D0F632D642DD9075E0803185E0ADA07EF
:100AD0005A08E2005908E1005808E0005708DF0012
:100AE0000A128A15C1230A128A11831203135F089E
:100AF000D7006008D8006108D9006208DA00083021
:100B00000310D70DD80DD90DDA0DFF3E031D802D32
:100B10005A08E2005908E1005808E0005708DF00D1
:100B2000C73083120313D700952DD70B942D982D22
:100B30000A128A15B8230A128A113130F0000030E7
:100B4000F1000A128A1103200A128A118312031378
:100B50005F08D7006008D8006108D9006208DA0091
:100B60000030F000F1000A128A15AF240A128A112F
:100B7000700883120313DB007108DC00DD01DE0165
:100B80005B08D7075C0803185C0FC72DC82DD80772
:100B90005D0803185D0FCD2DCE2DD9075E08031813
:100BA0005E0ADA075A08E2005908E1005808E00036
:100BB0005708DF000A128A15C1230A128A11C730AA
:100BC00083120313D700E42DD70BE32DE72D8312F7
:100BD00003135F08D7006008D8006108D9006208D5
:100BE000DA0008300310D70DD80DD90DDA0DFF3E0D
:100BF000031DF22D5A08E2005908E1005808E000F0
:100C00005708DF00C73083120313D700072ED70B16
:100C1000062E0A2E0A128A15B8230A128A113130BA
:100C2000F0000030F1000A128A1103200A128A1122
:100C3000831203135F08D7006008D8006108D90049
:100C40006208DA000030F000F1000A128A15AF24C1
:100C50000A128A11700883120313DB007108DC008A
:100C6000DD01DE015B08D7075C0803185C0F392E35
:100C70003A2ED8075D0803185D0F3F2E402ED90786
:100C80005E0803185E0ADA075A08E2005908E10014
:100C90005808E0005708DF000A128A15C1230A121B
:100CA0008A11C73083120313D700562ED70B552E47
:100CB000592E831203136208C3006108C200600842
:100CC000C1005F08C0006F30D7005708C4006E3005
:100CD000D8005808C5006D30D9005908C6000A125E
:100CE0008A15C1260A128A1101300A128A15EB23CD
:100CF0000A128A11C73083120313D7007F2ED70B35
:100D00007E2E822E033083120313D7005708F30080
:100D100001300A128A151E240A128A1101300A12A1
:100D20008A158A240A128A11033083120313D7000A
:100D30005708F30002300A128A151E240A128A117B
:100D4000831203136F080A128A15D7230A128A1115
:100D5000831203136E080A128A15D7230A128A1106
:100D60002B300A128A158A240A128A11831203135D
:100D70006D080A128A15D7230A128A1106308312C7
:100D80000313D9001330D800AD30D700D70BC62ECF
:100D9000D80BC62ED90BC62E01300A128A15EB23AA
:100DA0000A128A11C73083120313D700D72ED70B2C
:100DB000D62EDA2E033083120313D7005708F30020
:100DC00001300A128A151E240A128A1121300A12D1
:100DD0008A158A240A128A11033083120313D7005A
:100DE0005708F30002300A128A151E240A128A11CB
:100DF00000300A128A15D7230A128A1100300A120B
:100E00008A15D7230A128A1100300A128A15D723AD
:100E10000A128A1100300A128A15D7230A128A117F
:100E20002B300A128A158A240A128A1100300A12FB
:100E30008A15D7230A128A11063083120313D900A8
:100E40001330D800AD30D700D70B242FD80B242F68
:100E5000D90B242F01300A128A15EB230A128A11AA
:100E6000C73083120313D700352FD70B342F382FF9
:100E7000033083120313D7005708F30001300A121E
:100E80008A151E240A128A1119300A128A158A2418
:100E90000A128A11033083120313D7005708F30094
:100EA00002300A128A151E240A128A1100300A1210
:100EB0008A15D7230A128A112B300A128A158A241E
:100EC0000A128A1100300A128A15D7230A128A11CF
:100ED00000300A128A15D7230A128A1100300A122A
:100EE0008A15D7230A128A11063083120313D900F8
:100EF0001330D800AD30D700D70B7C2FD80B7C2F08
:100F0000D90B7C2F01300A128A15EB230A128A11A1
:100F1000C73083120313D7008D2FD70B8C2F902F40
:100F2000033083120313D7005708F30001300A126D
:100F30008A151E240A128A110E300A128A158A2472
:100F40000A128A11033083120313D7005708F300E3
:100F500002300A128A151E240A128A1100300A125F
:100F60008A15D7230A128A1100300A128A15D7234C
:100F70000A128A1100300A128A15D7230A128A111E
:100F800000300A128A15D7230A128A1100300A1279
:100F90008A15D7230A128A1100300A128A15D7231C
:100FA0000A128A1100300A128A15D7230A128A11EE
:100FB000063083120313D9001330D800AD30D700A8
:100FC000D70BE02FD80BE02FD90BE02FE82C0A121B
:100FD0008A11002883135F30840070300A128A154A
:100FE000B0230A128A1183160313A001A101A201E2
:100FF000A301A401A501A60183010A128A11C02C34
:1010000008308A000408840A8207003454346534A6
:101010006D347034653472346134743475347234C0
:1010200061343A3400344434693473347434613490
:101030006E346334693461343A3400344334613497
:101040007534643461346C343A340034503465346B
:1010500073346F343A340034533433343A34003414
:041060002E340034F6
:1017600064008001840A0406031900340406B12BC6
:101770000A128A15CA230A128A1583160313111432
:1017800008000A128A15CA230A128A15831603133F
:1017900011150800831603131419CF2BD02BCA2B55
:1017A00011081F39031DD52BD62BCA2B0800F200B8
:1017B0008312031388177208860088160630F1001A
:1017C0003030F000F00BE22BF10BE22B0000831223
:1017D000031388120800F2008312031308138813FE
:1017E0007208860088160630F1003030F000F00BE9
:1017F000F72BF10BF72B000083120313881208005C
:10180000003083120313A3000130A2008630A10030
:10181000A030A0000A128A110D200A128A150A129D
:101820008A15DD240A128A1583160313850183168F
:10183000031788018312031385010800F600302C7A
:1018400073087F3E0A128A15EB230A128A15402C70
:101850007308BF3E0A128A15EB230A128A15402C20
:101860007608F400F5017508003A0319382C402C6D
:101870007408013A0319202C033A0319282C402C30
:101880000800803083120313B0063408F3003308D5
:10189000F2003208F1003108F0003008F7002F089C
:1018A000F6002E08F5002D08F4000A128A112822ED
:1018B0000A128A15730883120313B0007208AF006E
:1018C0007108AE007008AD000800F401F501701C4D
:1018D0006A2C6B2C712C7208F4070318F50A730834
:1018E000F50701300310F20DF30DFF3E031D722CBE
:1018F00001300310F10CF00CFF3E031D792C700831
:101900007104031D842C852C672C7508F100740864
:10191000F0000800F500F301F401A12C730875072D
:1019200084000A128A1500200A128A150A128A15E2
:10193000D7230A128A150130F3070318F40A00307E
:10194000F4077308750784000A128A1500200A122A
:101950008A15003A031DAD2CAE2C8E2C08000A12FD
:101960008A15CA230A128A158316031391150A12BF
:101970008A15CA230A128A15831203131308F20068
:10198000F3017208F4007308F5000A128A15CA23DD
:101990000A128A1570037104031DCF2CD02CD42C8D
:1019A000831603139112D72C831603139116111665
:1019B0007508F1007408F00008008316031386010F
:1019C0008316031789018316031388011530F40069
:1019D000C630F300F30BEA2CF40BEA2C00000330C2
:1019E0000A128A15EB230A128A150630F4007330A6
:1019F000F300F30BF92CF40BF92C03300A128A15BF
:101A0000EB230A128A15C730F300062DF30B052DC0
:101A1000092D0A2D03300A128A15EB230A128A15A2
:101A200038300A128A15EB230A128A150C300A1272
:101A30008A15EB230A128A1506300A128A15EB233F
:101A40000A128A1508000030FC000030FB0000304C
:101A5000FA000030F900730872047104700403196D
:101A6000322D332D802DFD01FD0A432D0130F8006C
:101A70000310F00DF10DF20DF30DF80B382D0130C0
:101A8000F8007808FD07F31F462D472D362D01304D
:101A9000F8000310F90DFA0DFB0DFC0DF80B492DA4
:101AA00073087702031D5E2D72087602031D5E2DFA
:101AB00071087502031D5E2D70087402031C612DF0
:101AC000622D712D7008F4027108031C710FF5026C
:101AD0007208031C720FF6027308031C730FF702DF
:101AE000791401300310F30CF20CF10CF00CFF3EF2
:101AF000031D722D0130FD02031D7F2D802D472D0A
:101B00007C08F3007B08F2007A08F1007908F00005
:101B10000800031083120313370D380DB90039087C
:101B2000BF003F08031D952D962D9F2D0030B80056
:101B30000030B7000030B6000030B500042E350884
:101B4000B9003608BA003708BB003808BC001F309F
:101B50000310BC0CBB0CBA0CB90CFF3E031DA82D26
:101B60003908BD003D08BE00B717FF30B505FF308E
:101B7000B605FF30B7050030B8059630BF02BF1F6D
:101B8000C22DC32DDD2D3F08803A973E0318C92D85
:101B9000CA2DCB2D962D01300310B80CB70CB60C06
:101BA000B50CFF3E031DCC2D0130B9003908BF072D
:101BB000031DDB2DDC2DCB2DF42D20303F02031C2B
:101BC000E22DE32DEF2D962D0130B9000310B50D58
:101BD000B60DB70DB80DB90BE62D0130BF023F08A9
:101BE000031DF32DF42DE42D3E080319F82DF92DD6
:101BF000042EB509B609B709B809B50A0319B60A1A
:101C00000319B70A0319B80A080083120313A000C6
:101C1000200803190C2E0D2E212EF91F102E112E27
:101C2000212E7609A2007709A3007809A40079097A
:101C3000A500A20A0319A30A0319A40A0319A50AF5
:101C4000292E7908A5007808A4007708A300760853
:101C5000A2007908780477047604031D302E312E13
:101C60003A2E0030F9000030F8000030F700003064
:101C7000F600C02E9630FA007A08A1004C2E0130F2
:101C8000FA007A08A10701300310A50CA40CA30CDC
:101C9000A20CFF3E031D442EFE302505031D512ED0
:101CA000522E3F2E6E2E0130FA007A08A107013025
:101CB000A207003003180130A307003003180130D9
:101CC000A407003003180130A50701300310A50C4C
:101CD000A40CA30CA20CFF3E031D662EFF302505AD
:101CE000031D732E742E532E802E0130A10201305D
:101CF000FA000310A20DA30DA40DA50DFA0B792E69
:101D0000A41B832E842E8A2E023021020318892ED2
:101D10008A2E752E21188D2E8E2E962EFF30A2051E
:101D2000FF30A3057F30A405FF30A5050310A10CEB
:101D30002108FA00FB01FC01FD0118300310FA0D27
:101D4000FB0DFC0DFD0DFF3E031D9E2E7A08A20427
:101D50007B08A3047C08A4047D08A50420080319BB
:101D6000B22EB32EB82EF91FB62EB72EB82EA51749
:101D70002508F9002408F8002308F7002208F600D7
:101D80000800831203134308F9004208F8004108D1
:101D9000F7004008F60000300A128A1505260A12DC
:101DA0008A15790883120313D5007808D4007708C0
:101DB000D3007608D2005508F7005408F6005308FF
:101DC000F5005208F4004230F300C830F200003051
:101DD000F1000030F0000A128A1145200A128A151B
:101DE000730883120313B8007208B7007108B600B5
:101DF0007008B5000A128A1589250A128A158312FD
:101E000003133508C7004708D6005508F7005408E3
:101E1000F6005308F5005208F4004130F30020307A
:101E2000F2000030F1000030F0000A128A11452063
:101E30000A128A15730883120313B4007208B300E0
:101E40007108B2007008B1000A30F2000030F300EF
:101E50005608C700C8014708F0004808F1000A12F8
:101E60008A1565240A128A157008F6007108F700B1
:101E70000030F71BFF30F800F90001300A128A1514
:101E800005260A128A15790883120313B000780810
:101E9000AF007708AE007608AD000A128A1541241B
:101EA0000A128A15831203133008B8002F08B700EE
:101EB0002E08B6002D08B5000A128A1589250A12C7
:101EC0008A15831203133508C9004908D100550843
:101ED000F7005408F6005308F5005208F4003F30AC
:101EE000F3008030F2000030F1000030F0000A1200
:101EF0008A1145200A128A15730883120313B4004D
:101F00007208B3007108B2007008B1006430F200CA
:101F10000030F3005608C700C8014708F000480821
:101F2000F1000A128A1565240A128A1570088312B4
:101F30000313C9007108CA000A30F2000030F30030
:101F40005108CB00CC014B08F0004C08F1000A12FC
:101F50008A1565240A128A1570088312031349072B
:101F6000CD0071080318710A4A07CE004D08F6002B
:101F70004E08F7000030F71BFF30F800F900013081
:101F80000A128A1505260A128A1579088312031384
:101F9000B0007808AF007708AE007608AD000A12EE
:101FA0008A1541240A128A15831203133008B800D7
:101FB0002F08B7002E08B6002D08B5000A128A15A2
:101FC00089250A128A15831203133508CF004F089A
:101FD000D0005608303EC7004408840047088313E9
:101FE00080005108303EC700450884004708800043
:101FF0005008303EC70046088400470880000800AB
:04400E00D4E0FFFFFC
:00000001FF
