:020000040000FA
:060000000A128A110C280F
:10000800FE00030EF0000A08F1000A128A15922E6B
:100018000A128A110F28FA01FB0183120313EC015B
:1000280083160313A701A80183010A128A11632FFB
:100038007508803983120313A0002008A8007508EA
:10004800A0002007A1002108AA00F41F2C282D28B1
:100058002E282A142A0803193228332843282A0A62
:10006800031D3728382840280030F5000030F400F8
:100078000030F3000030F200F417F5014B2800308F
:10008800F5000030F4000030F3000030F200790889
:100098008039A0002008A900290828060319552836
:1000A8005628572828177908A0002007A1002108FA
:1000B800A900F81F60286128622829142908031953
:1000C800662867287728290A031D6B286C28742856
:1000D8000030F9000030F8000030F7000030F6007A
:1000E800F817F9017F280030F9000030F8000030D7
:1000F800F7000030F6002A0829020318842885280A
:10010800C928281F882889288D288030A000200821
:10011800A8062A08A0002008AB002908A00020088B
:10012800AA002B08A0002008A9007208A000200837
:10013800AB007608A0002008F2002B08A0002008D9
:10014800F6007308A0002008AB007708A00020087C
:10015800F3002B08A0002008F7007408A00020086E
:10016800AB007808A0002008F4002B08A0002008A5
:10017800F8007508A0002008AB007908A000200846
:10018800F5002B08A0002008F900AB012908A00001
:10019800A1012108A3002A082002A200031CA3032E
:1001A8002308803AFF0080307F02031DDD281A30C3
:1001B8002202031CE028E1281E2975087404730430
:1001C8007204031DE828EA280130EB280030831266
:1001D8000313A0002008AB000030F5000030F40045
:1001E8000030F3000030F2002908A0002008AA001F
:1001F80026292B1C002901290A292B08A0000310F5
:10020800200C0138A1002108AB000C290310AB0C0D
:10021800721C0F2910291129AB170130A000750D88
:10022800F50CF40CF30CF20CA00B13290130A00010
:100238002008AA078312031329082A02031C252968
:100248002629FD28281B29292A2975292A08031D5A
:100258002E292F2938290030F5000030F40000300D
:10026800F3000030F200A32A7608F207770803119A
:100278000318013E03194129F307780803110318ED
:10028800013E03194829F407790803110318013EB0
:1002980003194F29F507751C52295329292A2B1CA4
:1002A8005629572960292B08A0000310200C013873
:1002B800A1002108AB0062290310AB0C721C652950
:1002C80066296729AB170130A000750DF50CF40CF1
:1002D800F30CF20CA00B69290130A0002008AA0732
:1002E800292A7508803AFF007908803A7F02031DA1
:1002F800872978087402031D872977087302031D6C
:1003080087297608720203188A298B29E329FF3086
:10031800A000FF30A100FF30A200FF30A300760844
:10032800A4007708A5007808A6007908A700720835
:10033800A4027308031C730FA229A329A502740839
:10034800031C740FA829A929A6027508031C750F98
:10035800AE29AF29A7022408A00725080318250FEE
:10036800B629B729A10726080318260FBC29BD29D5
:10037800A20727080318270AA3072308F50022085D
:10038800F4002108F3002008F2008030A0002008C3
:10039800A806AB09AB0A2B08031DD329D429F129D8
:1003A8000130F207003003180130F307003003185A
:1003B8000130F407003003180130F507F1297608F9
:1003C800F2027708031C770FF3027808031C780FF2
:1003D800F4027908031C790FF50275087404730494
:1003E8007204031DF829F929252A2B08031DFD2964
:1003F800FE29252A0030F5000030F4000030F30013
:100408000030F200A32A0130A0000310F20DF30D12
:10041800F40DF50DA00B092AAB1F132A142A152A6F
:1004280072142B1C182A192A1C2A0314AB0D1E2A15
:100438000310AB0D2A080319222A232A252A013082
:10044800AA02F41F282A292A072AA901AB1F2D2A44
:100458002E2A3C2A2B087F390319332A342A372AB3
:10046800A901A90A3C2A721C3A2A3B2A3C2A342AA6
:1004780029080319402A412A752A0130F207003059
:1004880003180130F307003003180130F407003077
:1004980003180130F507751C522A532A752A720869
:1004A800A0007308A1007408A2007508A300013019
:1004B800A400230DA30CA20CA10CA00CA40B5D2A74
:1004C8002308F5002208F4002108F3002008F200B0
:1004D8002A0A0319702A712A752A0130A0002008F7
:1004E800AA072A0A0319792A7A2A7F2A2A08031DC1
:1004F8007E2A7F2A8D2A0030F5000030F400003073
:10050800F3000030F2002A08031D8B2A8C2A8D2A5A
:10051800A8012A1C902A912A932AF417972A7F3037
:10052800A0002008F4052A08A0000310200CA10050
:100538002108F500A81FA12AA22AA32AF517080056
:100548008312031335088039B6003608BF00350812
:10055800B6003607B7003708C600B41FB42AB52A54
:10056800B62A461446080319BA2ABB2ACB2A460AD1
:10057800031DBF2AC02AC82A0030B5000030B400C5
:100588000030B3000030B200B417B501D32A0030F0
:10059800B5000030B4000030B3000030B2003108BC
:1005A8008039B6003608BF063108B6003607B700EE
:1005B8003708C700B01FE12AE22AE32A4714470890
:1005C8000319E72AE82AF82A470A031DEC2AED2A24
:1005D800F52A0030B1000030B0000030AF00003024
:1005E800AE00B017B101002B0030B1000030B000F0
:1005F8000030AF000030AE00310830042F042E0464
:10060800031D072B082B212B0030B5000030B40048
:100618000030B3000030B2008030B4047F30B5043D
:100628003F08B6003608B5043508B1003408B000F4
:100638003308AF003208AE00802C4608031D252B76
:10064800262B2F2B0030B1000030B0000030AF0057
:100658000030AE00802C4608B600B7013708B90054
:1006680047083602B800031CB90338087F3EC000AB
:1006780039080318013E003EC1003508BE003408A1
:10068800BD003308BC003208BB000030B5000030A4
:10069800B4000030B3000030B2000030C5000030B4
:1006A800C4000030C3000030C200C701A52B4708B2
:1006B80003195F2B602B802B0130B6000310BB0D94
:1006C800BC0DBD0DBE0DB60B622B0130B60003107C
:1006D800B20DB30DB40DB50DB60B6B2BC51F752B35
:1006E800762B772B32140130B6000310C20DC30DE0
:1006F800C40DC50DB60B792B31083E02031D8E2B98
:1007080030083D02031D8E2B2F083C02031D8E2B43
:100718002E083B02031C912B922BA12B45172E0868
:10072800BB022F08031C2F0FBC023008031C300F1C
:10073800BD023108031C310FBE020130B600360875
:10074800C7071A304702031CAA2BAB2B5B2B3E08AA
:100758003D043C043B040319B22BB32BD22B4214A7
:10076800D22B0130B6000310B20DB30DB40DB50D88
:10077800B60BB72BC51FC12BC22BC32B32140130AC
:10078800B6000310C20DC30DC40DC50DB60BC52BA5
:10079800FF30C0070318C10AFF30C107B41FD52BAB
:1007A800D62BB52BC701C51FDA2BDB2BF72BFF3058
:1007B8004205B600FF304305B700FF304405B800D6
:1007C8007F304505B9003908380437043604031961
:1007D800EE2BEF2BF22BC701C70AF72B321CF52B98
:1007E800F62BF72BEF2B47080319FB2BFC2B2D2C93
:1007F8000130B207003003180130B3070030031886
:100808000130B407003003180130B507351C0D2C32
:100818000E2C2D2C3208B6003308B7003408B80067
:100828003508B9000130BA00390DB90CB80CB70C4D
:10083800B60CBA0B182C3908B5003808B4003708BC
:10084800B3003608B2000130C0070318C10A0030EF
:10085800C1074108803AFF0080307F02031D362C13
:10086800FF304002031C392C3A2C482CFF308312ED
:100878000313C0000030C1000030B5000030B400E0
:100888000030B3000030B200831203134108803AED
:10089800FF0080307F02031D532C013040020318F3
:1008A800562C572C642C83120313C001C10100304D
:1008B800B5000030B4000030B3000030B200BF0112
:1008C800831203134008B6003608C600461C6D2C78
:1008D8006E2C702CB417742C7F30B6003608B40513
:1008E8004608B6000310360CB7003708B5003F08B5
:1008F800B6003608B504182B08003E3083120313DF
:10090800B1006330B0001230AF009B30AE005B081E
:10091800A0005C08A100A201A30100300A128A11FC
:100928002B260A128A11831203132308B500220802
:10093800B4002108B3002008B2000A128A11A422C8
:100948000A128A1183120313310883160313A500B0
:1009580083120313300883160313A40083120313AE
:100968002F0883160313A300831203132E0883167C
:100978000313A200250883120313B500831603137B
:10098800240883120313B400831603132308831265
:100998000313B30083160313220883120313B20050
:1009A8004230B100C830B0000030AF000030AE00B7
:1009B8000A128A11A4220A128A1183120313310817
:1009C800D3003008D2002F08D1002E08D0000A1218
:1009D8008A11E7260A128A11831203135008E000CD
:1009E800600883160313A600250883120313B500B5
:1009F80083160313240883120313B4008316031306
:100A0800230883120313B3008316031322088312E7
:100A18000313B2004130B1002030B0000030AF0005
:100A28000030AE000A128A11A4220A128A11831217
:100A380003133108CF003008CE002F08CD002E0850
:100A4800CC000A30F4000030F500831603132608A2
:100A580083120313E000E1016008F2006108F3006B
:100A68000A128A150A270A128A11720883120313B6
:100A7800A0007308A1000030A11BFF30A200A30052
:100A880001300A128A112B260A128A1183120313C3
:100A98002308CB002208CA002108C9002008C80082
:100AA8000A128A15E6260A128A11831203134B08C2
:100AB800D3004A08D2004908D1004808D0000A12D9
:100AC8008A11E7260A128A11831203135008E200DA
:100AD800620883160313A100250883120313B500C7
:100AE80083160313240883120313B4008316031315
:100AF800230883120313B3008316031322088312F7
:100B08000313B2003F30B1008030B0000030AF00B6
:100B18000030AE000A128A11A4220A128A11831226
:100B280003133108CF003008CE002F08CD002E085F
:100B3800CC006430F4000030F50083160313260857
:100B480083120313E000E1016008F2006108F3007A
:100B58000A128A150A270A128A11720883120313C5
:100B6800E2007308E3000A30F4000030F500831651
:100B78000313210883120313E400E5016408F2005B
:100B88006508F3000A128A150A270A128A117208E0
:100B9800831203136207E60073080318730A6307D6
:100BA800E7006608A0006708A1000030A11BFF301D
:100BB800A200A30001300A128A112B260A128A11F8
:100BC800831203132308CB002208CA002108C90096
:100BD8002008C8000A128A15E6260A128A1183120A
:100BE80003134B08D3004A08D2004908D10048082B
:100BF800D0000A128A11E7260A128A1183120313F7
:100C08005008E800680883160313A0002608303E41
:100C180083120313E0005D088400600880008316D7
:100C280003132108303E83120313E0005E0884009A
:100C380060088000831603132008303E83120313D4
:100C4800E0005F08840060088313800008008312B6
:100C58000313A80028080319322E332E472EA31F8A
:100C6800362E372E472E2009AA002109AB0022096B
:100C7800AC002309AD00AA0A0319AB0A0319AC0A90
:100C88000319AD0A4F2E2308AD002208AC00210835
:100C9800AB002008AA002308220421042004031D15
:100CA800562E572E602E0030A3000030A2000030D0
:100CB800A1000030A000E62E9630A4002408A90068
:100CC800722E0130A4002408A90701300310AD0CCE
:100CD800AC0CAB0CAA0CFF3E031D6A2EFE302D0592
:100CE800031D772E782E652E942E0130A40024083B
:100CF800A9070130AA07003003180130AB070030FC
:100D080003180130AC07003003180130AD0701307B
:100D18000310AD0CAC0CAB0CAA0CFF3E031D8C2EC3
:100D2800FF302D05031D992E9A2E792EA62E0130FF
:100D3800A9020130A4000310AA0DAB0DAC0DAD0D36
:100D4800A40B9F2EAC1BA92EAA2EB02E023029026E
:100D58000318AF2EB02E9B2E2918B32EB42EBC2EFE
:100D6800FF30AA05FF30AB057F30AC05FF30AD057D
:100D78000310A90C2908A400A501A601A701183091
:100D88000310A40DA50DA60DA70DFF3E031DC42E2F
:100D98002408AA042508AB042608AC042708AD04D7
:100DA80028080319D82ED92EDE2EA31FDC2EDD2EFF
:100DB800DE2EAD172D08A3002C08A2002B08A100D9
:100DC8002A08A0000800031083120313520D530DC4
:100DD800D4005408DA005A08031DF32EF42EFD2E11
:100DE8000030D3000030D2000030D1000030D000F5
:100DF800622F5008D4005108D5005208D600530875
:100E0800D7001F300310D70CD60CD50CD40CFF3EDE
:100E1800031D062F5408D8005808D900D217FF30F0
:100E2800D005FF30D105FF30D2050030D30596300C
:100E3800DA02DA1F202F212F3B2F5A08803A973EDB
:100E48000318272F282F292FF42E01300310D30C35
:100E5800D20CD10CD00CFF3E031D2A2F0130D40038
:100E68005408DA07031D392F3A2F292F522F203023
:100E78005A02031C402F412F4D2FF42E0130D4006D
:100E88000310D00DD10DD20DD30DD40B442F01304A
:100E9800DA025A08031D512F522F422F59080319FD
:100EA800562F572F622FD009D109D209D309D00A5A
:100EB8000319D10A0319D20A0319D30A08000A121E
:100EC8008A1599260A128A110A128A159A270A126D
:100ED8008A11730883160313A8007208A7009C30B0
:100EE8002706031D7C2F280A03197B2F7C2F972F99
:100EF800280883120313DC008316031327088312C0
:100F08000313DB007B30E9006908DD007A30EA0072
:100F18006A08DE006C30EB006B08DF000A128A11E9
:100F280081240A128A11033083120313E900690825
:100F3800F50001300A128A11DD270A128A110130E0
:100F48000A128A152F270A128A11083083120313EE
:100F5800E9006908F50002300A128A11DD270A1231
:100F68008A117B080A128A15A4260A128A117A089D
:100F78000A128A15A4260A128A110D300A128A1535
:100F88002F270A128A11831203136C080A128A1572
:100F9800A4260A128A11823083120313EA00DD3074
:100FA800E900E90BD52FEA0BD52F682F0A128A1111
:100FB8000C28F800EF2F75087F3E0A128A15B8260C
:100FC8000A128A11FF2F7508BF3E0A128A15B82621
:100FD8000A128A11FF2F7808F600F7017708003AFD
:100FE8000319F72FFF2F7608013A0319DF2F033A69
:100FF8000319E72FFF2F080008308A000408840A25
:1010080082070034743465346D3470346534723456
:101018006134743475347234613400342E340034DD
:101D240071088A00700E8300FE0E7E0E09000A12EE
:101D34008A1554270A128A150A128A15CD260A1200
:101D44008A150800F40083120313881774088600A8
:101D540088160630F3003030F200F20BAF2EF30B8E
:101D6400AF2E00008312031388120800F4008312BC
:101D74000313081388137408860088160630F300CA
:101D84003030F200F20BC42EF30BC42E0000831289
:101D94000313881208008316031305108510051514
:101DA4008316031788018312031385140630F40085
:101DB4001330F300AD30F200F20BDE2EF30BDE2E07
:101DC400F40BDE2EE52E0800803083120313CB06BD
:101DD4004F08F5004E08F4004D08F3004C08F200DB
:101DE4004B08F9004A08F8004908F7004808F600CB
:101DF4000A128A111C200A128A1575088312031309
:101E0400CB007408CA007308C9007208C80008002F
:101E1400F601F701721C0F2F102F162F7408F60706
:101E24000318F70A7508F70701300310F40DF50DD0
:101E3400FF3E031D172F01300310F30CF20CFF3E7D
:101E4400031D1E2F72087304031D292F2A2F0C2F24
:101E54007708F3007608F2000800F700F501F601B0
:101E6400462F7508770784000A128A1500200A1283
:101E74008A150A128A15A4260A128A150130F50752
:101E84000318F60A0030F6077508770784000A126B
:101E94008A1500200A128A15003A031D522F532F67
:101EA400332F080083160313860183160317890151
:101EB4008316031388011530F600C630F500F50BC0
:101EC400612FF60B612F000003300A128A15B82621
:101ED4000A128A150630F6007330F500F50B702FE0
:101EE400F60B702F03300A128A15B8260A128A15C7
:101EF400C730F5007D2FF50B7C2F802F812F033009
:101F04000A128A15B8260A128A1538300A128A1556
:101F1400B8260A128A150C300A128A15B8260A1233
:101F24008A1506300A128A15B8260A128A1508007C
:101F340083120313A101A2018510C730F400A22F5C
:101F4400F40BA12FA52FA62F83120313A0010514B0
:101F5400C730F400AD2FF40BAC2FB02FB12F831288
:101F64000313050CF400740C0139F5002108750401
:101F7400F6002208F7007608A1007708A2000130D5
:101F84000310A10DA20DFF3E031DC22F0510C73083
:101F9400F400CC2FF40BCB2FCF2FD02F0130F40033
:101FA400740883120313A00710302002031CDB2FD4
:101FB400DC2FA92F8514211DE02FE12FE62F9C3063
:101FC400F200FF30F300FF2F03300310A20CA10C2A
:101FD400FF3E031DE72F2208F5002108F40003103B
:101FE400F50CF40C0310F50CF40C7408A10075083E
:0C1FF400A2002208F3002108F2000800FF
:04400E00D4E0FFFFFC
:00000001FF
