:020000040000FA
:060000000A128A1110280B
:10000800FE00030E83120313A4000408A5000A08C7
:10001800A6000A128A15762F0A128A111328FA01E5
:10002800FB01FC01FD0183120313E101E201E3017D
:10003800E401E501E601E70183160313C101C201EA
:10004800C301C40183010A128A150B2F83120313FB
:100058002A088039AF002F08B7002A08AF002F07F9
:10006800B0003008B900A91F3A283B283C283914A9
:1000780039080319402841285128390A031D452801
:1000880046284E280030AA000030A9000030A800F9
:100098000030A700A917AA0159280030AA0000308B
:1000A800A9000030A8000030A7002E088039AF0052
:1000B8002F08B8003808370603196328642865280C
:1000C80037172E08AF002F07B0003008B800AD1F53
:1000D8006E286F2870283814380803197428752872
:1000E8008528380A031D79287A2882280030AE002E
:1000F8000030AD000030AC000030AB00AD17AE01F1
:100108008D280030AE000030AD000030AC0000306B
:10011800AB0039083802031892289328D728371FCC
:10012800962897289B288030AF002F08B7063908F3
:10013800AF002F08BA003808AF002F08B9003A08F6
:10014800AF002F08B8002708AF002F08BA002B0807
:10015800AF002F08A7003A08AF002F08AB00280807
:10016800AF002F08BA002C08AF002F08A8003A08E3
:10017800AF002F08AC002908AF002F08BA002D08DF
:10018800AF002F08A9003A08AF002F08AD002A08D1
:10019800AF002F08BA002E08AF002F08AA003A08AF
:1001A800AF002F08AE00BA013808AF00B001300820
:1001B800B20039082F02B100031CB2033208803A9A
:1001C800FF0080307F02031DEB281A303102031C28
:1001D800EE28EF282C29831203132A08290428045F
:1001E8002704031DF828FA280130FB280030AF0047
:1001F8002F08BA000030AA000030A9000030A8007B
:100208000030A7003808AF002F08B90034293A1C7D
:100218000E290F2918293A08AF0003102F0C0138AE
:10022800B0003008BA001A290310BA0C271C1D297F
:100238001E291F29BA170130AF002A0DAA0CA90CD4
:10024800A80CA70CAF0B21290130AF002F08B90764
:100258008312031338083902031C332934290B2964
:10026800371B3729382983293908031D3C293D299B
:1002780046290030AA000030A9000030A80000304C
:10028800A700B12A2B08A7072C0803110318013E61
:1002980003194F29A8072D0803110318013E031954
:1002A8005629A9072E0803110318013E03195D29D1
:1002B800AA072A1C60296129372A3A1C642965295A
:1002C8006E293A08AF0003102F0C0138B00030082F
:1002D800BA0070290310BA0C271C732974297529D0
:1002E800BA170130AF002A0DAA0CA90CA80CA70C4C
:1002F800AF0B77290130AF002F08B907372A2A0832
:10030800803AFF002E08803A7F02031D95292D08A8
:100318002902031D95292C082802031D95292B085D
:100328002702031898299929F129FF30AF00FF30D7
:10033800B000FF30B100FF30B2002B08B3002C082A
:10034800B4002D08B5002E08B6002708B302280807
:10035800031C280FB029B129B4022908031C290F4E
:10036800B629B729B5022A08031C2A0FBC29BD29BA
:10037800B6023308AF0734080318340FC429C52957
:10038800B00735080318350FCA29CB29B107360835
:100398000318360AB2073208AA003108A900300843
:1003A800A8002F08A7008030AF002F08B706BA09A9
:1003B800BA0A3A08031DE129E229FF290130A707F3
:1003C800003003180130A807003003180130A907CE
:1003D800003003180130AA07FF292B08A7022C08B0
:1003E800031C2C0FA8022D08031C2D0FA9022E0890
:1003F800031C2E0FAA022A08290428042704031D17
:10040800062A072A332A3A08031D0B2A0C2A332AFC
:100418000030AA000030A9000030A8000030A70072
:10042800B12A0130AF000310A70DA80DA90DAA0D20
:10043800AF0B172ABA1F212A222A232A27143A1C6B
:10044800262A272A2A2A0314BA0D2C2A0310BA0DA1
:1004580039080319302A312A332A0130B902A91F71
:10046800362A372A152AB801BA1F3B2A3C2A4A2AB3
:100478003A087F390319412A422A452AB801B80A9D
:100488004A2A271C482A492A4A2A422A380803198C
:100498004E2A4F2A832A0130A7070030031801305B
:1004A800A807003003180130A907003003180130ED
:1004B800AA072A1C602A612A832A2708AF0028086D
:1004C800B0002908B1002A08B2000130B300320D8B
:1004D800B20CB10CB00CAF0CB30B6B2A3208AA00EB
:1004E8003108A9003008A8002F08A700390A031905
:1004F8007E2A7F2A832A0130AF002F08B907390ADC
:100508000319872A882A8D2A3908031D8C2A8D2ADF
:100518009B2A0030AA000030A9000030A800003053
:10052800A7003908031D992A9A2A9B2AB701391C62
:100538009E2A9F2AA12AA917A52A7F30AF002F0833
:10054800A9053908AF0003102F0CB0003008AA0025
:10055800B71FAF2AB02AB12AAA17080083120313BB
:1005680042088039C3004308CC004208C30043074F
:10057800C4004408D300C11FC22AC32AC42A531482
:1005880053080319C82AC92AD92A530A031DCD2A90
:10059800CE2AD62A0030C2000030C1000030C00088
:1005A8000030BF00C117C201E12A0030C20000308C
:1005B800C1000030C0000030BF003E088039C300D1
:1005C8004308CC063E08C3004307C4004408D400CF
:1005D800BD1FEF2AF02AF12A541454080319F52AEA
:1005E800F62A062B540A031DFA2AFB2A032B00308D
:1005F800BE000030BD000030BC000030BB00BD179D
:10060800BE010E2B0030BE000030BD000030BC0023
:100618000030BB003E083D043C043B04031D152B81
:10062800162B2F2B0030C2000030C1000030C00054
:100638000030BF008030C1047F30C2044C08C300C2
:100648004308C2044208BE004108BD004008BC007F
:100658003F08BB008E2C5308031D332B342B3D2B36
:100668000030BE000030BD000030BC000030BB00D0
:100678008E2C5308C300C4014408C6005408430222
:10068800C500031CC60345087F3ECD004608031875
:10069800013E003ECE004208CB004108CA00400897
:1006A800C9003F08C8000030C2000030C100003057
:1006B800C0000030BF000030D2000030D100003050
:1006C800D0000030CF00D401B32B540803196D2B90
:1006D8006E2B8E2B0130C3000310C80DC90DCA0D37
:1006E800CB0DC30B702B0130C3000310BF0DC00D21
:1006F800C10DC20DC30B792BD21F832B842B852BE5
:100708003F140130C3000310CF0DD00DD10DD20D11
:10071800C30B872B3E084B02031D9C2B3D084A0246
:10072800031D9C2B3C084902031D9C2B3B084802D7
:10073800031C9F2BA02BAF2B52173B08C8023C0869
:10074800031C3C0FC9023D08031C3D0FCA023E08AA
:10075800031C3E0FCB020130C3004308D4071A30F4
:100768005402031CB82BB92B692B4B084A044904C3
:1007780048040319C02BC12BE02B4F14E02B013088
:10078800C3000310BF0DC00DC10DC20DC30BC52B97
:10079800D21FCF2BD02BD12B3F140130C300031015
:1007A800CF0DD00DD10DD20DC30BD32BFF30CD07FC
:1007B8000318CE0AFF30CE07C11FE32BE42BC32B4F
:1007C800D401D21FE82BE92B052CFF304F05C300BD
:1007D800FF305005C400FF305105C5007F30520579
:1007E800C60046084504440443040319FC2BFD2BAA
:1007F800002CD401D40A052C3F1C032C042C052CF6
:10080800FD2B54080319092C0A2C3B2C0130BF0777
:10081800003003180130C007003003180130C10749
:10082800003003180130C207421C1B2C1C2C3B2C27
:100838003F08C3004008C4004108C5004208C6007C
:100848000130C700460DC60CC50CC40CC30CC70B41
:10085800262C4608C2004508C1004408C0004308C9
:10086800BF000130CD070318CE0A0030CE074E086E
:10087800803AFF0080307F02031D442CFF304D0278
:10088800031C472C482C562CFF3083120313CD0031
:100898000030CE000030C2000030C1000030C0007F
:1008A8000030BF00831203134E08803AFF008030E7
:1008B8007F02031D612C01304D020318642C652C46
:1008C800722C83120313CD01CE010030C200003018
:1008D800C1000030C0000030BF00CC0183120313F8
:1008E8004D08C3004308D300531C7B2C7C2C7E2C62
:1008F800C117822C7F30C3004308C1055308C300C9
:100908000310430CC4004408C2004C08C300430849
:10091800C204262B08003E3083120313BE00633046
:10092800BD001230BC009B30BB00831603132A089D
:1009380083120313B00083160313290883120313C9
:10094800AF0083160313280883120313AE0083161F
:100958000313270883120313AD0000300A128A110B
:1009680060260A128A11831203133008C2002F0866
:10097800C1002E08C0002D08BF000A128A11B22239
:100988000A128A11831203133E0883160313BC004C
:10099800831203133D0883160313BB00831203134A
:1009A8003C0883160313BA00831203133B0883160B
:1009B8000313B9003C0883120313C2008316031300
:1009C8003B0883120313C100831603133A088312EA
:1009D8000313C00083160313390883120313BF00DF
:1009E8004230BE00C830BD000030BC000030BB0043
:1009F8000A128A11B2220A128A11831203133E08BC
:100A0800E0003D08DF003C08DE003B08DD000A127C
:100A18008A111C270A128A11831203135D08831690
:100A28000313AE002E08BD003C0883120313C20056
:100A3800831603133B0883120313C10083160313A1
:100A48003A0883120313C00083160313390883126C
:100A58000313BF004130BE002030BD000030BC0091
:100A68000030BB000A128A11B2220A128A118312BC
:100A780003133E08DC003D08DB003C08DA003B08B5
:100A8800D9000A30A9000030AA00831603133D08D4
:100A9800AE00AF012E0883120313A70083160313B9
:100AA8002F0883120313A8000A128A152F260A1288
:100AB8008A11831203132708AD002808AE000030FE
:100AC800AE1BFF30AF00B00001300A128A11602659
:100AD8000A128A11831203133008D8002F08D7008E
:100AE8002E08D6002D08D5000A128A150B260A12E0
:100AF8008A11831203135808E0005708DF005608CC
:100B0800DE005508DD000A128A111C270A128A1114
:100B1800831203135D0883160313B0003008B8006E
:100B28003C0883120313C200831603133B08831285
:100B38000313C100831603133A0883120313C0007A
:100B480083160313390883120313BF003F30BE0016
:100B58008030BD000030BC000030BB000A128A1192
:100B6800B2220A128A11831203133E08DC003D08E0
:100B7800DB003C08DA003B08D9006430A9000030EB
:100B8800AA00831603133D08AE00AF012E08831296
:100B98000313A700831603132F0883120313A80057
:100BA8000A128A152F260A128A118312031327089C
:100BB80083160313B0008312031328088316031344
:100BC800B1000A3083120313A9000030AA0083166B
:100BD80003133808B200B301320883120313A700C5
:100BE80083160313330883120313A8000A128A1505
:100BF8002F260A128A118312031327088316031358
:100C08003007B4008312031328080318280A831630
:100C180003133107B500340883120313AD0083169C
:100C28000313350883120313AE000030AE1BFF30E8
:100C3800AF00B00001300A128A1160260A128A1128
:100C4800831203133008D8002F08D7002E08D600C7
:100C58002D08D5000A128A150B260A128A1183124A
:100C680003135808E0005708DF005608DE0055084F
:100C7800DD000A128A111C270A128A118312031333
:100C88005D0883160313B6003608B7003D08303EEA
:100C9800AE002B0884002E0880003808303EAE00D5
:100CA8002C0884002E0880003708303EAE002D083E
:100CB80084002E088000080083120313B50035084D
:100CC8000319672E682E7C2EB01F6B2E6C2E7C2E7F
:100CD8002D09B7002E09B8002F09B9003009BA004C
:100CE800B70A0319B80A0319B90A0319BA0A842EEC
:100CF8003008BA002F08B9002E08B8002D08B70030
:100D080030082F042E042D04031D8B2E8C2E952EB7
:100D18000030B0000030AF000030AE000030AD0051
:100D28001B2F9630B1003108B600A72E0130B10054
:100D38003108B60701300310BA0CB90CB80CB70C5F
:100D4800FF3E031D9F2EFE303A05031DAC2EAD2E2F
:100D58009A2EC92E0130B1003108B6070130B70705
:100D6800003003180130B807003003180130B90704
:100D7800003003180130BA0701300310BA0CB90C5F
:100D8800B80CB70CFF3E031DC12EFF303A05031DFA
:100D9800CE2ECF2EAE2EDB2E0130B6020130B100A2
:100DA8000310B70DB80DB90DBA0DB10BD42EB91B80
:100DB800DE2EDF2EE52E023036020318E42EE52E55
:100DC800D02E3618E82EE92EF12EFF30B705FF3069
:100DD800B8057F30B905FF30BA050310B60C3608E0
:100DE800B100B201B301B40118300310B10DB20D56
:100DF800B30DB40DFF3E031DF92E3108B7043208B8
:100E0800B8043308B9043408BA04350803190D2F97
:100E18000E2F132FB01F112F122F132FBA173A08A6
:100E2800B0003908AF003808AE003708AD00080038
:100E38000310831203135F0D600D83160313A000C4
:100E48002008A6002608031D2A2F2B2F362F003036
:100E580083120313E0000030DF000030DE000030B2
:100E6800DD00B92F831203135D0883160313A00056
:100E7800831203135E0883160313A100831203135E
:100E88005F0883160313A2008312031360088316F6
:100E98000313A3001F300310A30CA20CA10CA00C79
:100EA800FF3E031D4F2F2008A4002408A50083122D
:100EB8000313DF17FF30DD05FF30DE05FF30DF05E8
:100EC8000030E005963083160313A602A61F6D2F87
:100ED8006E2F8C2F2608803A973E0318742F752F93
:100EE800762F2B2F0130031083120313E00CDF0C35
:100EF800DE0CDD0CFF3E031D772F01308316031334
:100F0800A0002008A607031D8A2F8B2F762FA72F56
:100F180020302602031C912F922FA22F2B2F013055
:100F2800A000031083120313DD0DDE0DDF0DE00DAD
:100F380083160313A00B952F0130A6022608031D64
:100F4800A62FA72F932F25080319AB2FAC2FB92F46
:100F580083120313DD09DE09DF09E009DD0A03193D
:100F6800DE0A0319DF0A0319E00A0800F90072080B
:100F780084000008031DC12FC22FCD2F72088400E2
:100F88000008013EF700720884007708800079089D
:100F9800EF2F720884000003031DD32FD42FDF2FF7
:100FA800720884000008013EF70072088400770880
:100FB80080007008EF2F7208840002300006031DBD
:100FC800E62FE72FEC2F7208840080017108EF2FBD
:080FD800720884000008080003
:101B5A000A128A1556260A128A150A128A15D525D4
:101B6A000A128A1530300A128A15EF250A128A15C6
:101B7A00080083120313A900081388132908860092
:101B8A008816063083120313A8002F30A700A70B6C
:101B9A00CC2DA80BCC2DD12D83120313881208004B
:101BAA00831603130510851005158316031788017C
:101BBA00831203138514063083120313A90013300A
:101BCA00A800AD30A700A70BE82DA80BE82DA90B9C
:101BDA00E82D080083120313A700270883160313AE
:101BEA009300363083120313940080308316031354
:101BFA00940001309100871507168B170B17831273
:101C0A0003138C11831603138C150800803083127A
:101C1A000313D8065C08AA005B08A9005A08A800A2
:101C2A005908A7005808AE005708AD005608AC007E
:101C3A005508AB000A128A112A200A128A15831241
:101C4A0003132A08D8002908D7002808D60027082D
:101C5A00D500080083120313AB01AC01271C362EF2
:101C6A00372E3D2E2908AB070318AC0A2A08AC0701
:101C7A0001300310A90DAA0DFF3E031D3E2E0130AF
:101C8A000310A80CA70CFF3E031D452E27082804A5
:101C9A00031D502E512E332E2C08A8002B08A70006
:101CAA000800831603138601831603178901831616
:101CBA0003138801153083120313AB00C530AA0041
:101CCA00AA0B652EAB0B652E6A2E03300A128A15F3
:101CDA00BE250A128A15063083120313AB0072302E
:101CEA00AA00AA0B762EAB0B762E000003300A123E
:101CFA008A15BE250A128A15C73083120313AA0051
:101D0A00862EAA0B852E892E03300A128A15BE2525
:101D1A000A128A1538300A128A15BE250A128A153D
:101D2A000C300A128A15BE250A128A1506300A12C2
:101D3A008A15BE250A128A15080083120313AE01FA
:101D4A00AF018510C73083120313A900AC2EA90B6B
:101D5A00AB2EAF2E83120313AD010514C7308312C5
:101D6A000313A900B82EA90BB72EBB2E8312031397
:101D7A00050CA900290C0139AA002E082A04AB0077
:101D8A002F08AC002B08AE002C08AF00013003105E
:101D9A00AE0DAF0DFF3E031DCC2E0510C7308312CA
:101DAA000313A900D82EA90BD72EDB2E01308312DC
:101DBA000313A9002908AD0710302D02031CE62ED3
:101DCA00E72EB22E85142E1DEB2EEC2EF12E9C3012
:101DDA00A700FF30A8000A2F03300310AF0CAE0C87
:101DEA00FF3E031DF22E2F08AA002E08A900031099
:101DFA00AA0CA90C0310AA0CA90C2908AE002A08DF
:101E0A00AF002F08A8002E08A70008000A128A159A
:101E1A00AD250A128A150A128A15A2260A128A15ED
:101E2A00831203132708E1002808E200E301E40112
:101E3A00831603134408AA004308A9004208A8000D
:101E4A004108A7007D30BE003E08AB007C30BF00D1
:101E5A003F08AC007B30C0004008AD000A128A116E
:101E6A008F240A128A157A08031D3C2F3D2F642FEE
:101E7A009C30831203136106031D4E2F620A031D51
:101E8A004E2F630A031D4E2F640A03194D2F4E2F3E
:101E9A00642F640883160313C400831203136308B0
:101EAA0083160313C30083120313620883160313F2
:101EBA00C20083120313610883160313C1000230A0
:101ECA0083160313C0004530BF00A930BE00BE0B05
:101EDA006C2FBF0B6C2FC00B6C2F102F0A128A119C
:101EEA0010288C1D792F7A2FF72F1412141B7E2F8E
:101EFA007F2F832F941F822F832F8A2F1308A000EE
:101F0A002008E60014139413141683160313941A64
:101F1A008F2F902FB02F1419932F942FB02F831235
:101F2A0003131308A0002008E6008C111416831668
:101F3A000313141CA12FA22F9C2F8312031313081F
:101F4A00A0002008E700523083120313A000A00B60
:101F5A00AC2F0000F42F941AB32FB42FF42F141DB2
:101F6A00B72FB82FF42F831203131308A0002008E9
:101F7A00E6008316031314107C0883120313A000CF
:101F8A002008F0007B08A1002108F1007A30A200A5
:101F9A002208F200831603134408F6004308F500EA
:101FAA004208F4004108F3007D080A128A11BA2790
:101FBA000A128A1583120313A3002308E500650891
:101FCA0093001416523083120313A000A00BEB2FB8
:101FDA000000831603131418F32FF42FEE2F831225
:101FEA0003138C1126088A0025088400240E830016
:061FFA00FE0E7E0E090040
:04400E00D4E0FFFFFC
:00000001FF
