:020000040000FA
:100000000A128A11F52F0A128A110E200A128A1179
:100010000A128A15F4260A128A110800831603139D
:10002000860183160317890183160313880115308F
:10003000F400C630F300F30B1B28F40B1B28000060
:1000400003300A128A1516270A128A110630F400A4
:100050007330F300F30B2A28F40B2A2803300A121A
:100060008A1516270A128A11C730F3003728F30BB6
:1000700036283A283B2803300A128A1516270A1216
:100080008A1138300A128A1516270A128A110C3082
:100090000A128A1516270A128A1106300A128A15C0
:1000A00016270A128A110800F5008312031385101F
:1000B000C730F0005B28F00B5A285E285F28F80153
:1000C00083120313050CF000700C0139F100F201EA
:1000D0007108F3007208F40073087604F6007408DF
:1000E0007704F70001300310F60DF70DFF3E031DF6
:1000F00073280514C730F0007D28F00B7C28802879
:100100008128831203130510C730F0008728F00BF5
:1001100086288A288B280130F0007008F8071030F4
:100120007802031C942895286028C730F00098288E
:10013000F00B97289B289C288312031385147708BB
:10014000F1007608F0000310F10CF00C0310F10C34
:10015000F00C0310F10CF00C750884007008831388
:100160008000840A7108800008000A128A110320A6
:100170000A128A1183120313851458300A128A1145
:1001800054200A128A11831203135908C100580817
:10019000C0005C30D5005508C2005B30D600560860
:1001A000C3005A30D7005708C4000A128A115222DD
:1001B0000A128A11033083120313D5005508F30085
:1001C00001300A128A152B270A128A1101300A12ED
:1001D0008A1597270A128A11083083120313D50053
:1001E0005508F30002300A128A152B270A128A11C9
:1001F000831203135C080A128A1502270A128A1155
:10020000831203135B080A128A1502270A128A1145
:100210000D300A128A1597270A128A1183120313C6
:100220005A080A128A1502270A128A11BD280A12D0
:100230008A110028031083120313370D380DB900FB
:100240003908BF003F08031D26292729302900301F
:10025000B8000030B7000030B6000030B500952976
:100260003508B9003608BA003708BB003808BC00AA
:100270001F300310BC0CBB0CBA0CB90CFF3E031DA5
:1002800039293908BD003D08BE00B717FF30B50554
:10029000FF30B605FF30B7050030B8059630BF0215
:1002A000BF1F532954296E293F08803A973E0318EF
:1002B0005A295B295C29272901300310B80CB70C97
:1002C000B60CB50CFF3E031D5D290130B90039089D
:1002D000BF07031D6C296D295C29852920303F0249
:1002E000031C73297429802927290130B9000310C0
:1002F000B50DB60DB70DB80DB90B77290130BF029A
:100300003F08031D8429852975293E080319892979
:100310008A299529B509B609B709B809B50A031993
:10032000B60A0319B70A0319B80A0800831203139F
:10033000A000200803199D299E29B229F91FA1298F
:10034000A229B2297609A2007709A3007809A4009E
:100350007909A500A20A0319A30A0319A40A03191B
:10036000A50ABA297908A5007808A4007708A3008F
:100370007608A2007908780477047604031DC12961
:10038000C229CB290030F9000030F8000030F70016
:100390000030F600512A9630FA007A08A100DD29D3
:1003A0000130FA007A08A10701300310A50CA40C53
:1003B000A30CA20CFF3E031DD529FE302505031D0D
:1003C000E229E329D029FF290130FA007A08A107A0
:1003D0000130A207003003180130A30700300318D2
:1003E0000130A407003003180130A50701300310C5
:1003F000A50CA40CA30CA20CFF3E031DF729FF3093
:100400002505031D042A052AE429112A0130A10229
:100410000130FA000310A20DA30DA40DA50DFA0BD7
:100420000A2AA41B142A152A1B2A023021020318A7
:100430001A2A1B2A062A21181E2A1F2A272AFF30B9
:10044000A205FF30A3057F30A405FF30A5050310EA
:10045000A10C2108FA00FB01FC01FD01183003107A
:10046000FA0DFB0DFC0DFD0DFF3E031D2F2A7A0832
:10047000A2047B08A3047C08A4047D08A50420082A
:100480000319432A442A492AF91F472A482A492A94
:10049000A5172508F9002408F8002308F70022080A
:1004A000F6000800FF30831203134005F6000F30FA
:1004B0004105F700F801F90100300A128A1196216E
:1004C0000A128A11790883120313D2007808D10026
:1004D0007708D0007608CF006430F0000030F100DB
:1004E0004108F3004008F2000A128A15BC270A12DC
:1004F0008A11700883120313C5004508D4005208FE
:10050000F7005108F6005008F5004F08F40041309C
:10051000F3002030F2000030F1000030F0000A1249
:100520008A117A230A128A11730883120313B40002
:100530007208B3007108B2007008B1000A30F2000E
:100540000030F3005408C500C6014508F000460815
:10055000F1000A128A1572270A128A117008F60031
:100560007108F7000030F71BFF30F800F900013088
:100570000A128A1196210A128A117908831203132A
:10058000B0007808AF007708AE007608AD000A1218
:100590008A154E270A128A11831203133008B800F5
:1005A0002F08B7002E08B6002D08B5000A128A11D0
:1005B0001A210A128A11831203133508C70047084B
:1005C000D3005208F7005108F6005008F5004F0814
:1005D000F4003F30F3008030F2000030F1000030D2
:1005E000F0000A128A117A230A128A117308831200
:1005F0000313B4007208B3007108B2007008B100B0
:100600006430F2000030F3005408C500C60145080C
:10061000F0004608F1000A128A1572270A128A11A0
:10062000700883120313C7007108C8000A30F20073
:100630000030F3005308C900CA014908F0004A0815
:10064000F1000A128A1572270A128A1170088312A1
:1006500003134707CB0071080318710A4807CC0041
:100660004B08F6004C08F7000030F71BFF30F8008D
:10067000F90001300A128A1196210A128A117908AA
:1006800083120313B0007808AF007708AE00760835
:10069000AD000A128A154E270A128A11831203131B
:1006A0003008B8002F08B7002E08B6002D08B50096
:1006B0000A128A111A210A128A11831203133508A9
:1006C000CD004D08CE005408303EC50042088400DD
:1006D0004508831380005308303EC500430884005A
:1006E000450880004E08303EC50044088400450897
:1006F0008000080077088039F80078088312031317
:10070000A4007708F8007807F9007908AB00F61F15
:100710008A2B8B2B8C2B2B142B080319902B912BB2
:10072000A12B2B0A031D952B962B9E2B0030F70037
:100730000030F6000030F5000030F400F617F70145
:10074000A92B0030F7000030F6000030F500003033
:10075000F40073088039F8007808A4067308F800DC
:100760007807F9007908AC00F21FB72BB82BB92B2A
:100770002C142C080319BD2BBE2BCE2B2C0A031DC9
:10078000C22BC32BCB2B0030F3000030F200003023
:10079000F1000030F000F217F301D62B0030F30027
:1007A0000030F2000030F1000030F00073087204F5
:1007B00071047004031DDD2BDE2BF72B0030F700D6
:1007C0000030F6000030F5000030F4008030F60410
:1007D0007F30F7042408F8007808F7047708F3005E
:1007E0007608F2007508F1007408F0005C2D2B0803
:1007F000031DFB2BFC2B052C0030F3000030F20016
:100800000030F1000030F0005C2D2B08F800F901F9
:100810007908FB002C087802FA00031CFB037A0815
:100820007F3EA5007B080318013E003EA600770826
:10083000A3007608A2007508A1007408A00000308B
:10084000F7000030F6000030F5000030F400003012
:10085000AA000030A9000030A8000030A700AC01B9
:10086000812C2C080319352C362C562C0130F8001D
:100870000310A00DA10DA20DA30DF80B382C013013
:10088000F8000310F40DF50DF60DF70DF80B412CE3
:10089000AA1F4B2C4C2C4D2C74140130F800031063
:1008A000A70DA80DA90DAA0DF80B4F2C7308230254
:1008B000031D642C72082202031D642C710821029E
:1008C000031D642C70082002031C672C682C7D2CEF
:1008D0002A177008A0027108031C710F702C712C6C
:1008E000A1027208031C720F762C772CA2027308E7
:1008F000031C730F7C2C7D2CA3020130F8007808B8
:10090000AC071A302C02031C862C872C312C2308B0
:1009100022042104200403198E2C8F2CAE2C2714C2
:10092000AE2C0130F8000310F40DF50DF60DF70DA7
:10093000F80B932CAA1F9D2C9E2C9F2C7414013015
:10094000F8000310A70DA80DA90DAA0DF80BA12CF6
:10095000FF30A5070318A60AFF30A607F61FB12C23
:10096000B22C912CAC01AA1FB62CB72CD32CFF3083
:100970002705F800FF302805F900FF302905FA00A7
:100980007F302A05FB007B087A0479047804031978
:10099000CA2CCB2CCE2CAC01AC0AD32C741CD12C81
:1009A000D22CD32CCB2C2C080319D72CD82C092DC6
:1009B0000130F407003003180130F5070030031848
:1009C0000130F607003003180130F707771CE92CD7
:1009D000EA2C092D7408F8007508F9007608FA0069
:1009E0007708FB000130FC007B0DFB0CFA0CF90CC6
:1009F000F80CFC0BF42C7B08F7007A08F600790859
:100A0000F5007808F4000130A5070318A60A0030A5
:100A1000A6072608803AFF0080307F02031D122DB2
:100A2000FF302502031C152D162D242DFF308312B7
:100A30000313A5000030A6000030F7000030F600D8
:100A40000030F5000030F400831203132608803ACA
:100A5000FF0080307F02031D2F2D01302502031877
:100A6000322D332D402D83120313A501A601003032
:100A7000F7000030F6000030F5000030F400A4016B
:100A8000831203132508F8007808AB002B1C492DAE
:100A90004A2D4C2DF617502D7F30F8007808F605BA
:100AA0002B08F8000310780CF9007908F7002408E7
:100AB000F8007808F704EE2B0800730880398312D9
:100AC0000313A0002008F8007308A0002007A1006D
:100AD0002108FA00F21F6D2D6E2D6F2D7A147A0801
:100AE0000319732D742D842D7A0A031D782D792D09
:100AF000812D0030F3000030F2000030F1000030B2
:100B0000F000F217F3018C2D0030F3000030F200FA
:100B10000030F1000030F00077088039A000200894
:100B2000F900790878060319962D972D982D7817D6
:100B30007708A0002007A1002108F900F61FA12DC9
:100B4000A22DA32D791479080319A72DA82DB82D4E
:100B5000790A031DAC2DAD2DB52D0030F700003006
:100B6000F6000030F5000030F400F617F701C02D54
:100B70000030F7000030F6000030F5000030F400DF
:100B80007A0879020318C52DC62D0A2E781FC92DA3
:100B9000CA2DCE2D8030A0002008F8067A08A000CB
:100BA0002008FB007908A0002008FA007B08A000BC
:100BB0002008F9007008A0002008FB007408A000BD
:100BC0002008F0007B08A0002008F4007108A000B5
:100BD0002008FB007508A0002008F1007B08A00099
:100BE0002008F5007208A0002008FB007608A0008D
:100BF0002008F2007B08A0002008F6007308A0007F
:100C00002008FB007708A0002008F3007B08A00064
:100C10002008F700FB017908A000A1012108A3002A
:100C20007A082002A200031CA3032308803AFF00D5
:100C300080307F02031D1E2E1A302202031C212E3B
:100C4000222E632E7308720471047004031D292E72
:100C50002B2E01302C2E003083120313A00020080D
:100C6000FB000030F3000030F2000030F1000030F3
:100C7000F0007908A0002008FA00692E7B1C412EA4
:100C8000422E4D2E7B0883120313A0000310200C6C
:100C90000138A1002108FB004F2E0310FB0C701C33
:100CA000522E532E542EFB17013083120313A00033
:100CB000730DF30CF20CF10CF00CA00B582E01305C
:100CC000A0002008FA0779087A02031C682E692E12
:100CD0003E2E781B6C2E6D2EBC2E7A08031D712EB5
:100CE000722E7B2E0030F3000030F2000030F10055
:100CF0000030F000F42F7408F00775080311031892
:100D0000013E0319842EF107760803110318013EF2
:100D100003198B2EF207770803110318013E0319FC
:100D2000922EF307731C952E962E742F7B1C992EF2
:100D30009A2EA52E7B0883120313A0000310200C0B
:100D40000138A1002108FB00A72E0310FB0C701C2A
:100D5000AA2EAB2EAC2EFB17013083120313A0007A
:100D6000730DF30CF20CF10CF00CA00BB02E013053
:100D7000A0002008FA07742F7308803AFF00770854
:100D8000803A7F02031DCE2E76087202031DCE2EFE
:100D900075087102031DCE2E740870020318D12E3F
:100DA000D22E2C2FFF3083120313A000FF30A1009E
:100DB000FF30A200FF30A3007408A4007508A5004E
:100DC0007608A6007708A7007008A4027108031C23
:100DD000710FEB2EEC2EA5027208031C720FF12E80
:100DE000F22EA6027308031C730FF72EF82EA7022B
:100DF0002408A00725080318250FFF2E002FA107A0
:100E000026080318260F052F062FA2072708031808
:100E1000270AA3072308F3002208F2002108F100A3
:100E20002008F0008030A0002008F806FB09FB0A2B
:100E30007B08031D1C2F1D2F3A2F0130F0070030B7
:100E400003180130F107003003180130F2070030B9
:100E500003180130F3073A2F7408F0027508031CD9
:100E6000750FF1027608031C760FF2027708031C57
:100E7000770FF3027308720471047004031D412F8D
:100E8000422F702F7B08031D462F472F702F0030F5
:100E9000F3000030F2000030F1000030F000F42FD9
:100EA000013083120313A0000310F00DF10DF20DB9
:100EB000F30DA00B542FFB1F5E2F5F2F602F7014BC
:100EC0007B1C632F642F672F0314FB0D692F031006
:100ED000FB0D7A0803196D2F6E2F702F0130FA0267
:100EE000F21F732F742F502FF901FB1F782F792FCA
:100EF000872F7B087F3903197E2F7F2F822FF901DF
:100F0000F90A872F701C852F862F872F7F2F79084E
:100F100003198B2F8C2FC22F0130F00700300318DC
:100F20000130F107003003180130F20700300318D8
:100F30000130F307731C9D2F9E2FC22F7008831260
:100F40000313A0007108A1007208A2007308A30097
:100F50000130A400230DA30CA20CA10CA00CA40B27
:100F6000AA2F2308F3002208F2002108F10020082C
:100F7000F0007A0A0319BD2FBE2FC22F0130A00046
:100F80002008FA077A0A0319C62FC72FCC2F7A0830
:100F9000031DCB2FCC2FDA2F0030F3000030F200EE
:100FA0000030F1000030F0007A08031DD82FD92F4F
:100FB000DA2FF8017A1CDD2FDE2FE02FF217E62F53
:100FC0007F3083120313A0002008F2057A088312F1
:100FD0000313A0000310200CA1002108F300F81F48
:100FE000F22FF32FF42FF317080083120313D80105
:100FF000D901DA01DB01DC0183010A128A11B5286B
:1010000008308A000408840A820700347434653486
:101010006D347034653472346134743475347234C0
:08102000613400342E34003469
:101DE800831603178801831603130510851005153C
:101DF800831203138514051105100800F2008312DD
:101E0800031388177208860088160630F1003030F0
:101E1800F000F00B0D2FF10B0D2F000083120313B0
:101E280088120800F200831203130813881372083B
:101E3800860088160630F1003030F000F00B222FB3
:101E4800F10B222F00008312031388120800F600FA
:101E58003D2F73087F3E0A128A1516270A128A1523
:101E68004D2F7308BF3E0A128A1516270A128A15C3
:101E78004D2F7608F400F5017508003A0319452F2F
:101E88004D2F7408013A03192D2F033A0319352FE2
:101E98004D2F0800803083120313B0063408F30076
:101EA8003308F2003208F1003108F0003008F7007A
:101EB8002F08F6002E08F5002D08F4000A128A11E2
:101EC8005D250A128A15730883120313B00072087D
:101ED800AF007108AE007008AD000800F401F5010C
:101EE800701C772F782F7E2F7208F4070318F50AD5
:101EF8007308F50701300310F20DF30DFF3E031DC3
:101F08007F2F01300310F10CF00CFF3E031D862FCC
:101F180070087104031D912F922F742F7508F1001A
:101F28007408F0000800F500F301F401AE2F7308FF
:101F3800750784000A128A1500200A128A150A12E7
:101F48008A1502270A128A150130F3070318F40AC2
:101F58000030F4077308750784000A128A150020F8
:101F68000A128A15003A031DBA2FBB2F9B2F0800AF
:101F7800F501F601700871040319C32FC42FFB2F54
:101F8800F701F70AD22F01300310F00DF10DFF3ED3
:101F9800031DC82F0130F4007408F707F11FD52F6F
:101FA800D62FC72F01300310F50DF60DFF3E031D88
:101FB800D72F71087302031DE32F70087202031CE8
:101FC800E62FE72FEE2F7008F2027108031CF303C7
:101FD800F302751401300310F10CF00CFF3E031DE1
:101FE800EF2F0130F702031DFA2FFB2FD62F7608AB
:081FF800F1007508F00008007B
:04400E00D4E0FFFFFC
:00000001FF
