:020000040000FA
:060000000A128A11F62F1E
:10000800F300831603138712731D0B280C2810287E
:1000180072089400871514287008720494008711D8
:100028007308710483120313940008007708803959
:10003800F800780883120313A4007708F8007807FB
:10004800F9007908AB00F61F2A282B282C282B1436
:100058002B0803193028312841282B0A031D35287D
:1000680036283E280030F7000030F6000030F50052
:100078000030F400F617F70149280030F700003087
:10008800F6000030F5000030F40073088039F800FD
:100098007808A4067308F8007807F9007908AC0016
:1000A800F21F5728582859282C142C0803195D28A2
:1000B8005E286E282C0A031D622863286B280030EE
:1000C800F3000030F2000030F1000030F000F217C9
:1000D800F30176280030F3000030F2000030F10020
:1000E8000030F0007308720471047004031D7D2849
:1000F8007E2897280030F7000030F6000030F50021
:100108000030F4008030F6047F30F7042408F8004B
:100118007808F7047708F3007608F2007508F1000C
:100128007408F000FC292B08031D9B289C28A5288F
:100138000030F3000030F2000030F1000030F00031
:10014800FC292B08F800F9017908FB002C08780233
:10015800FA00031CFB037A087F3EA5007B080318FE
:10016800013E003EA6007708A3007608A2007508A5
:10017800A1007408A0000030F7000030F60000303D
:10018800F5000030F4000030AA000030A90000306B
:10019800A8000030A700AC0121292C080319D52894
:1001A800D628F6280130F8000310A00DA10DA20DE5
:1001B800A30DF80BD8280130F8000310F40DF50D45
:1001C800F60DF70DF80BE128AA1FEB28EC28ED280F
:1001D80074140130F8000310A70DA80DA90DAA0D7D
:1001E800F80BEF2873082302031D04297208220262
:1001F800031D042971082102031D04297008200227
:10020800031C072908291D292A177008A00271084C
:10021800031C710F10291129A1027208031C720F07
:1002280016291729A2027308031C730F1C291D29FC
:10023800A3020130F8007808AC071A302C02031C1E
:1002480026292729D1282308220421042004031958
:100258002E292F294E2927144E290130F800031082
:10026800F40DF50DF60DF70DF80B3329AA1F3D29EE
:100278003E293F2974140130F8000310A70DA80D7A
:10028800A90DAA0DF80B4129FF30A5070318A60AE6
:10029800FF30A607F61F512952293129AC01AA1FA0
:1002A800562957297329FF302705F800FF302805FC
:1002B800F900FF302905FA007F302A05FB007B088A
:1002C8007A047904780403196A296B296E29AC0128
:1002D800AC0A7329741C7129722973296B292C089B
:1002E800031977297829A9290130F4070030031860
:1002F8000130F507003003180130F6070030031805
:100308000130F707771C89298A29A9297408F80078
:100318007508F9007608FA007708FB000130FC0040
:100328007B0DFB0CFA0CF90CF80CFC0B94297B08E0
:10033800F7007A08F6007908F5007808F40001302B
:10034800A5070318A60A0030A6072608803AFF006A
:1003580080307F02031DB229FF302502031CB52916
:10036800B629C429FF3083120313A5000030A60064
:100378000030F7000030F6000030F5000030F400DF
:10038800831203132608803AFF0080307F02031D82
:10039800CF29013025020318D229D329E029831255
:1003A8000313A501A6010030F7000030F600003065
:1003B800F5000030F400A401831203132508F800A7
:1003C8007808AB002B1CE929EA29EC29F617F02953
:1003D8007F30F8007808F6052B08F8000310780C31
:1003E800F9007908F7002408F8007808F7048E283F
:1003F80008007308803983120313A0002008F8004E
:100408007308A0002007A1002108FA00F21F0D2A96
:100418000E2A0F2A7A147A080319132A142A242A6E
:100428007A0A031D182A192A212A0030F3000030FD
:10043800F2000030F1000030F000F217F3012C2A2E
:100448000030F3000030F2000030F1000030F0001E
:1004580077088039A0002008F90079087806031980
:10046800362A372A382A78177708A0002007A100EB
:100478002108F900F61F412A422A432A79147908EB
:100488000319472A482A582A790A031D4C2A4D2A53
:10049800552A0030F7000030F6000030F500003033
:1004A800F400F617F701602A0030F7000030F60074
:1004B8000030F5000030F4007A0879020318652A44
:1004C800662AAA2A781F692A6A2A6E2A8030A0001A
:1004D8002008F8067A08A0002008FB007908A00088
:1004E8002008FA007B08A0002008F9007008A00086
:1004F8002008FB007408A0002008F0007B08A0007A
:100508002008F4007108A0002008FB007508A0006E
:100518002008F1007B08A0002008F5007208A00060
:100528002008FB007608A0002008F2007B08A00045
:100538002008F6007308A0002008FB007708A00038
:100548002008F3007B08A0002008F700FB017908C9
:10055800A000A1012108A3007A082002A200031C20
:10056800A3032308803AFF0080307F02031DBE2AC0
:100578001A302202031CC12AC22A032B73087204F0
:1005880071047004031DC92ACB2A0130CC2A00301B
:1005980083120313A0002008FB000030F300003092
:1005A800F2000030F1000030F0007908A0002008C7
:1005B800FA00092B7B1CE12AE22AED2A7B08831228
:1005C8000313A0000310200C0138A1002108FB0030
:1005D800EF2A0310FB0C701CF22AF32AF42AFB17EB
:1005E800013083120313A000730DF30CF20CF10C0D
:1005F800F00CA00BF82A0130A0002008FA077908AF
:100608007A02031C082B092BDE2A781B0C2B0D2BD6
:100618005C2B7A08031D112B122B1B2B0030F300C7
:100628000030F2000030F1000030F000942C740823
:10063800F007750803110318013E0319242BF1076D
:10064800760803110318013E03192B2BF2077708CC
:1006580003110318013E0319322BF307731C352BC2
:10066800362B142C7B1C392B3A2B452B7B088312F9
:100678000313A0000310200C0138A1002108FB007F
:10068800472B0310FB0C701C4A2B4B2B4C2BFB17D6
:10069800013083120313A000730DF30CF20CF10C5C
:1006A800F00CA00B502B0130A0002008FA07142CE6
:1006B8007308803AFF007708803A7F02031D6E2B8B
:1006C80076087202031D6E2B75087102031D6E2BCE
:1006D800740870020318712B722BCC2BFF30831215
:1006E8000313A000FF30A100FF30A200FF30A300D9
:1006F8007408A4007508A5007608A6007708A70066
:100708007008A4027108031C710F8B2B8C2BA50297
:100718007208031C720F912B922BA6027308031CFC
:10072800730F972B982BA7022408A00725080318F6
:10073800250F9F2BA02BA10726080318260FA52BF2
:10074800A62BA20727080318270AA3072308F300E4
:100758002208F2002108F1002008F0008030A000F3
:100768002008F806FB09FB0A7B08031DBC2BBD2BE0
:10077800DA2B0130F007003003180130F1070030A0
:1007880003180130F207003003180130F307DA2BA1
:100798007408F0027508031C750FF1027608031C33
:1007A800760FF2027708031C770FF30273087204BE
:1007B80071047004031DE12BE22B102C7B08031D30
:1007C800E62BE72B102C0030F3000030F20000304D
:1007D800F1000030F000942C013083120313A000C4
:1007E8000310F00DF10DF20DF30DA00BF42BFB1F10
:1007F800FE2BFF2B002C70147B1C032C042C072CC5
:100808000314FB0D092C0310FB0D7A0803190D2C9A
:100818000E2C102C0130FA02F21F132C142CF02B82
:10082800F901FB1F182C192C272C7B087F39031979
:100838001E2C1F2C222CF901F90A272C701C252CA0
:10084800262C272C1F2C790803192B2C2C2C622CD6
:100858000130F007003003180130F10700300318A9
:100868000130F207003003180130F307731C3D2CE8
:100878003E2C622C700883120313A0007108A1009B
:100888007208A2007308A3000130A400230DA30C72
:10089800A20CA10CA00CA40B4A2C2308F3002208DC
:1008A800F2002108F1002008F0007A0A03195D2CF3
:1008B8005E2C622C0130A0002008FA077A0A03197E
:1008C800662C672C6C2C7A08031D6B2C6C2C7A2CEC
:1008D8000030F3000030F2000030F1000030F0008A
:1008E8007A08031D782C792C7A2CF8017A1C7D2C37
:1008F8007E2C802CF217862C7F3083120313A000E5
:100908002008F2057A0883120313A0000310200CB4
:10091800A1002108F300F81F922C932C942CF317B4
:1009280008008312031329088039AE002E08B3008B
:100938002908AE002E07AF002F08B900A81FA52C64
:10094800A62CA72C391439080319AB2CAC2CBB2CBA
:10095800390A031DB02CB12CB92C0030A900003085
:10096800A8000030A7000030A600A817C32C00304C
:10097800A9000030A8000030A7000030A6002D080C
:100988008039AE002E08B3062D08AE002E07AF0042
:100998002F08B800AC1FD12CD22CD32C381438080F
:1009A8000319D72CD82CE72C380A031DDC2CDD2C96
:1009B800E52C0030AD000030AC000030AB0000305A
:1009C800AA00AC17EF2C0030AD000030AC000030AE
:1009D800AB000030AA0038080319F32CF42CF92CCA
:1009E8003908031DF82CF92C022D0030A90000301D
:1009F800A8000030A7000030A600F52F2608AE009A
:100A08002E08F0002C080A128A1528240A128A11C6
:100A1800710883120313BF007008BE003E08AE00C1
:100A2800AF01B001B1013108B7003008B6002F0896
:100A3800B5002E08B4003F08AE00AF01B001B10107
:100A48003108BD003008BC002F08BB002E08BA00D2
:100A58002708AE002E08F0002B080A128A15282451
:100A68000A128A11710883120313BF007008BE00AE
:100A78003E08AE00AF01B001B1012E08B4072F083F
:100A880003110318013E03194A2DB5073008031155
:100A98000318013E0319512DB60731080311031835
:100AA800013E0319582DB7073F08AE00AF01B0014A
:100AB800B1012E08BA072F0803110318013E0319C4
:100AC800662DBB07300803110318013E03196D2D6D
:100AD800BC07310803110318013E0319742DBD0723
:100AE8002808AE002E08F0002A080A128A152824C1
:100AF8000A128A11710883120313BF007008BE001E
:100B08003E08AE00AF01B001B1012E08B4072F08AE
:100B180003110318013E0319922DB507300803117C
:100B28000318013E0319992DB6073108031103185C
:100B3800013E0319A02DB7073F08AE00AF01B00171
:100B4800B1012E08BA072F0803110318013E031933
:100B5800AE2DBB07300803110318013E0319B52D4C
:100B6800BC07310803110318013E0319BC2DBD074A
:100B78000830AE000310B40DB50DB60DB70DAE0BB1
:100B8800BE2D2708AE002E08F0002A080A128A1582
:100B980028240A128A11710883120313BF007008EF
:100BA800BE003E08AE003F08AF00B001B1012E08FC
:100BB800B4072F0803110318013E0319E42DB507E4
:100BC800300803110318013E0319EB2DB60731084D
:100BD80003110318013E0319F22DB7072608AE00CA
:100BE8002E08F0002B080A128A1528240A128A11E6
:100BF800710883120313BF007008BE003E08AE00E0
:100C08003F08AF00B001B1012E08B4072F08031147
:100C18000318013E0319112EB507300803110318F4
:100C2800013E0319182EB607310803110318013EB7
:100C380003191F2EB7070830AE000310B40DB50D09
:100C4800B60DB70DAE0B212E2608AE002E08F0000B
:100C58002A080A128A1528240A128A11710883128E
:100C68000313BF007008BE003E08AE003F08AF0087
:100C7800B001B1012E08B4072F0803110318013E73
:100C88000319472EB507300803110318013E03194D
:100C98004E2EB607310803110318013E0319552ECD
:100CA800B7072708AE002E08F0002C080A128A158C
:100CB80028240A128A11710883120313BF007008CE
:100CC800BE003E08AE003F08AF00B001B1012E08DB
:100CD800BA072F0803110318013E0319742EBB0726
:100CE800300803110318013E03197B2EBC07310895
:100CF80003110318013E0319822EBD072808AE0010
:100D08002E08F0002B080A128A1528240A128A11C4
:100D1800710883120313BF007008BE003E08AE00BE
:100D28003F08AF00B001B1012E08BA072F08031120
:100D38000318013E0319A12EBB073008031103183D
:100D4800013E0319A82EBC07310803110318013E00
:100D58000319AF2EBD072808AE002E08F0002C0896
:100D68000A128A1528240A128A1171088312031399
:100D7800BF007008BE003E08AE003F08AF00B001DB
:100D8800B10108300310AE0DAF0DB00DB10DFF3E2F
:100D9800031DC62E2E08BA072F0803110318013E9B
:100DA8000319D72EBB07300803110318013E031996
:100DB800DE2EBC07310803110318013E0319E52E86
:100DC800BD073408AE003508AF003608B000370854
:100DD800B10018300310B10CB00CAF0CAE0CFF3ED4
:100DE800031DEE2E2E08BA072F0803110318013E23
:100DF8000319FF2EBB07300803110318013E03191E
:100E0800062FBC07310803110318013E03190D2FE3
:100E1800BD070830AE000310B40DB50DB60DB70D03
:100E2800AE0B0F2F39083807AE00AF01AF0D2E08F3
:100E3800823EBE002F080318013EFF3EBF00412F2F
:100E48000130AE000310BA0DBB0DBC0DBD0DAE0BCD
:100E5800262FB71F302F312F322F3A140130AE0012
:100E68000310B40DB50DB60DB70DAE0B342FFF3012
:100E7800BE070318BF0AFF30BF07BC1F442F452F0A
:100E8800242FB801B71F492F4A2F662FFF3034058A
:100E9800AE00FF303505AF00FF303605B0007F30BB
:100EA8003705B100310830042F042E0403195D2FD3
:100EB8005E2F612FB801B80A662F3A1C642F652F80
:100EC800662F5E2F380803196A2F6B2F9C2F01306D
:100ED800BA07003003180130BB070030031801308F
:100EE800BC07003003180130BD073D1C7C2F7D2F47
:100EF8009C2F3A08AE003B08AF003C08B0003D0804
:100F0800B1000130B200310DB10CB00CAF0CAE0C19
:100F1800B20B872F3108BD003008BC002F08BB007A
:100F28002E08BA000130BE070318BF0A0030BF07F9
:100F38003F08803AFF0080307F02031DA52FFF3055
:100F48003E02031CA82FA92FB42F7F30831203134E
:100F5800BD008030BC000030BB000030BA00E92F73
:100F6800831203133F08803AFF0080307F02031D7D
:100F7800BF2F01303E020318C22FC32FCF2F0030DE
:100F880083120313BD000030BC000030BB000030EA
:100F9800BA00B301E92F831203133E08AE002E08EE
:100FA800B900FF30BA05FF30BB057F30BC05003003
:100FB800BD05391CE02FE12FE22FBC173908AE0020
:100FC80003102E0CAF002F08BD003308AE002E080A
:100FD800BD043D08A9003C08A8003B08A7003A0842
:100FE800A600080083120313D701D801D901DA013A
:100FF80083010A128A15782D08308A000408840AA9
:1010080082070034743465346D3470346534723456
:101018006134743475347234613400342E340034DD
:10169200F0007008831203139300080083160313EB
:1016A200141C542B552B4F2B08000A128A154F235A
:1016B2000A128A158312031313080800F001F101BC
:1016C200F20122300A128A1104200A128A150A1221
:1016D2008A154F240A128A150800F2008312031396
:1016E20088177208860088160630F1003030F00044
:1016F200F00B792BF10B792B000083120313881264
:101702000800F2008312031308138813720886007C
:1017120088160630F1003030F000F00B8E2BF10B02
:101722008E2B00008312031388120800F600A92BE7
:1017320073087F3E0A128A1582230A128A15B92B70
:101742007308BF3E0A128A1582230A128A15B92B20
:101752007608F400F5017508003A0319B12BB92B8C
:101762007408013A0319992B033A0319A12BB92BD7
:101772000800803083120313B0063408F3003308E4
:10178200F2003208F1003108F0003008F7002F08AB
:10179200F6002E08F5002D08F4000A128A11FD2128
:1017A2000A128A15730883120313B0007208AF007D
:1017B2007108AE007008AD000800F401F501701C5C
:1017C200E32BE42BEA2B7208F4070318F50A7308DB
:1017D200F50701300310F20DF30DFF3E031DEB2B55
:1017E20001300310F10CF00CFF3E031DF22B7008C8
:1017F2007104031DFD2BFE2BE02B7508F10074080C
:10180200F0000800F500F301F4011A2C73087507C3
:1018120084000A128A1500200A128A150A128A15F1
:101822006E230A128A150130F3070318F40A0030F6
:10183200F4077308750784000A128A1500200A1239
:101842008A15003A031D262C272C072C0800F800C5
:10185200F401F5017008F200F3017208F600730852
:10186200F700781C352C362C3C2C7608F40703182C
:10187200F50A7708F50701300310F60DF70DFF3E64
:10188200031D3D2C0310F80C7808031D492C4A2C2B
:10189200322C7508F1007408F00008008316031357
:1018A20086018316031789018316031388011530F5
:1018B200F400C630F300F30B5C2CF40B5C2C00003C
:1018C20003300A128A1582230A128A150630F4009E
:1018D2007330F300F30B6B2CF40B6B2C03300A12F6
:1018E2008A1582230A128A15C730F300782CF30B6B
:1018F200772C7B2C7C2C03300A128A1582230A1245
:101902008A1538300A128A1582230A128A150C3077
:101912000A128A1582230A128A1506300A128A15B9
:1019220082230A128A150800F601F11F992C9A2CBB
:10193200A12CF009F109F00A0319F10AF601F60ADD
:10194200F31FA42CA52CAE2CF209F309F20A0319F9
:10195200F30A0130F4007408F606F701F801700882
:1019620071040319B52CB62CED2CF501F50AC42C23
:1019720001300310F00DF10DFF3E031DBA2C0130B2
:10198200F4007408F507F11FC72CC82CB92C0130DC
:101992000310F70DF80DFF3E031DC92C71087302E9
:1019A200031DD52C70087202031CD82CD92CE02CF4
:1019B2007008F2027108031CF303F302771401307A
:1019C2000310F10CF00CFF3E031DE12C0130F50277
:1019D200031DEC2CED2CC82C76080319F12CF22CEB
:1019E200F72CF709F809F70A0319F80A7808F10041
:1019F2007708F0000800031083120313370D380D27
:101A0200B9003908BF003F08031D082D092D122D0A
:101A12000030B8000030B7000030B6000030B5002A
:101A2200772D3508B9003608BA003708BB003808E8
:101A3200BC001F300310BC0CBB0CBA0CB90CFF3E2F
:101A4200031D1B2D3908BD003D08BE00B717FF302E
:101A5200B505FF30B605FF30B7050030B805963042
:101A6200BF02BF1F352D362D502D3F08803A973EBD
:101A720003183C2D3D2D3E2D092D01300310B80CCD
:101A8200B70CB60CB50CFF3E031D3F2D0130B9005B
:101A92003908BF07031D4E2D4F2D3E2D672D2030D7
:101AA2003F02031C552D562D622D092D0130B90020
:101AB2000310B50DB60DB70DB80DB90B592D013088
:101AC200BF023F08031D662D672D572D3E080319DF
:101AD2006B2D6C2D772DB509B609B709B809B50A72
:101AE2000319B60A0319B70A0319B80A08000A1239
:101AF2008A155F230A128A1501300A128A154923B0
:101B02000A128A15C73083120313D400882DD40B0E
:101B1200872D8B2D00300A128A1549230A128A1545
:101B22000A128A1556230A128A1583120313D40045
:101B32005408D700C73083120313D400A02DD40B4E
:101B42009F2DA32D01300A128A1549230A128A15E4
:101B52005A3083120313D4005408C0005930D50000
:101B62005508C1005830D6005608C20057080A125C
:101B72008A15B9260A128A15033083120313D40078
:101B82005408F30001300A128A1597230A128A15A3
:101B920001300A128A1503240A128A1508308312A8
:101BA2000313D4005408F30002300A128A15972353
:101BB2000A128A15831203135A080A128A156E230F
:101BC2000A128A158312031359080A128A156E2300
:101BD2000A128A150D300A128A1503240A128A156E
:101BE2008312031358080A128A156E230A128A15E1
:101BF200832D0A128A11002883120313A0002008E1
:101C02000319042E052E192EF91F082E092E192E3E
:101C12007609A2007709A3007809A4007909A50032
:101C2200A20A0319A30A0319A40A0319A50A212E59
:101C32007908A5007808A4007708A3007608A20016
:101C42007908780477047604031D282E292E322E73
:101C52000030F9000030F8000030F7000030F600E4
:101C6200B82E9630FA007A08A100442E0130FA000C
:101C72007A08A10701300310A50CA40CA30CA20C36
:101C8200FF3E031D3C2EFE302505031D492E4A2E24
:101C9200372E662E0130FA007A08A1070130A2071A
:101CA200003003180130A307003003180130A407E5
:101CB200003003180130A50701300310A50CA40C55
:101CC200A30CA20CFF3E031D5E2EFF302505031D53
:101CD2006B2E6C2E4B2E782E0130A1020130FA00B1
:101CE2000310A20DA30DA40DA50DFA0B712EA41BBA
:101CF2007B2E7C2E822E023021020318812E822E10
:101D02006D2E2118852E862E8E2EFF30A205FF30D5
:101D1200A3057F30A405FF30A5050310A10C2108FF
:101D2200FA00FB01FC01FD0118300310FA0DFB0D56
:101D3200FC0DFD0DFF3E031D962E7A08A2047B08C2
:101D4200A3047C08A4047D08A50420080319AA2E74
:101D5200AB2EB02EF91FAE2EAF2EB02EA517250832
:101D6200F9002408F8002308F7002208F60008000A
:101D720083120313D1003930A9005630A800F53080
:101D8200A7004530A6005108E73EF600FF300318D1
:101D92000030F700F801F71BF8037808F90001306A
:101DA2000A128A15FD250A128A157908831203136D
:101DB200AD007808AC007708AB007608AA000A12DA
:101DC2008A1195240A128A15831203132908D00056
:101DD2002808CF002708CE002608CD006430F00086
:101DE2000030F1005108C300C4014308F200440866
:101DF200F3000A128A1595240A128A1570088312B2
:101E02000313C5004508D3005008F7004F08F60039
:101E12004E08F5004D08F4004130F3002030F20086
:101E22000030F1000030F0000A128A111A200A1262
:101E32008A15730883120313B4007208B300710881
:101E4200B2007008B1000A30F2000030F30053080B
:101E5200C300C4014308F0004408F1000A128A15C5
:101E6200DE230A128A157008F6007108F7000030A6
:101E7200F71BFF30F800F90001300A128A15FD2520
:101E82000A128A15790883120313B0007808AF008A
:101E92007708AE007608AD000A128A15BA230A1234
:101EA2008A15831203133008B8002F08B7002E08D2
:101EB200B6002D08B5000A128A15FC240A128A15EA
:101EC200831203133508C5004508D2005008F700F5
:101ED2004F08F6004E08F5004D08F4003F30F300BD
:101EE2008030F2000030F1000030F0000A128A1156
:101EF2001A200A128A15730883120313B400720897
:101F0200B3007108B2007008B1006430F200003012
:101F1200F3005308C300C4014308F0004408F10071
:101F22000A128A15DE230A128A1570088312031315
:101F3200C5007108C6000A30F2000030F3005208F2
:101F4200C700C8014708F0004808F1000A128A15C4
:101F5200DE230A128A157008831203134507C9008B
:101F620071080318710A4607CA004908F6004A08B0
:101F7200F7000030F71BFF30F800F90001300A12B9
:101F82008A15FD250A128A15790883120313B000F7
:101F92007808AF007708AE007608AD000A128A15FD
:101FA200BA230A128A15831203133008B8002F08C5
:101FB200B7002E08B6002D08B5000A128A15FC24B7
:101FC2000A128A15831203133508CB004B08CC0082
:101FD2005308303EC3004008840043088313800046
:101FE2005208303EC30041088400430880004C0878
:0E1FF200303EC300420884004308800008000F
:04400E00D4E0FFFFFC
:00000001FF
