:020000040000FA
:060000000A128A110C280F
:10000800FE00030EF0000A08F1000A128A11CE2C35
:100018000A128A110F2883133930FD000430FE00BC
:10002800AD30FF00303084000A128A119E240A1273
:100038008A112030840030300A128A11BF240A1233
:100048008A11F901FA01FB0183010A128A112C288D
:100058000A128A1143240A128A1100300A128A11DC
:10006800D5240A128A11C73083120313B9003C2819
:10007800B90B3B283F2800300A128A11D5240A12EE
:100088008A110A128A11B6240A128A1183120313DA
:10009800B9003908A500143083120313BA00793067
:1000A800B900B90B5528BA0B552801300A128A1124
:1000B800D5240A128A110A128A11B6240A128A1140
:1000C80083120313B9003908A400143083120313F0
:1000D800BA007930B900B90B6F28BA0B6F28023013
:1000E8000A128A11D5240A128A110A128A11B62410
:1000F8000A128A1183120313B9003908A3001430B5
:1001080083120313BA007930B900B90B8928BA0BE6
:10011800892803300A128A11D5240A128A110A1270
:100128008A11B6240A128A1183120313B9003908F6
:10013800AD00143083120313BA007930B900B90B3B
:10014800A328BA0BA32804300A128A11D5240A124C
:100158008A110A128A11B6240A128A118312031309
:10016800B9003908AC00143083120313BA0079308F
:10017800B900B90BBD28BA0BBD2805300A128A117F
:10018800D5240A128A110A128A11B6240A128A116F
:1001980083120313B9003908AB0014308312031318
:1001A800BA007930B900B90BD728BA0BD72806306E
:1001B8000A128A11D5240A128A110A128A11B6243F
:1001C8000A128A1183120313B9003908AA001430DD
:1001D80083120313BA007930B900B90BF128BA0BAE
:1001E800F12807300A128A11D5240A128A110A1234
:1001F8008A11B6240A128A1183120313B900390826
:10020800A900143083120313BA007930B900B90B6E
:100218000B29BA0B0B2908300A128A11D5240A12A5
:100228008A110A128A11B6240A128A118312031338
:10023800B9003908A800143083120313BA007930C2
:10024800B900B90B2529BA0B252909300A128A11D8
:10025800D5240A128A110A128A11B6240A128A119E
:1002680083120313B9003908A7001430831203134B
:10027800BA007930B900B90B3F29BA0B3F290A30C7
:100288000A128A11D5240A128A110A128A11B6246E
:100298000A128A1183120313B9003908A600143010
:1002A80083120313BA007930B900B90B5929BA0B74
:1002B80059290B300A128A11D5240A128A110A12F6
:1002C8008A11B6240A128A1183120313B900390855
:1002D800FB00143083120313BA007930B900B90B4C
:1002E8007329BA0B73290C300A128A11D5240A1201
:1002F8008A110A128A11B6240A128A118312031368
:10030800B9003908FA00143083120313BA0079309F
:10031800B900B90B8D29BA0B8D290D300A128A1133
:10032800D5240A128A110A128A11B6240A128A11CD
:1003380083120313B9003908F90014308312031328
:10034800BA007930B900B90BA729BA0BA7290E3022
:100358000A128A11D5240A128A110A128A11B6249D
:100368000A128A1183120313B9003908AE00143037
:1003780083120313BA007930B900B90BC129BA0B3B
:10038800C12983120313200821040319CC29CD297C
:10039800D4290130A0020030031CA103A102302A95
:1003A80020082104031DD929DA29302A01300A122C
:1003B8008A1171240A128A11C73083120313B900F3
:1003C800E529B90BE429E829033083120313B9009E
:1003D8003908F50001300A128A1120240A128A11FC
:1003E80001300A128A11FB230A128A110330831280
:1003F8000313B9003908F50002300A128A112024C3
:100408000A128A118312031325080A128A118624F4
:100418000A128A118312031324080A128A118624E5
:100428000A128A112A300A128A11FB230A128A1127
:100438008312031323080A128A1186240A128A11C6
:100448002C300A128A11FB230A128A119030831267
:100458000313A0000130A100340835040319352A1C
:10046800362A3D2A0130B4020030031CB503B50218
:100478009B2A34083504031D422A432A9B2A01304B
:100488000A128A1171240A128A11C73083120313BF
:10049800B9004E2AB90B4D2A512A0330831203138F
:1004A800B9003908F50001300A128A1120240A120D
:1004B8008A1121300A128A11FB230A128A11033089
:1004C80083120313B9003908F50002300A128A11A1
:1004D80020240A128A11831203132D080A128A1182
:1004E80086240A128A11831203132C080A128A110D
:1004F80086240A128A11831203132B080A128A11FE
:1005080086240A128A11831203132A080A128A11EE
:1005180086240A128A1127300A128A11FB230A122A
:100528008A11903083120313B4000130B5003208E9
:1005380033040319A02AA12AA82A0130B2020030E4
:10054800031CB303B302062B32083304031DAD2A80
:10055800AE2A062B01300A128A1171240A128A1156
:10056800C73083120313B900B92AB90BB82ABC2AB9
:10057800033083120313B9003908F50001300A1259
:100588008A1120240A128A1119300A128A11FB23AF
:100598000A128A11033083120313B9003908F500CF
:1005A80002300A128A1120240A128A1183120313B4
:1005B80029080A128A1186240A128A112A300A1274
:1005C8008A11FB230A128A118312031328080A12BC
:1005D8008A1186240A128A118312031327080A1221
:1005E8008A1186240A128A118312031326080A1212
:1005F8008A1186240A128A11903083120313B200DA
:100608000130B3003008310403190B2B0C2B132BCA
:100618000130B0020030031CB103B102712B300865
:100628003104031D182B192B712B01300A128A1162
:1006380071240A128A11C73083120313B900242BBC
:10064800B90B232B272B033083120313B900390866
:10065800F50001300A128A1120240A128A110E307C
:100668000A128A11FB230A128A1103308312031318
:10067800B9003908F50002300A128A1120240A123A
:100688008A117B080A128A1186240A128A117A08AA
:100698000A128A1186240A128A112A300A128A1129
:1006A800FB230A128A1179080A128A1186240A126F
:1006B8008A11831203132E080A128A1186240A1239
:1006C8008A112E300A128A11FB230A128A119030DD
:1006D80083120313B0000130B100073083120313F3
:1006E800BA007C30B900B90B772BBA0B772B000016
:1006F8003F280A128A110C288316031386018316D1
:10070800031789018316031388011530F600C630D4
:10071800F500F50B8D2BF60B8D2B000003300A121C
:100728008A1171240A128A110630F6007330F50016
:10073800F50B9C2BF60B9C2B03300A128A117124A3
:100748000A128A11C730F500A92BF50BA82BAC2B80
:10075800AD2B03300A128A1171240A128A1138301B
:100768000A128A1171240A128A110C300A128A118B
:1007780071240A128A1106300A128A1171240A1287
:100788008A11080003308A000408840A82070034AA
:10079800543465346D34703465347234613474346F
:1007A8007534723461343A340034443469347334FF
:1007B800743461346E346334693461343A340034E7
:1007C800433461347534643461346C343A340034FD
:1007D8005034653473346F343A3400346B346734CE
:1007E80000342E340034433400346D340034F700C0
:1007F800F501F601122C7508770784000A128A1190
:10080800C6230A128A110A128A1186240A128A1128
:100818000130F5070318F60A0030F6077508770760
:1008280084000A128A11C6230A128A11003A031D8B
:100838001E2C1F2CFF2B0800F800322C75087F3E59
:100848000A128A1171240A128A11422C7508BF3EB5
:100858000A128A1171240A128A11422C7808F600A9
:10086800F7017708003A03193A2C422C7608013A26
:100878000319222C033A03192A2C422C0800831648
:100888000313860183160317890183120313860154
:100898000A128A1180230A128A11F201F301F40163
:1008A80020300A128A115B240A128A110800F50006
:1008B800831603138712751D622C632C672C74082A
:1008C800940087156B2C72087404940087117508BE
:1008D80073048312031394000800F40083120313B3
:1008E800081388137408860088160630F300303021
:1008F800F200F20B7D2CF30B7D2C00008312031306
:1009080088120800F40083120313881774088600FD
:1009180088160630F3003030F200F20B912CF30BFE
:10092800912C000083120313881208007E088A00A5
:100938007F0882000A128A119A240A128A118000FA
:10094800840A04087D0603190034FF0A0319FE0A05
:100958009E2C2C340134C8340034643400340434FC
:10096800053401340A128A11C7240A128A11831223
:1009780003131308080064008001840A040603199D
:1009880000340406C02C83160313141CCC2CCD2C65
:10099800C72C080071088A00700E8300FE0E7E0EB8
:0E09A8000900F2007208831203139300080086
:04400E00D4E0FFFFFC
:00000001FF
