:020000040000FA
:060000000A128A110C280F
:10000800FE00030EF0000A08F1000A128A112E2CD5
:100018000A128A110F2883133930FD000430FE00BC
:100028001D30FF00303084000A128A110E240A1293
:100038008A112030840030300A128A1126240A12CC
:100048008A11F901FA01FB0183010A128A112C288D
:100058000A128A11AB230A128A1179080A128A1124
:1000680035240A128A11823083120313BA00DD3054
:10007800B900B90B3D28BA0B3D28831203138C1D18
:100088004628472828297908031D4B284C28532837
:100098001308B9003908FA00F901F90A2129790386
:1000A800031D5728582861281308B9003908A300E8
:1000B8000230B9003908F900212902307906031DF8
:1000C8006628672870281308B9003908A200033089
:1000D800B9003908F900212903307906031D75286C
:1000E80076287F281308B9003908AB000430B90016
:1000F8003908F900212904307906031D8428852848
:100108008E281308B9003908AA000530B900390843
:10011800F900212905307906031D932894289D2884
:100128001308B9003908A9000630B9003908F900E0
:10013800212906307906031DA228A328AC28130814
:10014800B9003908A8000730B9003908F900212991
:1001580007307906031DB128B228BB281308B90057
:100168003908A7000830B9003908F90021290830F2
:100178007906031DC028C128CA281308B900390800
:10018800A6000930B9003908F90021290930790693
:10019800031DCF28D028D9281308B9003908A5008D
:1001A8000A30B9003908F90021290A307906031DF7
:1001B800DE28DF28E8281308B9003908A4000B3026
:1001C800B9003908F90021290B307906031DED28FB
:1001D800EE28F7281308B9003908FB000C30B900DD
:1001E8003908F90021290C307906031DFC28FD285F
:1001F80006291308B9003908AE000D30B9003908CE
:10020800F90021290D307906031D0B290C29152920
:100218001308B9003908AD000E30B9003908F900E3
:1002280021290E307906031D1A291B2921291308B3
:10023800B9003908AC00F90121298C1179080A1292
:100248008A1135240A128A11831203132008210403
:1002580003192F29302937290130A0020030031C47
:10026800A103A102912920082104031D3C293D294D
:10027800912901300A128A11E1230A128A11C73022
:1002880083120313B9004829B90B47294B290330B6
:1002980083120313B9003908F50001300A128A11D4
:1002A80088230A128A1101300A128A1163230A125A
:1002B8008A11033083120313B9003908F50002309C
:1002C8000A128A1188230A128A117A080A128A11D4
:1002D800F6230A128A118312031323080A128A11B9
:1002E800F6230A128A112A300A128A1163230A1283
:1002F8008A118312031322080A128A11F6230A129A
:100308008A112C300A128A1163230A128A110430C6
:1003180083120313A0000030A10034083504031928
:10032800962997299E290130B4020030031CB50391
:10033800B502FC2934083504031DA329A429FC2986
:1003480001300A128A11E1230A128A11C730831276
:100358000313B900AF29B90BAE29B22903308312B0
:100368000313B9003908F50001300A128A118823ED
:100378000A128A1121300A128A1163230A128A1179
:10038800033083120313B9003908F50002300A124A
:100398008A1188230A128A11831203132B080A125E
:1003A8008A11F6230A128A11831203132A080A12E1
:1003B8008A11F6230A128A118312031329080A12D2
:1003C8008A11F6230A128A118312031328080A12C3
:1003D8008A11F6230A128A1127300A128A11632316
:1003E8000A128A11043083120313B4000030B500D6
:1003F800320833040319012A022A092A0130B202F9
:100408000030031CB303B302672A32083304031D08
:100418000E2A0F2A672A01300A128A11E1230A12CA
:100428008A11C73083120313B9001A2AB90B192A83
:100438001D2A033083120313B9003908F50001306F
:100448000A128A1188230A128A1119300A128A118B
:1004580063230A128A11033083120313B90039087F
:10046800F50002300A128A1188230A128A118312AF
:10047800031327080A128A11F6230A128A112A304E
:100488000A128A1163230A128A1183120313260897
:100498000A128A11F6230A128A11831203132508F5
:1004A8000A128A11F6230A128A11831203132408E6
:1004B8000A128A11F6230A128A11043083120313CE
:1004C800B2000030B3003008310403196C2A6D2AD9
:1004D800742A0130B0020030031CB103B102D62ADD
:1004E80030083104031D792A7A2AD62A01300A12E3
:1004F8008A11E1230A128A11C73083120313B90043
:10050800852AB90B842A882A033083120313B90079
:100518003908F50001300A128A1188230A128A1153
:100528000E300A128A1163230A128A1103308312C9
:100538000313B9003908F50002300A128A1188231A
:100548000A128A117B080A128A11F6230A128A11E2
:10055800831203132E080A128A11F6230A128A112B
:100568002A300A128A1163230A128A11831203138A
:100578002D080A128A11F6230A128A11831203130C
:100588002C080A128A11F6230A128A112E300A122E
:100598008A1163230A128A11043083120313B000EC
:1005A8000030B1000D3083120313BA00FB30B900DC
:1005B800B90BDC2ABA0BDC2A7A08831203138500EC
:1005C80041280A128A110C28831603138601831600
:1005D800031789018316031388011530F600C63006
:1005E800F500F50BF52AF60BF52A000003300A1280
:1005F8008A11E1230A128A110630F6007330F500D9
:10060800F50B042BF60B042B03300A128A11E12395
:100618000A128A11C730F500112BF50B102B142B79
:10062800152B03300A128A11E1230A128A11383075
:100638000A128A11E1230A128A110C300A128A114D
:10064800E1230A128A1106300A128A11E1230A12DA
:100658008A11080003308A000408840A82070034DB
:10066800543465346D3470346534723461347434A0
:100678007534723461343A34003444346934733430
:10068800743461346E346334693461343A34003418
:10069800433461347534643461346C343A3400342E
:1006A8005034653473346F343A3400346B346734FF
:1006B80000342E340034433400346D340034F700F1
:1006C800F501F6017A2B7508770784000A128A115A
:1006D8002E230A128A110A128A11F6230A128A1183
:1006E8000130F5070318F60A0030F6077508770792
:1006F80084000A128A112E230A128A11003A031D55
:10070800862B872B672B0800F8009A2B75087F3EED
:100718000A128A11E1230A128A11AA2B7508BF3E10
:100728000A128A11E1230A128A11AA2B7808F60004
:10073800F7017708003A0319A22BAA2B7608013A89
:1007480003198A2B033A0319922BAA2B0800831644
:100758000313850186018316031789018312031386
:10076800860185010A128A11E8220A128A11F20109
:10077800F301F40120300A128A11CB230A128A11DC
:10078800831203138C11831603138C110800F500D0
:10079800831603138712751DD22BD32BD72B7408FE
:1007A80094008715DB2B7208740494008711750870
:1007B80073048312031394000800F40083120313D4
:1007C800081388137408860088160630F300303042
:1007D800F200F20BED2BF30BED2B00008312031349
:1007E80088120800F400831203138817740886001F
:1007F80088160630F3003030F200F20B012CF30BB0
:10080800012C000083120313881208007E088A0056
:100818007F0882000A128A110A240A128A118000AB
:10082800840A04087D0603190034FF0A0319FE0A26
:100838000E2C033400340234003401340034043400
:100848000534013464008001840A04060319003465
:100858000406272C71088A00700E8300FE0E7E0E97
:0E0868000900F20072088312031393000800C7
:04400E00D4E0FFFFFC
:00000001FF
