:020000040000FA
:060000000A128A1110280B
:10000800FE00030E83120313A7000408A8000A08C1
:10001800A9000A128A15E2280A128A1113288313E2
:10002800CF30FD001730FE004F30FF00BD30840098
:100038000A168A1165270A128A11CF308400DE3029
:100048000A128A11F8270A128A115830840060307F
:100058000A128A11F8270A128A11F801F901FA011D
:10006800FB01FC01FD0183010A128A15602B831232
:10007800031341088039C6004608CB004108C60072
:100088004607C7004708D100C01F4B284C284D28F9
:10009800511451080319512852286128510A031D87
:1000A800562857285F280030C1000030C0000030B3
:1000B800BF000030BE00C01769280030C100003002
:1000C800C0000030BF000030BE0045088039C600BF
:1000D8004608CB064508C6004607C7004708CC00B7
:1000E800C41F7728782879284C144C0803197D28D0
:1000F8007E288D284C0A031D822883288B280030EF
:10010800C5000030C4000030C3000030C200C4176E
:1001180095280030C5000030C4000030C30000300E
:10012800C2004C08031999289A289F285108031DD2
:100138009E289F28A8280030C1000030C000003049
:10014800BF000030BE009B2B3E08C6004608AA0030
:1001580044080A128A11CF270A128A11831203133C
:100168002B08D7002A08D6005608C600C701C801C0
:10017800C9014908D0004808CF004708CE00460802
:10018800CD005708C600C701C801C9014908D500F4
:100198004808D4004708D3004608D2003F08C600E4
:1001A8004608AA0043080A128A11CF270A128A11A0
:1001B800831203132B08D7002A08D6005608C60056
:1001C800C701C801C9014608CD074708031103182C
:1001D800013E0319F028CE07480803110318013E11
:1001E8000319F728CF07490803110318013E03191B
:1001F800FE28D0075708C600C701C801C90146082C
:10020800D207470803110318013E03190C29D30725
:10021800480803110318013E03191329D407490894
:1002280003110318013E03191A29D5074008C6000F
:100238004608AA0042080A128A11CF270A128A1110
:10024800831203132B08D7002A08D6005608C600C5
:10025800C701C801C9014608CD074708031103189B
:10026800013E03193829CE07480803110318013E37
:1002780003193F29CF07490803110318013E031941
:100288004629D0075708C600C701C801C901460852
:10029800D207470803110318013E03195429D3074D
:1002A800480803110318013E03195B29D4074908BC
:1002B80003110318013E03196229D5070830C60047
:1002C8000310CD0DCE0DCF0DD00DC60B64293F0800
:1002D800C6004608AA0042080A128A11CF270A1245
:1002E8008A11831203132B08D7002A08D600560850
:1002F800C6005708C700C801C9014608CD07470806
:1003080003110318013E03198A29CE07480803116F
:100318000318013E03199129CF074908031103184F
:10032800013E03199829D0073E08C6004608AA00CE
:1003380043080A128A11CF270A128A11831203135B
:100348002B08D7002A08D6005608C6005708C70049
:10035800C801C9014608CD07470803110318013E23
:100368000319B729CE07480803110318013E0319DA
:10037800BE29CF07490803110318013E0319C529EF
:10038800D0070830C6000310CD0DCE0DCF0DD00D0F
:10039800C60BC7293E08C6004608AA0042080A122A
:1003A8008A11CF270A128A11831203132B08D70048
:1003B8002A08D6005608C6005708C700C801C90150
:1003C8004608CD07470803110318013E0319ED2914
:1003D800CE07480803110318013E0319F429CF0773
:1003E800490803110318013E0319FB29D0073F08E8
:1003F800C6004608AA0044080A128A11CF270A1222
:100408008A11831203132B08D7002A08D60056082E
:10041800C6005708C700C801C9014608D2074708DF
:1004280003110318013E03191A2AD30748080311B8
:100438000318013E0319212AD40749080311031898
:10044800013E0319282AD5074008C6004608AA0015
:1004580043080A128A11CF270A128A11831203133A
:100468002B08D7002A08D6005608C6005708C70028
:10047800C801C9014608D207470803110318013EFD
:100488000319472AD307480803110318013E031923
:100498004E2AD407490803110318013E0319552AA7
:1004A800D5074008C6004608AA0044080A128A115F
:1004B800CF270A128A11831203132B08D7002A08A0
:1004C800D6005608C6005708C700C801C901083039
:1004D8000310C60DC70DC80DC90DFF3E031D6C2ABC
:1004E8004608D207470803110318013E03197D2A5D
:1004F800D307480803110318013E0319842AD407B7
:10050800490803110318013E03198B2AD5074D0822
:10051800C6004E08C7004F08C8005008C900183068
:100528000310C90CC80CC70CC60CFF3E031D942A47
:100538004608D207470803110318013E0319A52AE4
:10054800D307480803110318013E0319AC2AD4073E
:10055800490803110318013E0319B32AD5070830C7
:10056800C6000310CD0DCE0DCF0DD00DC60BB52A8C
:1005780051084C07C600C701C70D4608823ED60081
:1005880047080318013EFF3ED700E72A0130C6009E
:100598000310D20DD30DD40DD50DC60BCC2AD01F08
:1005A800D62AD72AD82A52140130C6000310CD0DF6
:1005B800CE0DCF0DD00DC60BDA2AFF30D6070318A3
:1005C800D70AFF30D707D41FEA2AEB2ACA2ACC0158
:1005D800D01FEF2AF02A0C2BFF304D05C600FF3044
:1005E8004E05C700FF304F05C8007F305005C900D1
:1005F80049084804470446040319032B042B072B16
:10060800CC01CC0A0C2B521C0A2B0B2B0C2B042BC9
:100618004C080319102B112B422B0130D207003044
:1006280003180130D307003003180130D407003015
:1006380003180130D507551C222B232B422B5208B7
:10064800C6005308C7005408C8005508C90001303F
:10065800CA00490DC90CC80CC70CC60CCA0B2D2BF7
:100668004908D5004808D4004708D3004608D200F6
:100678000130D6070318D70A0030D7075708803A41
:10068800FF0080307F02031D4B2BFF305602031CF6
:100698004E2B4F2B5A2B7F3083120313D5008030FB
:1006A800D4000030D3000030D2008F2B8312031304
:1006B8005708803AFF0080307F02031D652B013008
:1006C80056020318682B692B752B0030831203130D
:1006D800D5000030D4000030D3000030D200CB0168
:1006E8008F2B831203135608C6004608D100FF302B
:1006F800D205FF30D3057F30D4050030D505511C15
:10070800862B872B882BD4175108C6000310460C5C
:10071800C7004708D5004B08C6004608D504550849
:10072800C1005408C0005308BF005208BE000800AA
:10073800423083120313C100C830C0000030BF002C
:100748000030BE0083160313230883120313C50069
:1007580083160313220883120313C400831603139A
:10076800210883120313C30083160313200883127E
:100778000313C2000A128A113B200A128A1183123B
:100788000313410883160313A300831203134008BD
:1007980083160313A200831203133F08831603135F
:1007A800A100831203133E0883160313A000230835
:1007B80083120313AD008316031322088312031355
:1007C800AC0083160313210883120313AB008316AE
:1007D8000313200883120313AA000030B10000306D
:1007E800B0000030AF000030AE000A128A112B278B
:1007F8000A128A11031C012C022C502E8316031393
:10080800230883120313B1008316031322088312EB
:100818000313B00083160313210883120313AF00D8
:1008280083160313200883120313AE004430AD006F
:100838007A30AC000030AB000030AA000A128A15EA
:1008480083210A128A11831203132D08CF002C0862
:10085800CE002B08CD002A08CC000A128A15662083
:100868000A128A11831203134C0883160313A80073
:100878002808B800230883120313B1008316031352
:10088800220883120313B00083160313210883126E
:100898000313AF0083160313200883120313AE005B
:1008A8004230AD00C830AC000030AB000030AA00C8
:1008B8000A128A1583210A128A11831203132D083A
:1008C800CB002C08CA002B08C9002A08C8000A3027
:1008D800AC000030AD00831603133808A800A90146
:1008E800280883120313AA00831603132908831206
:1008F8000313AB000A128A153F200A128A118312C9
:1009080003132A08B0002B08B1000030B11BFF30D8
:10091800B200B30001300A128A116F260A128A1136
:10092800831203133308C7003208C6003108C50014
:100938003008C4000A128A151B200A128A11831271
:1009480003134708CF004608CE004508CD004408E9
:10095800CC000A128A1566200A128A118312031320
:100968004C0883160313AA002A08B7002308831229
:100978000313B10083160313220883120313B00074
:1009880083160313210883120313AF00831603137E
:10099800200883120313AE004130AD002030AC00B4
:1009A8000030AB000030AA000A128A1583210A120F
:1009B8008A11831203132D08CB002C08CA002B08B8
:1009C800C9002A08C8006430AC000030AD008316A6
:1009D80003133808A800A901280883120313AA00E2
:1009E80083160313290883120313AB000A128A150E
:1009F8003F200A128A11831203132A08831603134D
:100A0800AA00831203132B0883160313AB000A30C2
:100A180083120313AC000030AD00831603133708AC
:100A2800AC00AD012C0883120313AA00831603132C
:100A38002D0883120313AB000A128A153F200A12ED
:100A48008A11831203132A08831603132A07AE0098
:100A5800831203132B0803182B0A831603132B077F
:100A6800AF002E0883120313B000831603132F0858
:100A780083120313B1000030B11BFF30B200B30082
:100A880001300A128A116F260A128A11831203137F
:100A98003308C7003208C6003108C5003008C40052
:100AA8000A128A151B200A128A1183120313470897
:100AB800CF004608CE004508CD004408CC000A12F5
:100AC8008A1566200A128A11831203134C088316AA
:100AD8000313B0003008B600230883120313B100D3
:100AE80083160313220883120313B000831603131B
:100AF800210883120313AF008316031320088312FF
:100B08000313AE003F30AD008030AC000030AB00C6
:100B18000030AA000A128A1583210A128A11831248
:100B280003132D08CB002C08CA002B08C9002A087B
:100B3800C800E830AC000330AD0083160313380852
:100B4800A800A901280883120313AA008316031317
:100B5800290883120313AB000A128A153F200A12D0
:100B68008A11831203132A0883160313AA00831217
:100B780003132B0883160313AB006430831203138B
:100B8800AC000030AD00831603133708AC00AD018C
:100B98002C0883120313AA00831603132D0883124B
:100BA8000313AB000A128A153F200A128A11831216
:100BB80003132A08831603132A07AE0083120313AC
:100BC8002B0803182B0A831603132B07AF000A30D0
:100BD80083120313AC000030AD00831603133608EC
:100BE800B000B101300883120313AA00831603135F
:100BF800310883120313AB000A128A153F200A1228
:100C08008A11831203132A08831603132E07B200CE
:100C1800831203132B0803182B0A831603132F07B9
:100C2800B300320883120313B0008316031333088A
:100C380083120313B1000030B11BFF30B200B300C0
:100C480001300A128A116F260A128A1183120313BD
:100C58003308C7003208C6003108C5003008C40090
:100C68000A128A151B200A128A11831203134708D5
:100C7800CF004608CE004508CD004408CC000A1233
:100C88008A1566200A128A11831203134C088316E8
:100C98000313B4003408B500831603133808303E34
:100CA800A80024088400280880003708303EA800DF
:100CB80025088400280880003608303EA800260849
:100CC8008400280880003508303EA80027088400E2
:100CD80028088000080083120313B8003808031995
:100CE800762E772E8B2EB31F7A2E7B2E8B2E3009E5
:100CF800BA003109BB003209BC003309BD00BA0A89
:100D08000319BB0A0319BC0A0319BD0A932E330839
:100D1800BD003208BC003108BB003008BA003308F7
:100D2800320431043004031D9A2E9B2EA42E003069
:100D3800B3000030B2000030B1000030B0002A2FFC
:100D48009630B4003408B900B62E0130B400340827
:100D5800B90701300310BD0CBC0CBB0CBA0CFF3E2C
:100D6800031DAE2EFE303D05031DBB2EBC2EA92E45
:100D7800D82E0130B4003408B9070130BA07003062
:100D880003180130BB07003003180130BC070030DE
:100D980003180130BD0701300310BD0CBC0CBB0C9F
:100DA800BA0CFF3E031DD02EFF303D05031DDD2E7E
:100DB800DE2EBD2EEA2E0130B9020130B400031038
:100DC800BA0DBB0DBC0DBD0DB40BE32EBC1BED2E37
:100DD800EE2EF42E023039020318F32EF42EDF2EF5
:100DE8003918F72EF82E002FFF30BA05FF30BB0553
:100DF8007F30BC05FF30BD050310B90C3908B400BD
:100E0800B501B601B70118300310B40DB50DB60D14
:100E1800B70DFF3E031D082F3408BA043508BB047C
:100E28003608BC043708BD04380803191C2F1D2FC9
:100E3800222FB31F202F212F222FBD173D08B300CB
:100E48003C08B2003B08B1003A08B0000800003086
:100E5800831203132A05B20000302B05B30080303B
:100E68002C05B4007F302D05B50035083404330453
:100E78003204031D402F412F492F0030AD000030B0
:100E8800AC000030AB000030AA0000302E05B200E4
:100E980000302F05B30080303005B4007F303105B5
:100EA800B5003508340433043204031D5C2F5D2F6C
:100EB800652F0030B1000030B0000030AF000030C6
:100EC800AE00AD1F682F692F8D2F0030B2000030A3
:100ED800B3000030B4008030B5002A08B2022B08F5
:100EE800031C2B0F782F792FB3022C08031C2C0F0F
:100EF8007E2F7F2FB4022D08031C2D0F842F852FE2
:100F0800B5023508AD003408AC003308AB00320830
:100F1800AA00B11F902F912FB52F0030B2000030DA
:100F2800B3000030B4008030B5002E08B2022F089C
:100F3800031C2F0FA02FA12FB3023008031C300F62
:100F4800A62FA72FB4023108031C310FAC2FAD2FE9
:100F5800B5023508B1003408B0003308AF003208D4
:100F6800AE008030AD068030B10631082D02031D79
:100F7800C72F30082C02031DC72F2F082B02031D73
:100F8800C72F2E082A020318CA2FCB2FCD2F0310E4
:100F9800CE2F0314080083120313B200AE01AF0171
:100FA8002A08AC00AD012C08B0002D08B100321C95
:100FB800DE2FDF2FE52F3008AE070318AF0A310800
:100FC800AF0701300310B00DB10DFF3E031DE62F32
:100FD8000310B20C3208031DF22FF32FDB2F2F085A
:100FE800AB002E08AA00080064008001840A0406E9
:100FF800031900340406F92F0130831603178800FB
:101008008901831203138801850186018901013052
:10101800831603138500860188018901C0308B007F
:1010280070300A168A1174270A128A15080080304F
:1010380083120313C7064B08AD004A08AC004908E1
:10104800AB004808AA004708B1004608B0004508A8
:10105800AF004408AE000A128A1578250A128A15CC
:10106800831203132D08C7002C08C6002B08C500DF
:101078002A08C400080083120313AE01AF012A1C1A
:10108800462847284D282C08AE070318AF0A2D0814
:10109800AF0701300310AC0DAD0DFF3E031D4E2808
:1010A80001300310AB0CAA0CFF3E031D55282A087B
:1010B8002B04031D6028612843282F08AB002E0845
:1010C800AA0008000310831203134E0D4F0DD00021
:1010D8005008D6005608031D722873287C28003053
:1010E800CF000030CE000030CD000030CC00E12829
:1010F8004C08D0004D08D1004E08D2004F08D3004C
:101108001F300310D30CD20CD10CD00CFF3E031DA2
:1011180085285008D4005408D500CE17FF30CC05D8
:10112800FF30CD05FF30CE050030CF059630D60212
:10113800D61F9F28A028BA285608803A973E031839
:10114800A628A728A828732801300310CF0CCE0C96
:10115800CD0CCC0CFF3E031DA9280130D00050084F
:10116800D607031DB828B928A828D1282030560248
:10117800031CBF28C028CC2873280130D0000310D6
:10118800CC0DCD0DCE0DCF0DD00BC3280130D6021E
:101198005608031DD028D128C12855080319D52879
:1011A800D628E128CC09CD09CE09CF09CC0A0319E4
:1011B800CD0A0319CE0A0319CF0A08008C1DE528A9
:1011C800E6286F291412141BEA28EB28EF28941F2D
:1011D800EE28EF28FA281308A00020088316031326
:1011E800D3008312031314139413141683160313D2
:1011F800941AFF28002926291419032904292629C5
:10120800831203131308A000200883160313D300C6
:10121800831203138C11141683160313141C152937
:1012280016291029831203131308A0002008831617
:101238000313D100523083120313A000A00B2229FC
:1012480000006C29941A29292A296C29141D2D2992
:101258002E296C29831203131308A0002008831673
:101268000313D30014107C0883120313A000200872
:10127800F0007B08A1002108F1007A08A2002208EA
:10128800F2007908A3002308F3005808A4002408F2
:10129800F4005F30A5002508F5007D080A168A11BC
:1012A80090270A128A1583120313A6002608F8004D
:1012B800780893001416523083120313A000A00B71
:1012C800632900008316031314186B296C296629F7
:1012D800831203138C119F18722973297A29831694
:1012E8000313CF01CF0A831203130C1329088A00B2
:1012F80028088400270E8300FE0E7E0E0900831244
:10130800031331088039B2003208BB003108B2003B
:101318003207B3003308C200B01F932994299529D6
:1013280042144208031999299A29AA29420A031D35
:101338009E299F29A7290030B1000030B000003055
:10134800AF000030AE00B017B101B2290030B100D3
:101358000030B0000030AF000030AE002D088039FA
:10136800B2003208BB062D08B2003207B3003308BA
:10137800C300AC1FC029C129C2294314430803195B
:10138800C629C729D729430A031DCB29CC29D42923
:101398000030AD000030AC000030AB000030AA00D7
:1013A800AC17AD01DF290030AD000030AC000030D3
:1013B800AB000030AA002D082C042B042A04031DBE
:1013C800E629E729002A0030B1000030B0000030DB
:1013D800AF000030AE008030B0047F30B1043B086D
:1013E800B2003208B1043108AD003008AC002F0853
:1013F800AB002E08AA005F2B4208031D042A052A09
:101408000E2A0030AD000030AC000030AB000030D8
:10141800AA005F2B4208B200B3013308B5004308A5
:101428003202B400031CB50334087F3EBC00350803
:101438000318013E003EBD003108BA003008B9006B
:101448002F08B8002E08B7000030B1000030B000F7
:101458000030AF000030AE000030C1000030C000E6
:101468000030BF000030BE00C301842A43080319BE
:101478003E2A3F2A5F2A0130B2000310B70DB80D8B
:10148800B90DBA0DB20B412A0130B2000310AE0DEE
:10149800AF0DB00DB10DB20B4A2AC11F542A552AFF
:1014A800562A2E140130B2000310BE0DBF0DC00D18
:1014B800C10DB20B582A2D083A02031D6D2A2C08BB
:1014C8003902031D6D2A2B083802031D6D2A2A08CC
:1014D8003702031C702A712A802A41172A08B7028A
:1014E8002B08031C2B0FB8022C08031C2C0FB90265
:1014F8002D08031C2D0FBA020130B2003208C307B1
:101508001A304302031C892A8A2A3A2A3A083904DB
:10151800380437040319912A922AB12A3E14B12AB1
:101528000130B2000310AE0DAF0DB00DB10DB20B0E
:10153800962AC11FA02AA12AA22A2E140130B2007D
:101548000310BE0DBF0DC00DC10DB20BA42AFF3094
:10155800BC070318BD0AFF30BD07B01FB42AB52A5F
:10156800942AC301C11FB92ABA2AD62AFF303E05D8
:10157800B200FF303F05B300FF304005B4007F30B4
:101588004105B50035083404330432040319CD2A63
:10159800CE2AD12AC301C30AD62A2E1CD42AD52A78
:1015A800D62ACE2A43080319DA2ADB2A0C2B013063
:1015B800AE07003003180130AF07003003180130C0
:1015C800B007003003180130B107311CEC2AED2AAE
:1015D8000C2B2E08B2002F08B3003008B4003108D5
:1015E800B5000130B600350DB50CB40CB30CB20C17
:1015F800B60BF72A3508B1003408B0003308AF003D
:101608003208AE000130BC070318BD0A0030BD0720
:101618003D08803AFF0080307F02031D152BFF3004
:101628003C02031C182B192B272BFF3083120313A2
:10163800BC000030BD000030B1000030B000003008
:10164800AF000030AE00831203133D08803AFF005C
:1016580080307F02031D322B01303C020318352BEA
:10166800362B432B83120313BC01BD010030B1009C
:101678000030B0000030AF000030AE00BB01831274
:1016880003133C08B2003208C200421C4C2B4D2BFD
:101698004F2BB017532B7F30B2003208B0054208E9
:1016A800B2000310320CB3003308B1003B08B2009B
:1016B8003208B104F72908000A128A1500200A1214
:1016C8008A150A168A1143270A128A1583120313E8
:1016D8009F145E0886003E30C1002030C0009F3055
:1016E800BF00E830BE005E0883160313B900BA01D4
:1016F800BB01BC013C0883120313B3008316031318
:101708003B0883120313B200831603133A088312AB
:101718000313B10083160313390883120313B000AF
:1017280000300A128A116F260A128A1583120313CF
:101738003308C5003208C4003108C3003008C200AD
:101748000A128A113B200A128A15831203134108D0
:10175800E3004008E2003F08E1003E08E0006308BB
:1017680083160313A300831203136208831603135B
:10177800A20083120313610883160313A1008312C6
:101788000313600883160313A0007D30B9003908DD
:10179800A4007C30BA003A08A5007B30BB003B08A7
:1017A800A6007A30BC003C08A7000A128A119C23C4
:1017B8000A128A15831603134F03031DE42BE52B26
:1017C800F22B831203131E0883160313B90039087A
:1017D80083120313DE0083160313CF01831203134E
:1017E800881FF72BF82B002C5908031DFC2BFD2B09
:1017F800002CD901D90AD801881F032C042C0C2CE1
:101808005903031D082C092C0C2CD901D801D80A1E
:10181800881B0F2C102C6A2B081B132C142C6A2BDA
:101828006308AD006208AC006108AB006008AA005C
:101838004130B100E830B0000030AF000030AE00F9
:101848000A128A112B270A128A15031C2C2C2D2CFC
:10185800502C423083120313AD001430AC0000301A
:10186800AB000030AA006308B1006208B00061084C
:10187800AF006008AE000A128A112B270A128A15D7
:10188800031C472C482C502C831203138510051178
:101898008511DA01F9018601831203136308AD008B
:1018A8006208AC006108AB006008AA004130B100D2
:1018B8009030B0000030AF000030AE000A128A113C
:1018C8002B270A128A15031C6A2C6B2CBE2C41305C
:1018D80083120313AD00E030AC000030AB000030E1
:1018E800AA006308B1006208B0006108AF00600890
:1018F800AE000A128A112B270A128A15031C852C9E
:10190800862CBE2C83120313851005118515DA0168
:10191800DA0AF901F90A83160313D00183120313B3
:10192800DB01B22C5B08053E84000A168A110020F0
:101938000A128A158600073083160313BA007C3012
:10194800B900B90BA52CBA0BA52C000001308316E1
:101958000313B900390883120313DB0704305B0251
:101968000318B72CB82CBE2C5A030319BC2CBD2C59
:10197800962CBE2C831203136308AD006208AC00DA
:101988006108AB006008AA004130B1002030B00007
:101998000030AF000030AE000A128A112B270A125D
:1019A8008A15031CD82CD92C2F2D413083120313F0
:1019B800AD008830AC000030AB000030AA006308EE
:1019C800B1006208B0006108AF006008AE000A12FA
:1019D8008A112B270A128A15031CF32CF42C2F2D9D
:1019E80083120313851405118511DA01DA0A02300E
:1019F80083160313B9003908F900D001D00A8312FD
:101A08000313DB01232D5B08053E84000A168A11A7
:101A180000200A128A158600073083160313BA00BD
:101A28007C30B900B90B162DBA0B162D0000013009
:101A380083160313B900390883120313DB07043034
:101A48005B020318282D292D2F2D5A0303192D2D3C
:101A58002E2D072D2F2D831203136308AD00620866
:101A6800AC006108AB006008AA004030B10000304B
:101A7800B0000030AF000030AE000A128A112B27E8
:101A88000A128A15031C492D4A2D6A2B41308312EC
:101A98000313AD001030AC000030AB000030AA00DA
:101AA8006308B1006208B0006108AF006008AE00CA
:101AB8000A128A112B270A128A15031C642D652D18
:101AC8006A2B83120313851005158511DA0102307C
:101AD80083160313B9003908D00083120313860153
:101AE8006A2B0A128A111028831203132D088039D1
:101AF800B2003208BA002D08B2003207B30033082A
:101B0800BC00AC1F882D892D8A2D3C143C08031974
:101B18008E2D8F2D9F2D3C0A031D932D942D9C2DCA
:101B28000030AD000030AC000030AB000030AA003F
:101B3800AC17AD01A72D0030AD000030AC0000306F
:101B4800AB000030AA0031088039B2003208BB006F
:101B58003B083A060319B12DB22DB32D3A173108B7
:101B6800B2003207B3003308BB00B01FBC2DBD2D37
:101B7800BE2D3B143B080319C22DC32DD32D3B0AA0
:101B8800031DC72DC82DD02D0030B1000030B00086
:101B98000030AF000030AE00B017B101DB2D0030CF
:101BA800B1000030B0000030AF000030AE003C089B
:101BB8003B020318E02DE12D252E3A1FE42DE52DDB
:101BC800E92D8030B2003208BA063C08B20032086B
:101BD800BD003B08B2003208BC003D08B200320824
:101BE800BB002A08B2003208BD002E08B200320835
:101BF800AA003D08B2003208AE002B08B200320835
:101C0800BD002F08B2003208AB003D08B200320810
:101C1800AF002C08B2003208BD003008B20032080C
:101C2800AC003D08B2003208B0002D08B2003208FE
:101C3800BD003108B2003208AD003D08B2003208DC
:101C4800B100BD013B08B200B3013308B5003C0840
:101C58003202B400031CB5033508803AFF00803017
:101C68007F02031D392E1A303402031C3C2E3D2EF0
:101C78007A2E831203132D082C042B042A04031D27
:101C8800462E482E0130492E0030B2003208BD00E1
:101C98000030AD000030AC000030AB000030AA00CE
:101CA8003B08B2003208BC00822E3D1C5C2E5D2E23
:101CB800662E3D08B2000310320C0138B300330819
:101CC800BD00682E0310BD0C2A1C6B2E6C2E6D2EC9
:101CD800BD170130B2002D0DAD0CAC0CAB0CAA0C2D
:101CE800B20B6F2E0130B2003208BC078312031307
:101CF8003B083C02031C812E822E592E3A1B852E4E
:101D0800862ED12E3C08031D8A2E8B2E942E003051
:101D1800AD000030AC000030AB000030AA00FF2F4F
:101D28002E08AA072F0803110318013E03199D2E38
:101D3800AB07300803110318013E0319A42EAC07A2
:101D4800310803110318013E0319AB2EAD072D1CF2
:101D5800AE2EAF2E852F3D1CB22EB32EBC2E3D08C5
:101D6800B2000310320C0138B3003308BD00BE2E98
:101D78000310BD0C2A1CC12EC22EC32EBD17013064
:101D8800B2002D0DAD0CAC0CAB0CAA0CB20BC52ED1
:101D98000130B2003208BC07852F2D08803AFF00B9
:101DA8003108803A7F02031DE32E30082C02031D00
:101DB800E32E2F082B02031DE32E2E082A020318F8
:101DC800E62EE72E3F2FFF30B200FF30B300FF3082
:101DD800B400FF30B5002E08B6002F08B700300851
:101DE800B8003108B9002A08B6022B08031C2B0FCB
:101DF800FE2EFF2EB7022C08031C2C0F042F052FD4
:101E0800B8022D08031C2D0F0A2F0B2FB902360814
:101E1800B20737080318370F122F132FB3073808E4
:101E28000318380F182F192FB40739080318390A5F
:101E3800B5073508AD003408AC003308AB003208EC
:101E4800AA008030B2003208BA06BD09BD0A3D08B2
:101E5800031D2F2F302F4D2F0130AA0700300318F4
:101E68000130AB07003003180130AC07003003180D
:101E78000130AD074D2F2E08AA022F08031C2F0F83
:101E8800AB023008031C300FAC023108031C310FC1
:101E9800AD022D082C042B042A04031D542F552FA2
:101EA800812F3D08031D592F5A2F812F0030AD0077
:101EB8000030AC000030AB000030AA00FF2F01302A
:101EC800B2000310AA0DAB0DAC0DAD0DB20B652F12
:101ED800BD1F6F2F702F712F2A143D1C742F752F63
:101EE800782F0314BD0D7A2F0310BD0D3C0803197C
:101EF8007E2F7F2F812F0130BC02AC1F842F852FAE
:101F0800632FBB01BD1F892F8A2F982F3D087F396A
:101F180003198F2F902F932FBB01BB0A982F2A1CD0
:101F2800962F972F982F902F3B0803199C2F9D2FA2
:101F3800D12F0130AA07003003180130AB07003059
:101F480003180130AC07003003180130AD072D1C11
:101F5800AE2FAF2FD12F2A08B2002B08B3002C08C0
:101F6800B4002D08B5000130B600350DB50CB40C21
:101F7800B30CB20CB60BB92F3508AD003408AC0061
:101F88003308AB003208AA003C0A0319CC2FCD2F26
:101F9800D12F0130B2003208BC073C0A0319D52FF3
:101FA800D62FDB2F3C08031DDA2FDB2FE92F00305B
:101FB800AD000030AC000030AB000030AA003C0897
:101FC800031DE72FE82FE92FBA013C1CEC2FED2F5A
:101FD800EF2FAC17F32F7F30B2003208AC053C0866
:101FE800B2000310320CB3003308AD00BA1FFD2F46
:101FF800FE2FFF2FAD17080010308A000408840A4E
:10200800820700340934033406340C340C340634A3
:042018000334093450
:102E8600831603139F0140308C00831203131F1314
:102E96009F179F141F1408003F3406345B344F34C9
:102EA60066346D347D3407347F346F3437347C3484
:102EB60039345E34793471340F34F0347E088A0044
:102EC6007F0882000A168A1161270A168A11800075
:102ED600840A04087D0603190034FF0A0319FE0A52
:102EE600652F83120313AA002A088316031393007F
:102EF6003630831203139400803083160313940034
:102F060001309100871507168B170B1783120313D1
:102F16008C11831603138C150800F70075088400BE
:102F260083130008031D982F992FA42F750884007A
:102F36000008013EF60075088400760880007708D0
:102F4600FF2F750884000003031DAA2FAB2FB62F91
:102F5600750884000008013EF600750884007608AE
:102F660080007008FF2F7508840002300006031DDC
:102F7600BD2FBE2FC92F750884000008013EF6003C
:102F860075088400760880007108FF2F7508840094
:102F960003300006031DD02FD12FDC2F75088400C7
:102FA6000008013EF6007508840076088000720865
:102FB600FF2F7508840004300006031DE32FE42F5D
:102FC600EF2F750884000008013EF600750884009E
:102FD600760880007308FF2F750884000530000608
:102FE600031DF62FF72FFC2F750884008001740847
:0A2FF600FF2F750884000008080092
:04400E00D4E0FFFFFC
:00000001FF
