:020000040000FA
:100000000A128A11E42FFF1B0D2883137F18831710
:100010000008840A0319FF0A080000308A00040857
:10002000840A8207003443346834653463346B34A3
:10003000733475346D3420344534723472346F3413
:10004000723421340034663472346F346D342034A9
:100050007434683465342034733465346E347334E6
:100060006F34723400344E346F342034723465345B
:10007000733470346F346E347334653400345434F4
:1000800069346D34653420346F34753474342134FC
:0C009000003468346F346C346134003488
:1007E6000A128A1101250A128A1108007E088A0057
:1007F6007F0882000A128A11F9230A128A118000E0
:10080600840A04087D0603190034FF0A0319FE0A48
:10081600FD2BF200831203138817720886008816D0
:100826000630F1003030F000F00B172CF10B172CCE
:1008360000008312031388120800F20083120313C8
:10084600081388137208860088160630F1003030C7
:10085600F000F00B2C2CF10B2C2C00008312031350
:10086600881208008316031305108312031305105C
:100876002130F1007630F000F00B3F2CF10B3F2CCD
:1008860000008312031305140930F000F00B492C05
:100896004C2C8316031305140800523448342034B4
:1008A600203420343D342034303430342E34303447
:1008B60020342534203420340034543465346D34E7
:1008C600703420343D342034303430342E343034D7
:1008D60020344334203420340034F600822C73084C
:1008E6007F3E0A128A1120240A128A11922C73085A
:1008F600BF3E0A128A1120240A128A11922C760807
:10090600F400F5017508003A03198A2C922C740834
:10091600013A0319722C033A03197A2C922C080017
:10092600831203138F018E01101405189B2C9C2C27
:10093600A22C64300E02031CA12CA22C982C64302D
:100946000E02031CA72CA82CAA2C0310BE2C8F0168
:100956008E01051CAF2CB02CB62C64300E02031C85
:10096600B52CB62CAC2C64300E02031CBB2CBC2C54
:10097600BD2CA82C03140800F801F901E42C780812
:100986007307F6007408F5000318F50AF81FCC2C57
:10099600F5037508F700770883120313FF0076083E
:1009A60084000A128A1103200A128A110A128A1175
:1009B6000C240A128A110130F8070318F90A0030CC
:1009C600F90778087307F6007408F5000318F50AA6
:1009D600F81FEE2CF5037508F7007708831203134A
:1009E600FF00760884000A128A1103200A128A116F
:1009F600003A031DFF2C002DC22C0800831603139A
:100A0600860183160317890183160313880115309F
:100A1600F400C630F300F30B0E2DF40B0E2D000080
:100A260003300A128A1120240A128A110630F400B1
:100A36007330F300F30B1D2DF40B1D2D03300A123A
:100A46008A1120240A128A11C730F3002A2DF30BCB
:100A5600292D2D2D2E2D03300A128A1120240A123B
:100A66008A1138300A128A1120240A128A110C308F
:100A76000A128A1120240A128A1106300A128A11D1
:100A860020240A128A110800F300730884008313D5
:100A96008001F201831203138F018E015A2D6530F6
:100AA6000E02031C572D582D5A2D03148F2D051C8D
:100AB6005D2D5E2D522D8F018E01682D65300E0243
:100AC600031C662D672D682D582D05186B2D6C2D72
:100AD600612D33300E02031C712D722D842D0130D1
:100AE600F0007208073C013E7A2D0310F00DFF3E20
:100AF600031D782D7008F1007308840071088313B4
:100B060080040130F0007008F20708307202031CFE
:100B16008D2D8E2D4D2D03100800F601F31F942DFB
:100B2600952D9C2DF209F309F20A0319F30AF60131
:100B3600F60AF11F9F2DA02DA52DF009F109F00A47
:100B46000319F10A700871040319AA2DAB2DDA2DC9
:100B5600F501F50AB92D01300310F00DF10DFF3E38
:100B6600031DAF2D0130F4007408F507F11FBC2DED
:100B7600BD2DAE2D71087302031DC32D70087202C0
:100B8600031CC62DC72DCD2D7008F2027108031C5B
:100B9600F303F30201300310F10CF00CFF3E031DCA
:100BA600CE2D0130F502031DD92DDA2DBD2D760887
:100BB6000319DE2DDF2DE42DF209F309F20A0319DC
:100BC600F30A7308F1007208F0000800F601F11F3D
:100BD600ED2DEE2DF52DF009F109F00A0319F10AB4
:100BE600F601F60AF31FF82DF92D022EF209F30984
:100BF600F20A0319F30A0130F4007408F606F70145
:100C0600F801700871040319092E0A2E412EF50108
:100C1600F50A182E01300310F00DF10DFF3E031DED
:100C26000E2E0130F4007408F507F11F1B2E1C2E42
:100C36000D2E01300310F70DF80DFF3E031D1D2E7E
:100C460071087302031D292E70087202031C2C2ED4
:100C56002D2E342E7008F2027108031CF303F302E2
:100C6600771401300310F10CF00CFF3E031D352EF6
:100C76000130F502031D402E412E1C2E7608031965
:100C8600452E462E4B2EF709F809F70A0319F80ADE
:100C96007808F1007708F00008008316031788012A
:100CA6008312031390018F018E010A128A11F32316
:100CB6000A128A110A128A1135240A128A110A1294
:100CC6008A1193240A128A11031C6A2E6B2EA92FED
:100CD6007B300A128A1147250A128A110318742ECC
:100CE600752E9D2E7A300A128A1147250A128A110C
:100CF60003187E2E7F2E9D2E7D300A128A114725DF
:100D06000A128A110318882E892E9D2E7C300A120B
:100D16008A1147250A128A110318922E932E9D2EA8
:100D26004F300A128A1147250A128A11031C9C2E7B
:100D36009D2EB32E053083120313C0004008F30026
:100D460001300A128A1170240A128A112D30F3001A
:100D56008030F4000A128A11BF240A128A11CF2F9A
:100D66007B087A0783120313C000C101C10D7D08F9
:100D76004007C2000030031801304107C3007C0859
:100D86004207C4000030031801304307C500FF3096
:100D96004405C60000304505C7004F08C800C90114
:100DA60047084906031DD92E46084806031DDC2EB2
:100DB600DD2E972F0A30F0000030F1007D08C000CC
:100DC600C1014008F2004108F3000A128A11E92520
:100DD6000A128A117008303E83120313C2004208B9
:100DE600B7000A30F0000030F1007D08C000C101F4
:100DF6004008F2004108F3000A128A1190250A12EF
:100E06008A117008303E83120313C2004208B800EC
:100E16000A30F0000030F1007C08C000C101400833
:100E2600F2004108F3000A128A11E9250A128A1112
:100E36007008303E83120313C2004208BA000A301B
:100E4600F0000030F1007B08C000C1014008F2004C
:100E56004108F3000A128A11E9250A128A1170085C
:100E6600303E83120313C2004208A7000A30F00086
:100E76000030F1007B08C000C1014008F2004108C3
:100E8600F3000A128A1190250A128A117008303E60
:100E960083120313C2004208A8000A30F000003093
:100EA600F1007A08C000C1014008F2004108F300D1
:100EB6000A128A11E9250A128A117008303E831235
:100EC6000313C2004208AA00DF30C0004008BB007E
:100ED600F301F30A01300A128A1170240A128A11E8
:100EE6003730F3008030F4000A128A11BF240A1248
:100EF6008A113030F3000030F4000A128A11BF2440
:100F06000A128A11F301F30A02300A128A117024B6
:100F16000A128A112030F3000030F4000A128A11F6
:100F2600BF240A128A11CF2FF301F30A01300A12E5
:100F36008A1170240A128A110130F3008030F400FD
:100F46000A128A11BF240A128A11CF2F0330831284
:100F56000313C0004008F30001300A128A117024FE
:100F66000A128A112130F3008030F4000A128A1125
:100F7600BF240A128A11F301F30A02300A128A11F7
:100F860070240A128A111130F3008030F4000A121C
:100F96008A11BF240A128A11831203131010063015
:100FA60083120313C2001330C100AD30C000C00B62
:100FB600DA2FC10BDA2FC20BDA2F5D2E0A128A1135
:100FC600002883134030FD000430FE005030FF003F
:100FD600203084000A128A11FD230A128A11CA01DE
:100FE600CB01CC01CD01CE01CF01FA01FB01FC0101
:0A0FF600FD0183010A128A11502E3A
:04400E00D4ECFFFFF0
:00000001FF
